:020000022000DC
:10600000F0A3002085D00200E9BB040059D00200B3
:1060100059D0020059D0020059D0020000000000FF
:10602000000000000000000000000000EDCD0200B4
:1060300059D0020000000000A5CD020059D0020096
:1060400069CE020081FF030069CE020069CE020022
:1060500069CE020069CE020069CE020069CE02005C
:1060600069CE020069CE020069CE020069CE02004C
:1060700069CE020069CE020069CE020069CE02003C
:1060800069CE020069CE020069CE020069CE02002C
:1060900069CE020069CE020069CE020069CE02001C
:1060A00069CE020069CE020069CE020069CE02000C
:1060B00069CE020069CE020069CE020069CE0200FC
:1060C00069CE020069CE020069CE020069CE0200EC
:1060D00069CE020069CE020069CE020069CE0200DC
:1060E00069CE020069CE020069CE020069CE0200CC
:1060F00069CE020069CE020069CE020069CE0200BC
:1061000053B94AB9002908BF00281CBF4FF0FF311E
:106110004FF0FF3000F00CB8ADF1080C6DE904CE83
:1061200000F008F8DDF804E0DDE9022304B0704770
:10613000704700BF2DE9F04786468C460846089E0A
:10614000154674461946002B40F0C2808542B2FACB
:1061500082F245D94AB1C2F1200300FA02FC2EFABC
:1061600003F3954043EA0C0C94404FEA154EA8B255
:10617000BCFBFEF8230C0EFB18CC08FB00F943EA2D
:106180000C43994528D9EB1808F1FF3704D29945FB
:1061900002D9A8F102072B44A3EB0903A4B2B3FB75
:1061A000FEFC0EFB1C330CFB00F044EA0344A0424F
:1061B00014D92C190CF1FF3304D2A04202D9ACF14E
:1061C00002032C44241A43EA07401EB1D4400023A2
:1061D00034607360BDE8F0874746DDE76346F1E76A
:1061E00092BB431B01214FEA154EAFB2B3FBFEFC3D
:1061F000200C0EFB1C330CFB07F840EA03439845C8
:1062000062D9EB180CF1FF3004D2984502D9ACF1F9
:1062100002002B44A3EB0803A4B2B3FBFEFC0EFB6D
:106220001C330CFB07F744EA0344A7424ED92C1950
:106230000CF1FF3304D2A74202D9ACF102032C4483
:10624000E41B43EA0040C0E7C2F1200320FA03F157
:10625000954090402EFA03F303434FEA154EAFB238
:10626000B1FBFEFC0EFB1C10190C0CFB07F841EAFD
:106270000041884504FA02F422D969180CF1FF3074
:1062800004D2884502D9ACF102002944A1EB0801EF
:106290009BB2B1FBFEFC0EFB1C110CFB07F743EAA3
:1062A00001439F420ED9EB180CF1FF3104D29F42FB
:1062B00002D9ACF102012B44DB1B41EA004192E719
:1062C0006046E3E76146F7E76046A3E76346B7E762
:1062D000834206D916B9002108467BE7C6E900E0EB
:1062E000F9E7B3FA83F78FB9834201D3724508D82F
:1062F000BEEB020460EB030301209C461EB90021A3
:1063000068E73846FAE7C6E9004CF8E7C7F1200C21
:10631000BB4022FA0CF41C432EFA0CF120FA0CF3C9
:10632000B84001434FEA14490EFA07F5B3FBF9F8F8
:106330001FFA84FE09FB18300B0C08FB0EFA43EA27
:1063400000439A4502FA07F240D9E31808F1FF30FA
:1063500004D29A4502D9A8F102002344A3EB0A0310
:1063600089B2B3FBF9F809FB183308FB0EFE41EACA
:1063700003418E452CD9611808F1FF3304D28E45B4
:1063800002D9A8F10203214443EA0040A0FB02988D
:10639000A1EB0E014145CE46434602D306D14D4501
:1063A00004D2B9EB020E68EB04030138002EA6D02C
:1063B000B5EB0E0261EB030101FA0CFC22FA07F3C4
:1063C0004CEA0303F940C6E9003198E74046C5E7C7
:1063D0004346D9E70000000073B5414DD5F854316C
:1063E000996811F0010124D101AA40F6034007F099
:1063F000EFFC044600286FD1019CA3681B78ABB961
:1064000008F078FFBFF35B8FD5F8CC30BFF35B8F1C
:1064100005F1CC0203F00503BFF35B8F52E8001FC8
:1064200042E800300028F9D1BFF35B8F20461DF011
:10643000F1FA01AA002141F2030007F0C9FC044669
:10644000002849D1019E2748B1680822013125F072
:106450008AFC30461DF0DEFA214601AA41F2010015
:1064600007F0B6FC0446002836D1019883685A78B4
:1064700085F86820D9789A7842EA0122A5F86A203E
:106480001A7985F86920197ADA7942EA0122A5F8A1
:106490006C205A799B7942EA0323A5F86E301DF0EF
:1064A000B9FA214601AA41F2020007F091FC044624
:1064B00090B9019E0C48B1684022013125F053FC8F
:1064C000094825F004FD30461DF0A4FA95F8743013
:1064D0005A060BD46FF01204204602B070BD00BF04
:1064E00030000020A0000020A8000020214601AAC2
:1064F00042F2030007F06CFC04460028ECD1019E38
:10650000B748B1680822013125F02DFC30461DF056
:1065100081FA214601AA42F2020007F059FC044622
:106520000028D9D1019CA368B3F80120A5F8FC206C
:1065300091B221B1DA78AB4811462AF041FB2046EE
:106540001DF068FA95F8746016F0200618D1022143
:1065500040F66D4007F0E0FB0446002800F0CE80D6
:106560000221083029F0E0FB012303704670214628
:10657000324640F66D4007F02BFC04460028ABD1B4
:1065800095F894301B0712D501AA002142F21C0095
:1065900007F01EFC044600289ED101988368D3F8BA
:1065A0000120D3F80530C5E936231DF033FA95F8FC
:1065B000D0309E0624D50DF10201684625F014FF67
:1065C0000446002888D1042142F2240007F0A4FBED
:1065D0000646002800F092800421083029F0A4FB30
:1065E000BDF800300380BDF80230438022463146BA
:1065F00042F2240007F0ECFB044600287FF46CAF65
:1066000095F8D0305C0610D501AA002142F22A008C
:1066100007F0DEFB044600287FF45EAF0198836834
:106620005B7885F818311DF0F5F9082142F2010078
:1066300007F072FB0446002860D00821084429F0C6
:1066400073FB95F8D01011F0400F024640F2022380
:1066500008BF032388074CBF43F02C0043F00C0015
:106660008B0695F8D13048BF40F0400013F0090F79
:1066700095F89A3018BF40F4006003F00603CE0787
:1066800048BF40F01000062B08BF40F4C070002146
:1066900025F063FD2146002242F2010007F098FB3D
:1066A000044600287FF418AF95F87430B5F8FC1054
:1066B000980626D4D9B901AA41F2050007F088FB53
:1066C000044600287FF408AFB5F8FC30019C5BB9A4
:1066D000A3685A78997842EA0122A5F8FC209A88A2
:1066E000404811462AF06CFA20461DF093F9082123
:1066F00040F6014007F010FB044638B96FF068041B
:10670000EAE60029F3D16FF00404E5E60821084425
:1067100029F00AFB95F8D030D907024657D4324801
:106720004FF0005125F019FD2146002240F60140AE
:1067300007F04EFB044600287FF4CEAE014601AAC6
:106740004FF6014007F044FB044648BB01981DF09A
:1067500061F9214601AA4FF6024007F039FB0446D1
:10676000F0B9019E2148B1680222013125F0FBFAFF
:1067700030461DF04FF995F8B9305B0710D501AAE6
:1067800021464FF6034007F023FB48B9019C184807
:10679000A1680122114425F0E6FA20461DF03AF9DD
:1067A00026F0E2F8044600287FF496AE09F0CEFE0B
:1067B000044600287FF490AEEB79002B3FF48CAEBA
:1067C00004210C4825F059FC07F09CFE84E602A148
:1067D000D1E90001A6E700BF9088000200800020F8
:1067E000000100203001002010880002E900002094
:1067F000E8000020FC0000202DE9F843D0E90B352B
:10680000D0F828805C193034A0450F46164619D8B8
:106810001D4DA3FB05011AA3D3E90023FFF770FC6C
:106820000346A4EB0800A0FB050123F07F4414A35A
:10683000D3E90023FFF764FC20F07F403C60306028
:10684000BDE8F883DFF840900DA3D3E90023A8FB4F
:106850000901FFF755FC044605F1300008A3D3E910
:106860000023A0FB0901FFF74BFC24F07F4420F03C
:106870007F403C603060BDE8F88300BFAFF300802C
:106880008D49FD1A0700000000CA9A3B0000000075
:1068900000284ED02DE9F04F5F4C94F86A2012F09A
:1068A000010591B040F0FE8194F82500FF2300F02F
:1068B000030084F8263018F0F9FE94F86A004607C1
:1068C00028D494F8292094F8353004EB820204EBA4
:1068D0008303D66AD3F8388086B14F48314612F028
:1068E000CFFA33785D0605D506210DF04BFB002865
:1068F00000F0DA814848414612F0C2FA337813F0CA
:106900000E0F18D1236A002B00F090800C2011B0DC
:10691000BDE8F08F2A4604F16B01C0F3C00019F006
:106920005BF8FF2884F82600CBD0284618F004FF37
:10693000C7E711F0C1BF94F824300121C3F342032B
:106940000CA88DF830300DF0B3FC0246002859D069
:1069500098F80110304612F063F83049B4F86870C6
:1069600000253123A360C4E9055529A3D3E90023F9
:1069700025706560E560A0FB0101FFF7C1FB2061A8
:106980000EF002FF80463FB9357805F00F05A5F1FE
:106990000105B5FA85F56D0994F82400236965F3BE
:1069A000000010F0010584F8240000F0468100206A
:1069B0001B4A1C4F049302250EAE0193059203213E
:1069C000CDE90200089606944346009007972A46B0
:1069D0000E950EF0ADFD314611F0A2F990B91249B5
:1069E00005914AF2D8330093CDE90300CDE90100C7
:1069F0000797089606944346012203210E950EF050
:106A000097FD40E1236A002B80D011F013FF7DE752
:106A10008D49FD1A07000000BC57002000CA9A3BB0
:106A2000918A0300F9710300C585030011F0C2F8D3
:106A30008146002800F0408111F0C8F88246002805
:106A400000F0378113F006FB0546002800F02E8188
:106A50004FF6FF73406F2B8505F11C030B93002845
:106A600000F0308105F1680205F164010DF096FA3D
:106A7000B5F86030984923F4EF6323F0070343F43B
:106A8000887343F00103A5F8603095F8393003F0BE
:106A90003F0363F07F0385F8393095F87A3023F0AF
:106AA000070385F87A3095F83C3023F0070385F822
:106AB0003C3095F8D630002767F3000385F8D630D0
:106AC00006224FF01B13C5E91631A5F8C020C5E911
:106AD00012776F67A5F878706F86C5F82E7085F805
:106AE0003B702F65A5F8C470A5F8C870A5F8D070E4
:106AF000A5F8CC704FF6FF7B6FF0FF030DF131016D
:106B000005F1D7000C93ADF834B08DF836B025F010
:106B10002AF995F8D61067F3410185F8D6100622B8
:106B20006FF0FF030DF1390105F1DD000E93ADF8B3
:106B30003CB08DF83EB025F016F995F8E43085F8B4
:106B4000F27023F0070385F8E430A5F8F070C5F87B
:106B50001471A5F81871A5F8307110F0E7FA95F8DE
:106B60004A31A5F8487123F0030385F84A3195F8B6
:106B70007A30A5F8507123F0180385F87A3095F82B
:106B8000763185F8537123F0070385F8763195F84F
:106B90009631C5F8549167F3451385F8963195F809
:106BA000BE31A5F8747167F3C303002285F8BE31C6
:106BB0000023C5E94E01C5E9502385F8E570A5F825
:106BC0009471C5F8EC70A5F8BC71A5F8C87113F004
:106BD0009FFDA5F8D20013F0A1FDD5F8CC213F4BC5
:106BE000A5F8D4001340C5F8CC3113F09DFD95F8FD
:106BF000D03160F3020385F8D03113F09BFD05F12D
:106C00001C03236295F8D031C5F8D47160F3C50335
:106C1000C4E9189AC5E97877C5E97677C5E90577B3
:106C20002F70ED6185F8D03119F010FF00283FF486
:106C300082AE11F0FFFD032069E6294A294804933A
:106C400003F247130694029591211360A7FB0003FA
:106C500001FB0731244B0793244B05934FF6FF7339
:106C60000992022703930EAE19A3D3E900230E97CE
:106C70000896FFF745FA4346CDE900503A462846C4
:106C800003210EF0FFFB314611F04AF800287FF493
:106C9000B9AE94F86A3043F0010384F86A3012F018
:106CA000DDFA58B1002032E6122030E6504610F0EE
:106CB00093FF484610F084FF072028E6012018F0D3
:106CC000D7FCEFE705F16C006867CBE6AFF3008017
:106CD0008D49FD1A07000000480148010000FFF639
:106CE000B0570020002AE784F9710300918A03005D
:106CF00070B590F824308AB0C3F342030D460446C1
:106D000001210DF1230016468DF823300DF0D0FA45
:106D100071780246284611F083FE1D491AA3D3E973
:106D20000023A0FB0101FFF7EBF923699842054618
:106D300021D21B1A00220192164A0293164BA21A64
:106D4000A3FB02320221920900230A4409AE0991F1
:106D500012490591CDE903330321D2B2069600937F
:106D600018460EF059FC314610F0DAFF38B92561AB
:106D700000200AB070BDFBD9C21A0023DBE70C204B
:106D80000AB070BDAFF300808D49FD1A0700000006
:106D900000CA9A3BBC57002089888888F971030093
:106DA00038B5194C9DF810E094F844C01CF001056A
:106DB00022D163F3420C400194F83230A1874FEAAC
:106DC000CE0E0EF0180E00F0200040EA0E0023F068
:106DD000380303430D4884F832309121A2FB0003AD
:106DE00084F844C001FB023105A3D3E90023FFF777
:106DF00087F92064284638BD0C25284638BD00BFD9
:106E00008D49FD1A070000004C580020002AE78435
:106E100010B504469DF8080022844FEA411CC000CA
:106E2000A17D00F018000CF0200C4CEA000C0C487E
:106E300021F038014CEA010CA3FB0002912101FB77
:106E4000032184F816C004A3D3E90023FFF758F9FF
:106E5000606210BDAFF300808D49FD1A070000008D
:106E6000002AE784000000002DE9F047044600F105
:106E7000350190F8440094F83230C0F3400060F3DC
:106E800086138CB084F832300EF0B4FC94F83220C3
:106E9000A38F4B48E46102F07902002584F8322088
:106EA0009121A3FB000201FB0321C4E9055542A384
:106EB000D3E900232570FFF723F93123A360236C66
:106EC00065600933A0F13102934228BF1346236164
:106ED000E56028BF256406460EF056FC236A074687
:106EE0000DF12C08002B4AD0364D374BCDF82080C1
:106EF0000694651BA3FB05353148A38F4FF0000AAC
:106F0000A3FB0002CDF80CA0912101FB0321236912
:106F100004932E4B07932E4B05934FF0020926A3A3
:106F2000D3E90023CDF82C90FFF7EAF81046194674
:106F30004FF47A720023FFF7E3F82D090435EDB220
:106F4000CDE9016003213B462A46CDF800A050461A
:106F50000EF0EEFA414610F0E3FE60B994F84430CA
:106F600043F0010384F8443011F060FFF8B10020D1
:106F70000CB0BDE8F0870C200CB0BDE8F087CDE97F
:106F80000A33216943460AAA032001F0DDF90B996F
:106F90000029A9D00F4808A3D3E90023A1FB0001D1
:106FA000FFF7AEF80A9B20F07F471F449CE7484656
:106FB00018F05EFBDBE700BF8D49FD1A07000000FB
:106FC000002AE7844C580020398EE338F971030019
:106FD0005190030000CA9A3B2DE9F04FC38D458EB6
:106FE000B0F8F4601D4490F81A31ADB22944174648
:106FF00013F007028BB0044689B20AD0531E042B4B
:1070000000F27C83DFE813F06A010102FC0139021F
:107010000402891B1FFA81F8090400F1CB8190F961
:107020003930002BC0F2638294F8F03084F8F130EC
:1070300094F8942194F8953194F8181184F8191162
:1070400093420AD094F8963103F00F03062B04D133
:10705000002384F89521A4F8C830934BD4F81491F8
:107060001A68944204BF00221A60B9F1000F00F0C0
:10707000B781D9F80000002800F0B281D4F81C31A3
:10708000628D4168C4F814111FFA83FC6245B4F89C
:10709000201100F03482228DC9F81E30002389F8B7
:1070A0001C30A9F80620A9F82210182389F804300A
:1070B000494610F097FD10F09FFDA368002B09DAF8
:1070C000E168626823F0004391422CBF7F18BF182B
:1070D000A360FF1A618DB4F81C9111FB08F189B20D
:1070E000B1FBF9F319FB03F080B281421FFA83FA76
:1070F00080F06581401A40F2E2426C4902FB00F0E8
:10710000A0FB010166A3D3E90023FEF7F9FF20F0FD
:107110007F400744E38D1E4494F93930761B564472
:1071200040F2E24B002BE6850BFB09F6C0F207822A
:10713000D4F824115D485AA3D3E90023A1FB000130
:10714000FEF7DEFF20F07F48354608F10108584A77
:10715000B4F82031B4F81E015649A4F82A903244FC
:10716000B2FBF6F2A4F8C62042F2107202FB0363EF
:107170003144013BB1FBF6F1B3FBF6F38AB2A4F85C
:10718000C230831D9A42A085A4F8CE2004DDC0F54C
:107190007F43FA331A4492B294F81A31A4F8CA2001
:1071A0001B0744BF0023A4F8C430022101201CF0B7
:1071B000B7F900220221824601200CF03FFF3E4930
:1071C0004FF4F87220460CF0C9FE00F105095FFA91
:1071D00089F93A4B00944A46012100200EF034FA16
:1071E00030F002030CD0364A3649374840F6CB43DC
:1071F00022F08AFC404080F311884FF0030002DF48
:107200002A4EA5FB066B26A3D3E900233046594638
:10721000FEF776FF2D4B20F07F45A5FB03310722BB
:10722000F01A02FB05116BEB01014FF47A72002397
:10723000FEF766FFCDE9015008940694CDF8008072
:10724000216994F93950224804912249224C07942B
:1072500031EA250128BF014605914FF6FE713B46F4
:1072600003914A46012100200EF062F930F002033A
:107270000CD0134A1349144840F6E54322F044FC6D
:10728000404080F311884FF0030002DFBAF1000F95
:1072900040F04F8100200BB0BDE8F08FAFF30080CD
:1072A0008D49FD1A07000000C458002000CA9A3B0F
:1072B000FF5962027FC3C901683300205D97030054
:1072C000CC300500AC310500BC2B05008D49FD1A02
:1072D000ADE2030099E4030005970300DFF8208383
:1072E000012010F08FFC0646002800F0B081C54850
:1072F0000CF0FEFD0546002800F0A981C24B1A687B
:10730000002A00F0688110F09DFC3368D4F8142145
:107310005A602B79C4F8146143F003032B710C23DA
:107320006B710023EB7194F828312B72B74AD4F8B3
:107330002431A2FB03239B0AA5F80930B4F81C31C1
:10734000A5F80B30B4F81E31A5F80D30B4F8203193
:10735000A5F80F3094F81A31C4F8FC70032262F3D8
:10736000020384F81A31A368002B0ADAE168626824
:1073700023F0004391422CBF7F18BF18FF1AC4F8B6
:10738000FC70A34B01220935C4F8F85002211046C5
:10739000C3E902480CF086FE60B19E4A9E499F48B0
:1073A00040F6733322F0B0FB404080F311884FF079
:1073B000030002DF6FF076000BB0BDE8F08F09FB31
:1073C0001311974840F2E24389B203FB01F1A1FB9C
:1073D000000189A3D3E90023FEF792FE3F1A99E644
:1073E0008C4A90498D484FF4426322F08DFB404017
:1073F00080F311884FF0030002DFD9F800003DE66A
:107400006FF00F000BB0BDE8F08FDFF81C8267E76C
:10741000D0F8F830D0F8D41190F8F00084F8F100EA
:1074200094F81801784A84F8190194F8940184F8C2
:10743000950100201060D4F8D801A3F109020029B9
:1074400000F0118194F87651AD0700F1F18094F8C5
:10745000CF51EF0700F1EC80D4F8E051A94200F0E1
:107460001B81002840F0E580087900F00300032824
:1074700000F03781C4F8D811DDE0828D90F81A0150
:10748000D4F8F830D4F8D4510632114489B26FF3ED
:107490000200A4F8F410A3F109021981D4F8D8115C
:1074A00084F81A01002D00F0D58094F87601860743
:1074B00000F1938094F8CF01C00700F18E80D4F8DA
:1074C000E001854200F0F680002900F00281D4F846
:1074D000DC51296843F8091C2A6053F8093CC4F8B8
:1074E000DC21002B7FF466AFC4F8E42162E790F85A
:1074F000E530002B3FF498AD80F8E52098E5B4F82E
:107500002CC0BCEB134F7FF4C6AD40F2E24C0CFB39
:1075100002F242F2107C0CFB012C0CF1FF3CBCFB94
:10752000F2F2B4F8C2C092B294457FF4B4AD012334
:10753000BCE50122022110460CF080FDAAE6226C77
:10754000A36C02FB1833A36419F0D2FA054694F831
:10755000E400DFF8CC80C0F3C20019F0CBFA054498
:1075600006FB05F5314B94F8282105F5742505F245
:107570003F25A3FB0535AD0CA36C25640BFB02F284
:1075800005FB0AF0226572080344963A934228BF2D
:107590001346C4E911230023A0FB0801C4F8EC3012
:1075A00015A3D3E90023FEF7ABFD184B3F1AD4F81F
:1075B0002401A3FB0030800A0BFB00F0A0FB0801B4
:1075C0000DA3D3E90023FEF79BFD751BB4F81C91B6
:1075D00020F07F48BBE51C6095E600294ED0D4F82A
:1075E000DC11086843F8090C0A6053F8093CC4F838
:1075F000DC2176E7AFF300808D49FD1A070000001B
:10760000FDEA0300A8590020C45800205917B7D13B
:10761000240C0020CC300500C02E0500BC2B05003A
:1076200000CA9A3B983105000185020083DE1B43A6
:1076300058B3D4F8DC11086843F8090C0A6053F811
:10764000093CC4F8DC21B3B16FF08B0023E66FF086
:10765000680020E60029C2D143F8091CC4E975225C
:10766000C4F8DC2140E70028E3D143F8090CC4E961
:107670007522C4F8DC21C4F8E421E5E743F8095C8D
:10768000C4E97522C4F8DC2194E643F8091CC4E976
:107690007522C4F8DC21D7E70D68C4F8E051002852
:1076A000C7D1086843F8090C0A6053F8093CC4E9DB
:1076B0007622C8E72868C4F8E00100297FF407AF04
:1076C000296843F8091C2A6053F8093CC4E976226A
:1076D00007E7297901F00301032909D0C4F8D8513B
:1076E000F7E6C8790328DCD00A287FF4C3AED8E7D0
:1076F000E9790329E4D00A29F0D1E1E7074A0849EA
:10770000084840F6C73322F0FFF9404080F3118863
:107710004FF0030002DF4FF00008E1E5CC30050038
:107720001C2C0500BC2B05002DE9F04F0B68D2F88E
:1077300000B01B6897B08A460B93037F00F11E01CF
:10774000C3F380130446154614A806228DF847306B
:1077500024F009FB9AF811000D90FF280DF148085C
:1077600000F0838042460DF1470117F07FFC9DF841
:1077700047600236F6B28DF847600B9B277FD4F83E
:1077800000C0CDF830C003F17109FF09434606F08F
:1077900001024946384612F0D3FF00284BD19BF82E
:1077A000D6200E9066F341028BF8D6204146062281
:1077B0000BF1DD0024F0D7FA9BF8D62067F3000226
:1077C00049468BF8D6200BF1D700062224F0CBFADD
:1077D0002F1D032204F12E0105F1080024F0C3FA45
:1077E00005F11806042204F12A01384624F0BBFAF8
:1077F000052204F13A01304624F0B5FA304605215D
:107800000CF056FD6A7F94F83F6000F03F0060F393
:1078100005026A77C6F30402AA77A18EE9810128DE
:1078200089B206F01F0206D91B3202F01F020B2A92
:1078300001D80E9B09BB0B9BE6680C9800225A618D
:1078400095F82030012762F3000385F820302146A7
:10785000277110F0C7F930683771314610F0C2F95E
:1078600010F0CAF917B0BDE8F08F062214A94046FF
:1078700024F079FA9DF847607FE7DAF8002053603A
:1078800094F8372094F8363043EA02232B829BF891
:10789000E430628E0F92760966F3C5038BF8E4300C
:1078A00040F2E24606FB01F919F022F90E909BF82E
:1078B000E400C0F3C20019F01DF90E9BC04A298AEA
:1078C000034409FB03F303F5742303F23F23A2FBF4
:1078D00003239B0C6B6294F83130BA4A06FB03F326
:1078E000AB634FEA5903963BAB62268FB64B42F22D
:1078F00010704A44B2FBF9F2ABF8C620B2B200FBFA
:1079000002924B44013A881DB2FBF9F2B3FBF9F342
:10791000ABF8C2209AB28242ABF8CE2004DDC1F5AA
:107920007F41FA310A4492B2ABF8CA2039460422A8
:107930000BF1E80024F017FA234613F81C2FC2F3CA
:1079400040120E92DA0700F101814FF48073A38395
:107950000B9B93F8260018F05DF90146062204F10E
:107960002B00002900F0EA8004F1240124F0FBF947
:107970000D9BFF2B04F1250000F0E38014A90622E3
:1079800024F0F1F99DF84730A3774146062204F12F
:107990001F0024F0E8F9D5F80E30C4F832309BF817
:1079A000E430E686C3F3C20384F83830584612F058
:1079B0005DFB2146A881E080DAF804400C9810F0C5
:1079C00011F9AB89E3801B2323710E9BD4F800804F
:1079D000002B40F0D0800E9E26772146404610F0C6
:1079E00001F910F009F995F84500B5F84060B5F8CF
:1079F0004240012100F0070018F082FE344404F5F3
:107A0000E17421188046714800273123CBF80830F3
:107A1000A1FB000168A3D3E90023CBF80470CBF8E5
:107A20000C70FEF76DFB0F9ADAF80C406E6A40F2AC
:107A3000E24320F07F4003FB024402213A46CBF8A8
:107A4000100001200CF0FAFA0B9D284611F0D4F931
:107A5000821C5F4B0095D2B2384601210DF0F4FD37
:107A600004F2B2440128A9EB0606A4EB080400F0D6
:107A70008C800B9B93F82430DB0774D4584612F0AB
:107A8000F5FADFF84891A6FB09864BA3D3E900235A
:107A9000054631464046FEF733FBDAF808304D4ADA
:107AA0000792A3F13A0A4C4BCDF818B020F07F476B
:107AB000A7FB0331B8EB0300484B05934FF4E47385
:107AC0000893DBF8103004934FF0000303934FF05A
:107AD000070303FB071166EB01014FF47A720023E1
:107AE000FEF70EFB34A3D3E90023CDE90170A4FB1C
:107AF0000901FEF705FB053520F07F40EDB200904F
:107B000053462A46012100200DF012FD30F00203F9
:107B10000CD0334A3349344840F2C91321F0F4FF02
:107B2000404080F311884FF0030002DF0122022160
:107B300010460CF083FA17B0BDE8F08F24F01EF960
:107B400016E70622002124F019F91BE7244A2749E9
:107B50002548F12321F0D8FF404080F311884FF0F1
:107B6000030002DFF1E600230122009318461146CC
:107B70000DF06AFD82E76B7F43F0400338466B7778
:107B800017F072F80126E88326E710F009F90B9B3D
:107B900083423FF46EAF124A1549134840F29F23C7
:107BA00021F0B2FF404080F311884FF0030002DF64
:107BB0005FE700BFAFF300808D49FD1A07000000AA
:107BC00083DE1B43FF5962027FC3C90100CA9A3B8F
:107BD00071E2030041E203008D49FD1AADE20300AA
:107BE000E4320500AC310500BC2B0500CC2C0500AF
:107BF00040330500000000002DE9F04F8BB0CDE9C7
:107C0000050102930020BDF860309DF85480BDF856
:107C100058A0BDF85CB00493164611F02DFB002867
:107C200000F0B78108F00107054638460DF0D2FD97
:107C30000390002F6BD1DDE90221149B384612F02E
:107C40007FFD002840F0B6812B6A05F11C020792E7
:107C5000002B63D0D5F82090029BD9F8004003F0A8
:107C6000010A99F84400C0F3C00100F0070018F0C1
:107C700045FDB9F84010B9F8423000F5E170014413
:107C8000D7481944A1FB0001D3A3D3E90023FEF791
:107C900037FA20F07F402061304617F029FD95F833
:107CA00033306FF3410385F83330FF2385F83430E8
:107CB000002E00F07281A8F10203012B40F27E81B8
:107CC00095F84430149968F3420385F8443095F8E8
:107CD00033306AF3000385F83330062205F12400BF
:107CE00024F041F8049B2B8605F11C00DDE90523F7
:107CF00000210096FFF78CF818F0A8FE002840F04D
:107D00007B812846FFF7B0F80BB0BDE8F08F062165
:107D10000CF038F900288ED11220F5E70FF04AFF59
:107D20000790002800F0C18112F094F90446002861
:107D300000F0B88120300CF0CFFA04F11C090028C3
:107D400040F08381032104F1240018F085FB606F6B
:107D5000A4F82CB04FF6FF73A4F82AA023850028BE
:107D600000F0808104F1640104F168020CF016F95E
:107D7000B4F860309B4A23F4EF6323F0070343F425
:107D8000887343F00103A4F8603094F87A3023F04C
:107D900007034FF0000B84F87A304FF01B13C4E94F
:107DA0001632C4F874B0A4F878B0C4F82EB0A4F8B1
:107DB00032B004F1340016F003FF94F8393060F368
:107DC0000503012184F839300DF1270018F044FB38
:107DD0009DF82720844BDDF810C0A08D84F83BB0BF
:107DE000A3FB0213DB0803EB4303A2EB830294F82B
:107DF00039307E49A4F8C4B003F03F03053284F85B
:107E0000393094F83C3084F83A2040F2E24202FBE8
:107E10000AF223F00303114484F83C30B1FBF2F181
:107E2000734BA4F8C61042F2107101FB0C211344ED
:107E30000139B3FBF2F3B1FBF2F2A4F8C22006223F
:107E4000A4F8C020811D9AB28A42A4F8C8B0A4F850
:107E5000D0B0A4F8CCB0A4F8CE2002DD063A121AB5
:107E600092B294F8E430A4F8CA2023F007034FF04C
:107E7000000B84F8E430029B84F8F2B0A4F8F0B070
:107E8000C4F814B1A4F818B1A4F830B103F0010A91
:107E90000FF04CF9079BC4F8543194F84A31A4F818
:107EA00048B123F0030384F84A3194F87A30A4F8F7
:107EB00050B123F0180384F87A3094F8763184F8BE
:107EC00053B123F0070384F8763194F89631A4F87F
:107ED00074B16BF3451384F8963194F8BE31A4F86D
:107EE00094B16BF3C303002284F8BE310023C4E9CC
:107EF0004E01C4E95023A4F8BCB1A4F8C8B112F0F3
:107F000007FCA4F8D20012F009FCD4F8CC21394BBC
:107F1000A4F8D4001340C4F8CC3112F005FC94F856
:107F2000D03160F3020384F8D03112F003FC94F8EE
:107F3000D0311499C4F8D4B160F3C50384F8D031BA
:107F400094F8D630C4F804B06AF3410384F8D6300C
:107F50003123A3600622C4E978BBC4E976BBC4F828
:107F60000CB004F1DD0023F0FEFE94F8D630039946
:107F700068F3000384F8D630062204F1D70023F01A
:107F8000F2FEC5F82090C4E905BB84F800B0E461B6
:107F900067E60C200BB0BDE8F08F17F0E9FF002872
:107FA0003FF489AE02981499324617F015FD85F812
:107FB000340080E60B200BB0BDE8F08F002017F0F6
:107FC000BBFB95F8333043F00203B84685F83330F5
:107FD00076E600BFAFF300808D49FD1A0700000070
:107FE00000CA9A3B48014801ABAAAAAAFF596202FB
:107FF0007FC3C9010000FFF62C6AA36D63B12C4A50
:108000002C492D484FF4976321F07EFD404080F3CA
:1080100011884FF0030002DF04F14C0104F1480025
:108020000BF0C0FF064608B32768A665D7F8544191
:1080300054B320460FF0C4FD384612F011F8002367
:1080400003202B620BB0BDE8F08F194A1B491A4878
:10805000BF2321F059FD404080F311884FF0030009
:1080600002DF6FE604F16C0060677BE6104A14499A
:10807000114840F2BA4321F047FD404080F3118897
:108080004FF0030002DFCFE7094A0D490A4840F2EA
:10809000C14321F039FD404080F311884FF00300C7
:1080A00002DFC6E707980FF08BFD07202CE600BF24
:1080B00070330500F82F0500BC2B0500982D050036
:1080C00024310500000000002DE9F04F07468DB077
:1080D000044617F81C9F0E46154600F1240106229F
:1080E0000AA823F040FE94F81C80FB07C9F3C019CE
:1080F000C8F3401800F1FB800023A383B17C777C98
:1081000011F0010104F12B004FF0060200F0D980BC
:1081100004F11E0123F027FEFF2F04F1250B04F1CB
:108120001F0A00F0D7805246384604F11E0116F0AF
:108130009DFFA37F02330AA95846A377062223F0A6
:1081400012FE3368D3F80090D5F80E30C4F8323000
:10815000B9F83030E38618F0C9FC84F838002F688D
:10816000384611F083FFD6F804A0A8812146E080AC
:1081700020680FF037FDAB89AAF806301B23DAF828
:1081800000408AF80430B8F1000F40F0BE8051463C
:1081900020468AF81C800FF025FD0FF02DFDBA68EF
:1081A0007B6895F84400B5F80E80F4689A4238BFB1
:1081B0001A46C0F3C00140F2E24300F0070003FB9F
:1081C00008F8924618F09AFA203400220221241A64
:1081D00001200BF033FF484611F026F8021D524BE8
:1081E000CDF80090D2B2012100200DF02DFA30F030
:1081F00002030CD04D4A4E494E4840F2C93321F09B
:1082000083FC404080F311884FF0030002DF4FF001
:1082100000094B4603220121CDF8009048460DF09D
:1082200013FA384611F022FFB668093EA6EB0A069B
:10823000DFF804A105463AA3D3E90023A8FB0A010D
:10824000FDF75EFF19463D4B07933D4B059340F20A
:10825000F933069708933B698046CDE903931046AE
:1082600000234FF47A72FDF74BFF2DA3D3E90023CF
:10827000CDE90180A4FB0A01FDF742FF053520F09E
:108280007F40EDB2009033462A46012148460DF06A
:108290004FF930F002030CD0244A2549254840F21A
:1082A000FA3321F031FC404080F311884FF0030095
:1082B00002DF0122022110460BF0C0FE0DB0BDE826
:1082C000F08F23F05BFDFF2F04F1250B04F11F0A53
:1082D0007FF429AF58460622002123F04FFD84F891
:1082E0001E900AA95046062223F03DFD29E70F4AB9
:1082F000144910484FF4527321F006FC404080F3BB
:1083000011884FF0030002DFF6E66B7F43F0400375
:108310006B77281D16F0A8FC4FF00108E88336E7BC
:108320008D49FD1A0700000065E403007033050065
:10833000AC310500BC2B050000CA9A3B69E4030080
:1083400099E40300CC2C05002DE9F04F8DB01D46BB
:1083500007934FF0FF0B00231646DFF8F4908DF8DB
:1083600027B00A1D044606922B600A939A4604938E
:108370000DF12C080AAF0225CDE90198009733468C
:108380000DF12702214600200B950DF09FF90228E0
:108390002CD00B9B83BB9DF82700FF283CD00538D1
:1083A000C3B2052BE8D880B211F068FE0028E2D0F5
:1083B00090F93930002BDEDBBBF1FF0F03690A9D1A
:1083C0000AD00499059328460DF0E0F9069B0AEBC4
:1083D00003029042059B22D804959DF827B09A4647
:1083E0000225C9E7214600200DF0B6F90B9B022BB0
:1083F000F8D00B9B002BCED0164A17491748732391
:1084000021F082FB404080F311884FF0030002DF2F
:108410009DF82700FF28C2D1BBF1FF0F0FD0049BAE
:108420000F485344A3FB0002072101FB032106A3CD
:10843000D3E90023FDF764FE079B803018600DB080
:10844000BDE8F08FAFF3008000CA9A3B0000000047
:108450003DE80300BC33050000340500BC2B0500DB
:108460008D49FD1A0000000070B582B01C460192D3
:108470001546064601AA0220FFF766FF23680BB3E4
:108480000198431B1B021FD429460DF07FF91A4A9D
:1084900003460721A0FB020201FB032114A3D3E939
:1084A0000023FDF72DFE22680244002A226009DB2A
:1084B00040F2E24303FB06F0904203D2121A8242DA
:1084C000FCD8226002B070BD014628460DF05EF96E
:1084D000094A03460721A0FB020201FB032104A372
:1084E000D3E90023FDF70CFE2268121ADDE700BF76
:1084F00000CA9A3B000000008D49FD1A00000000F0
:108500002DE9F043B0F8A41189B0044640F2E243EB
:108510003D48002603FB01F105AD0623C5E90166D0
:108520008DF80F30A1FB000135A3D3E90023059698
:10853000FDF7E6FD0DF10F03019500930490B4F8EB
:108540009A31204604AA012116F07AF99DF80F000D
:10855000B046374604F5D2794FF6FF76B9F800C039
:1085600078B12A460023B44503F1010104D0B2F8E2
:1085700000E0E6451BD00127CBB2834202F10202A4
:10858000F1D108F10108B8F1060F09F10209E5D1AE
:10859000D4F8F83027BBBDF8142040F2E24102FBCA
:1085A00001F1100AC4F824111A7058700EE08342C9
:1085B000E7D2D4F8F82040F2E24303FB0CF34FEA91
:1085C0001C21C4F8243182F800C05170042294F8B0
:1085D0001A3162F3020384F81A3109B0BDE8F0835E
:1085E00013F8052C0320024340F6117103F8052C03
:1085F00020221A7003F8040C23F8021C0522E6E777
:108600008D49FD1A0700000000CA9A3B00000000D7
:1086100038B5044619F006F9A37DA27DC3F34103E2
:10862000013303F00303032B08BF002363F342026B
:1086300014BF03F125002520A27518F01DF863680A
:108640000BB123694BB90DF09FF8C11C00201AF043
:10865000BFFDBDE838401AF039BE1AF0EBFD054603
:108660000DF092F8C11C00201AF0B2FD1AF02EFE97
:108670001AF0E0FD29460DF089F80B4A0346072160
:10868000A0FB020201FB032105A3D3E90023FDF7B0
:1086900037FD23691B1A236138BD00BFAFF300808B
:1086A00000CA9A3B000000008D49FD1A000000003E
:1086B0002DE9F04F89B004461AF09EFBC0B250B9C4
:1086C00018F032F87E4821461AF072FA09B0BDE877
:1086D000F04F1AF067BB1AF0AFFB05461AF0CAFC60
:1086E00007461AF0D1FC81461AF0E6FE06461AF05B
:1086F000C7FE82461AF082FCEDB280461AF064FC96
:1087000018F012F8002DDDD001200FF0EDFB05462A
:10871000002800F0CB8117F0FF07F6B240F0BD81D2
:10872000002E40F0C2804FF0FF093A464B463146DA
:10873000204619F09DFA0028C4D02A7F61680023E2
:108740008DF81B305FFA88F702F00F03002900F064
:10875000D680616891F82010880700F1D080072B3F
:10876000B0D0A17D090740F1AF81002B40F0AE8071
:108770006B7F252BA6D804200FF0B6FB0028A1D0D4
:108780001AF0ACFD636A074643B9238C40F27122AC
:1087900002FB03F3B0FBF3F203FB120723681A6931
:1087A000484B0721A2FB030301FB023142A3D3E99B
:1087B0000023FDF7A5FCA0F24233BB4282D31AF09E
:1087C000F5FB4846636817F033FAE37D9F07804660
:1087D00040F1DB81002800F0D881834601271AF0A0
:1087E00039FB2B7F07AA039205F11E020146824640
:1087F000C3F38013009220460022CDE9017B19F0DB
:1088000051FA50461AF0ACFA1AF0ECFA002840F08F
:10881000D1812D4821461AF0CBF96168A37D91F8EA
:10882000202043F0800342F0010281F82020A3754C
:108830000FF07AFB1623074603714FF6FF732D7F67
:10884000C380514624221C3023F08DFA3B7FBC604C
:10885000C5F3401565F345133B771AF0EBFC002197
:1088600038610120079D1AF08BFA002E08BF4FF0E7
:10887000FF0987F81990E37D2D1A13F002037D613B
:1088800003D0B8F1000318BF0123BA7E63F30002DE
:10889000BA760FF049FB3946F86038680FF05AFB9A
:1088A00009B0BDE8F04F0FF065BB5FFA8AF017F032
:1088B0004DFA814639E700BF00CA9A3B000000002C
:1088C000DD1804008D49FD1ACD1A0400012B40F07B
:1088D0000B816A7F0C2A7FF4F5AE2A7FCDF80090D9
:1088E000194600230193D20905F12403204619F00B
:1088F00013F900287FF43FAF2B7F03F00F03002B09
:108900007DD16B7F252B1A463FF6DCAEA17D890613
:1089100040F193806268002A40F00F819620059212
:108920001AF0C8FB059A10461AF098FA03200FF0C7
:10893000DBFA804600283FF4C5AE0FF0F5FA4FF69B
:10894000FF73A8F80630052388F80430002F40F0A4
:1089500018817F23002E88F8183014BF4B46FF2360
:1089600088F8193098F81A30D8F800006FF34103EE
:1089700088F81A3041460FF0EDFA0FF0FBFA1AF0C2
:1089800069FA2B7F0646C3F380133278DB0102F0CD
:10899000700243F00303134333700C237370484693
:1089A00017F046F9E37D9A0740F1F580002800F0C2
:1089B000F28033780146304643F0400300F8023B32
:1089C000062223F0D0F9062205F11E0106F1080067
:1089D00023F0C9F930461AF0C3F91AF003FA002857
:1089E00040F0F6801AF072FCA37D804843F001034A
:1089F0002146A37509B0BDE8F04F1AF0D9B8062B8F
:108A00003FF47FAF4521D94011F0010140F097803C
:108A1000012B70D16B7F0C2B7FF454AE2A7FCDF8E5
:108A200000900DF11B030193D20905F124032046A8
:108A300019F072F800285ED06A7F002A3FF442AE37
:108A400063682BB12B7F03F00F03072B7FF43AAE43
:108A500003209DF81B800FF047FA054600283FF4DD
:108A600031AE0FF061FA4FF6FF73EB8005232B71E7
:108A7000002F35D17F20AB7E2876002E08BF4FF027
:108A8000FF0968F341032868AB76294685F81990F9
:108A90000FF060FA0FF06EFA14E6A07D5FFA89F12C
:108AA000C0F3C00017F0E8F881463EE6504A51494D
:108AB000514840F2C32321F027F8404080F3118849
:108AC0004FF0030002DF26E6B9F1FF0F8DF81C908E
:108AD000C2F3801838D0227E91453FF446AE0EE7AF
:108AE0001AF07EFAC0B2C6E7062B3FF40AAF452261
:108AF000DA40D00723D42B7F03F00F03042B7FF43D
:108B0000E1AD6B7F252B3FF6DDADA37DDB077FF568
:108B1000D9AD1AF09FF92B7F0278C3F38013B3EB22
:108B2000D21F7FF4CFAD0830062205F11E0123F0DD
:108B30000AF900287FF4C6AD7EE71A467DE76A7F12
:108B4000252A7FF67AAFBDE505F11E0A07AA514630
:108B5000404617F0B1F900283FF4CEAEE37D03F0B4
:108B6000010343457FF4C8AE5146062204F10800D4
:108B700023F0E9F82B7F03F00F0300283FF4F5AD55
:108B8000BDE61AF02DFAC3B2E4E6A77D04F1190B95
:108B9000C7F3801723E6A37D3278C3F380133046F2
:108BA00063F3861200F8022B04F11901062223F068
:108BB000DAF808E70E4A11490F4840F2914320F0D5
:108BC000A3FF404080F311884FF0030002DF20E64E
:108BD000074A0A49084840F2165320F095FF4040E2
:108BE00080F311884FF0030002DFFBE6F118040068
:108BF00020380500D4370500BC2B0500DC37050004
:108C00002DE9F04F8FB0DFF8D8800B900DF13701D0
:108C10000DF136000FF05EF8324F9DF836A09DF84A
:108C200037B00CF0B1FDD8F800400A90A4FB07540F
:108C300029A3D3E90023002621462846FDF760FA40
:108C40000B9B0693CDE90766274B05938146D8F821
:108C5000040021A3D3E90023A0FB0701FDF750FA8C
:108C6000224B29F07F47A7FB033120F07F400722EA
:108C7000CDE9036002FB0711E81A64EB01014FF430
:108C80007A720023FDF73CFA0A9B0096CDE9017049
:108C90005A46032150460CF04BFC30F0020416D12A
:108CA000134A144800231FF06DFA68B19DF837206D
:108CB0009DF836000094234603210CF0C5FC6FF0AC
:108CC00073000FB0BDE8F08FD8F80C00F9E76FF033
:108CD0008B00F6E7AFF300808D49FD1A0700000016
:108CE000C86D002000CA9A3BF95404008D49FD1A52
:108CF000447B0B00B06D002038B50F4D04460CF0DE
:108D000043FDA9680CF042FD6968B0FBF4F404442B
:108D10000A4807A3D3E90023A1FB0001FDF7F0F9FE
:108D200020F07F40844294BF0020012038BD00BF66
:108D30008D49FD1A07000000C86D002000CA9A3B4B
:108D400001481FF07DBB00BF9002002007B528F04E
:108D50009BF94FF47A72A0FB020302FB0131C00BB6
:108D6000074A40EA4140106000234FF400420548A2
:108D7000CDE9002320F002F9002003B05DF804FBE8
:108D8000A84100205810002008B5044B187800F0C6
:108D9000E5F8BDE8084020F0FEB900BFE27200200F
:108DA000044B1A78824202D01870FFF7EDBF002002
:108DB000704700BFE272002008B528F065F94FF453
:108DC0007A72A0FB020302FB0131C00B044A40EAA5
:108DD00041401060BDE808400020FFF7E1BF00BF40
:108DE000A841002008B528F04FF94FF47A72A0FB93
:108DF000020302FB0131084AC30B126843EA4143F4
:108E00009B1A47F23052934204DDBDE8084001202E
:108E1000FFF7C6BF08BD00BFA841002030B5184C01
:108E20008DB00022002303A920461FF03DF808B1B1
:108E30000DB030BD059DDDE9030100F057F8B5FA2E
:108E400085F56D09FF238DF8183007908DF82050B7
:108E500028F01AF94FF47A72A0FB020302FB0131E9
:108E6000C00B40EA4140C90B8DE8030006ABCDE9D9
:108E70000A010FCB00F07EF820F08DF9D1E700BF9A
:108E8000341200201FB583F00103CDE901120393D2
:108E90000022002301A904481EF0B0FF03481FF080
:108EA000CFFA05B05DF804FB34120020AC4100207D
:108EB00010B51EF079FD044678B10949094827F03C
:108EC000FFFEA36808491B6820469847A3689B6873
:108ED0000BB120469847002010BD6FF01500FBE74E
:108EE0001D8E0200AC410020858E0200242303FB6E
:108EF0000011024B53F82100704700BF2C1B0500E6
:108F00002DE9F041134B144EA3EB060807460D461E
:108F100006EBC106C8F3C708A84506DC002438469E
:108F200028F058FA2046BDE8F08132683B689A4242
:108F30000BD13D71736838461B6898470128044679
:108F4000ECD0022804D00028E9D101350836E3E747
:108F50000024E7E7644505002445050010B50446F4
:108F60000C2028F03EFA024A0260047210BD00BFD5
:108F7000BC1B050084B070B504AC84E80F00202051
:108F800028F02FFA0446084B44F8083B04AD064687
:108F90000FCD0FC495E8030084E803003046BDE818
:108FA000704004B0704700BFC01B05000268034B4F
:108FB0009A420CBF08300020704700BFC01B05005C
:108FC00010B504460C2028F00CFA024A0260047224
:108FD00010BD00BFC81B050082B038B504A981E8E8
:108FE0000C00054611481EF0DFFC0446A0B16B687A
:108FF000012B0CD0022B05D0A3B9BDE8384002B03C
:1090000020F0E1B820F0E6F800282046F5DCBDE8C5
:10901000384002B020F0D0B86FF00400BDE838400E
:1090200002B070476FF08500F8E700BF353D0500DE
:1090300082B010B502A981E80C0004460B481EF06E
:10904000B3FC78B16368022B04D00020BDE8104067
:1090500002B0704720F0BEF80028CCBF00200120ED
:109060006060F2E76FF00400F0E700BF353D0500F7
:109070000D4A52F82030013342F820300B4A0123C8
:10908000117883400B430A490978DBB2137023EA55
:1090900001030849084A097850780B43181A53709D
:1090A00018BF0120704700BFBC410020E5720020BE
:1090B000E3720020E4720020D90F0020114A52F818
:1090C0002030002B10B519DD013B42F820300E4A4C
:1090D0002BB913780121814023EA010313700B4857
:1090E0000B4B047810780B4A5978127820EA040068
:1090F00010435870401A18BF012010BD6FF01500C2
:10910000FBE700BFBC410020E5720020E3720020B5
:10911000D90F0020E472002010B5084B084A1870DF
:10912000084B51781C78084B1B7823EA040318433A
:109130005070401A18BF012010BD00BFE47200201B
:10914000D90F0020E3720020E5720020074B0022B7
:109150001A70074B074A1978074B50781B7823EA97
:109160000103181A537018BF01207047E4720020E1
:10917000E3720020D90F0020E5720020A0F1E00387
:10918000072B03D82030C0B2FFF772BF064B062270
:1091900013F8011F19B1013AFAD100207047187075
:1091A0000028F8D0F9E700BFDB0F0020A0F1E003B2
:1091B000072B10B404D8203010BCC0B2FFF77EBF1C
:1091C0000023064A194612F8014F0133A04208BF96
:1091D0001170062BF7D1002010BC7047DB0F002068
:1091E00002480822002122F0C9BD00BFDA0F00208A
:1091F00010B50849002301EB4302B2F8014024B145
:109200000133062BF7D1002010BDA2F80100002881
:10921000F6D0F8E7CC0F002030B50023074C1946F4
:1092200004EB43020133B2F80150854204BF517090
:109230009170062BF4D1002030BD00BFCC0F002070
:1092400002480C22002122F099BD00BFCD0F002062
:1092500000487047D90F002000487047CC0F00200D
:1092600038B50C4605461449206822F04CFD10B96B
:109270002872012038BD1149206822F044FD10B940
:1092800001232B72F5E70E49206822F03CFD08B956
:109290000223F6E70B49206822F035FD10B9636818
:1092A0006B60E6E70849206822F02DFD10B963687D
:1092B0002B60DEE70020DDE7523D05005A3D05004A
:1092C000643D05006C3D0500793D05002DE9F8433E
:1092D000D0F804800769D8F80830DFF848903B617F
:1092E00000247B81BC8108F10C06D8F80830A34229
:1092F00011D931463846FFF7B3FF651C70B93068A5
:10930000494622F000FD48B9D8F808303C61ADB2BA
:109310005B1B7D81BB810020BDE8F8832C460C36A9
:10932000E3E700BF873D050010B5094B00211A4651
:109330005C68844205D15C7E1CB9582303FB012084
:1093400010BD01310A2903F15803F1D10020F7E7DC
:10935000181500202DE9F0410B4E337883B10B4CEA
:10936000DFF82C8000254FF0FF37204641460135BD
:1093700027F0DCFC0A2D44F8247C04F15804F4D1D5
:1093800000203070BDE8F081E20F00204015002081
:109390004995040082B02DE9F84308A981E80C0042
:1093A0000068DDE90A571E461EF0FEFAD0F8048078
:1093B0003046FFF7B9FF0446A8B9324B01461A46BA
:1093C000586801302CD15823594300235418535066
:1093D00000200021C4E9080101226660C4F814805D
:1093E00022742283A3764FF0010904F1280684F841
:1093F0001090304627F0A8FC2368D8F80420773076
:1094000008BF84F8199093423CBF0133236023685E
:1094100093420FD12A463B46204620F00CF804E048
:1094200001310A2903F15803CAD1BDE8F8430020ED
:1094300002B0704763691B685D1947F10007C4E912
:10944000085727F021FE4FF47A72A0FB020302FBBB
:109450000131C30B43EA4143EC1A002CE5DD4FF424
:10946000004540F2E73000214FF47A720023E4FB1C
:109470000501FCF745FE02460B4630461FF048F852
:10948000D3E700BF18150020F8B5FFF78FFD04469D
:1094900028B3037A1BB3164D0026012755F8243C48
:1094A0005A1C1ED0626893421BD0284627F04CFC01
:1094B00015F80E3C773008BF05F80F7C8BB90D4DC1
:1094C000582303FB06552846D4E904231FF0B3FFB5
:1094D0002B7C23B9D4E9042328461FF0E5FF0020A4
:1094E000F8BD01360A2E05F15805D7D1F7E700BFC0
:1094F00040150020181500202DE9F04395B01422E6
:1095000000210FA822F03AFCDFF8D0804FF47A77E0
:10951000002200230FA940461EF0C6FC002849D1B6
:109520000F9E029027F0B0FDA0FB070C07FB01CCBB
:10953000C50B45EA4C459DF84C30CDE903654FEA33
:10954000DC3C13F0010FCDF814C002AB0FCB06AC1E
:1095500084E80F000DF128092FD0CDE90765CDF87B
:1095600024C094E80F0089E80F0010981EF01CFA40
:1095700050B183689C683CB1DDE90C018DE80300C3
:1095800010A899E80C00A047139C012CC0D9C4F383
:109590005E044FF4004540F2E73000214FF47A7248
:1095A0000023E5FB0401FCF7ABFD02460B460C482B
:1095B0001EF0AEFF15B0BDE8F083CDE90765CDF82C
:1095C00024C094E80F0089E80F0010981EF0ECF911
:1095D0000028D9D08368DC68CDE700BFA411002043
:1095E0000000002010B58AB001AC84E80E0005A888
:1095F0001122002122F0C2FB94E8070006AB83E8A9
:1096000007009DF830300D9A43EA42030993094858
:109610000022002305A91EF0F1FB002804DB064808
:1096200027F090FB10B100200AB010BD0248FFF7F0
:1096300063FFF8E7A41100200000002038B5154CA6
:10964000012323701448002200231EF09BFD0028F4
:1096500005DB0025237823B90F481EF06DFD00209F
:1096600038BD257000F0FCF800F0060006284FF029
:10967000030007D100F0FAF80028EBD103201FF017
:10968000E4FFE7E700F0F2F80028E3D003201FF042
:10969000DFFFDFE7E6720020AC12002008B5FFF71D
:1096A000D7FD094A127822B1012A07D06FF0850050
:1096B00008BDBDE80840092101F050B9BDE80840E7
:1096C000013000F00FBD00BFE30F002008B5FFF729
:1096D000C3FD094A127822B1012A07D06FF0850034
:1096E00008BDBDE808400D2101F038B9BDE80840CB
:1096F000013000F01DBD00BFE30F00200249034808
:10970000012202F009BE00BFE7720020C73D05003C
:1097100010B502F055FF074802F08EFE044630B93E
:109720000548064927F002FB054802F02FFE2046B7
:1097300010BD00BF0405002088180020FD9602001F
:10974000DB3D050038B500F0C7FAC8B101F0D0F82C
:1097500002281BD10F4B1C780F4D2B78A34217D03A
:10976000FFF73EFDFFF76CFDFFF798FFFFF7AEFF39
:1097700020462C7000F030F8BDE838401FF00BBDDB
:1097800001F0B6F8841E18BF0124E5E70124E3E7E1
:1097900038BD00BFE7720020E30F002070B50C4613
:1097A00015460B4900221E4620F0E8FF08B90020AC
:1097B00070BD012C08D1074922463046A847002831
:1097C000F6DDFFF7BFFFF2E76FF01500F0E700BF2F
:1097D000D13D0500E772002010B504460C2027F0AB
:1097E00000FE024A0260047210BD00BF801C05002A
:1097F00003281FB52FD828BB09B3184B1A680123BB
:1098000083401343154C9A42236018D08DF8000012
:109810008DF8011027F038FC4FF47A72A0FB020398
:1098200002FB0131C00B40EA4140C90BCDE9020106
:1098300004AB13E90F0000F0C9F81FF0ACFC0020E6
:1098400004B010BD054B1A680029D8D1012383400C
:1098500022EA0303D6E76FF01500F1E7A8420020E3
:10986000014B1868704700BFA8420020014B1968DF
:109870001FF0E1BEA84200202DE9F04F15464FF43D
:10988000D8721F464A430C2303FB0522394B13446D
:1098900082460E4693E807008DB005AC84E80700C9
:1098A000DDE916891EF080F8834600285DD0CDE9F9
:1098B0000865CDE90A8905981EF076F883685B682B
:1098C0009C4653B10CAB13E90300DDE908238DE896
:1098D000030020466146884758BBDBF808301B78F8
:1098E000012B13D0022B27D0002B40D1CDE90A89C0
:1098F0000CAB029713E90300CDE908658DE803007E
:109900002B46324620461FF0A6FE12E0CDE90A891A
:1099100002970AAA92E80300CDE908658DE80300E2
:1099200008ABBAF1FF0F0CCBECD0214650461FF02C
:10993000E8FF0DB0BDE8F08FCDE90A89CDE90865F3
:1099400002970AAE96E803008DE8030008AD95E89B
:109950000C00214600201FF0D4FF029796E8030078
:109960008DE8030095E80C00CCE70120E1E76FF0FB
:109970008500DEE78C1C05002DE9F34EDDE90AAB1E
:10998000104D81460F4614461AB10F4B1B6845F81F
:109990002130032655F82710F0B21FF04CFE30B9E5
:1099A000013EF7D26FF0850002B0BDE8F08ECDE940
:1099B00000AB23463A4631464846FFF75DFF002894
:1099C000F2DDEDE718420020A84200207FB56C468A
:1099D00084E80F00182027F004FD0546054B45F8E4
:1099E000083B064694E80F0085E80F00304604B0B7
:1099F00070BD00BF4C23050084B070B504AC84E892
:109A00000F00202027F0EDFC0446084B44F8083BEB
:109A100004AD06460FCD0FC495E8030084E80300AB
:109A20003046BDE8704004B0704700BF54230500C5
:109A30000268034B9A420CBF08300020704700BFF9
:109A40005423050013B56C4684E80300102027F06A
:109A5000C8FC0246054942F8081B034694E8030087
:109A600082E80300184602B010BD00BF582305006D
:109A700007B5094B1A78094B8DF80020162102FB17
:109A80000133019302AB13E90300FFF7DBFF03B0DF
:109A90005DF804EB1FF07FBBEF720020F072002036
:109AA00002490348012202F037BC00BFEF720020D8
:109AB0007B3E050070B503788AB004460E4607ADBC
:109AC000032B20D8DFE803F002191B1D114928469B
:109AD00022F008F9059563780493A3780393E3785B
:109AE00002932379019363790093A3790A4A1E2193
:109AF000304620F016F80AB070BD0849E7E708497B
:109B0000E5E70849E3E7084A0A21284620F009F872
:109B1000E0E700BF8E3E0500B73E0500953E05001C
:109B20009C3E0500A63E0500B03E05002DE9F04133
:109B30008AB00D46164626496A4604461F4620F05E
:109B40001DFEF8B10098E8B10A2201A922F053F8ED
:109B5000019B1B7803BB162D1ED1C4B2042C1BD84D
:109B6000DFF870806C432A4608EB04013846B047A2
:109B7000002813DD04F10F0002A94044FFF79AFF0B
:109B800000200BE014496A46204620F0F7FD78B12A
:109B9000009B6BB9012D04D06FF015000AB0BDE831
:109BA000F0810E492A463846B04700EAE070F5E7F2
:109BB0000B496A46204620F0E1FD0028E0D0009BDA
:109BC000002BDDD1072DE7D106492A46EBE700BF80
:109BD000DA3E0500F07200207F3E0500EF720020A3
:109BE000FE3E0500E872002010B590B0044623F058
:109BF000C5F96946FFF75EFF08A9204606F024FA7A
:109C00009DF82130012B14D10B481EF019FC204681
:109C100023F0B4F9094B19780F22162313FB012303
:109C200007490722194422F08EF810B905481EF0A2
:109C300007FC10B010BD00BF7C050020EF720020B3
:109C4000F07200208C05002007B50B4B0B481978EB
:109C50000F22162313FB0123002200926946CDF840
:109C600003201844072222F06EF8B0FA80F0400971
:109C700003B05DF804FB00BFEF720020F07200201B
:109C80002DE9F04104468CB00D464FF016080F4FF9
:109C900004A9284614FB08F6FFF70CFF06F10F0095
:109CA00029460722384422F05EF8224608496846D1
:109CB00003F0B2FA4246B919684602F02DFB054896
:109CC0001EF0BEFB0CB0BDE8F08100BFF0720020BA
:109CD000E33E05008C05002037B50F4B1A7816249B
:109CE0000F2314FB02340D4B1C4400250722694648
:109CF00020460095CDF8035022F025F848B12146C2
:109D0000284606F04FF920B123F067F8012003B090
:109D100030BD0020FBE700BFEF720020F072002092
:109D2000F0B58DB0FFF790FF98B9FFF7D5FF80F041
:109D300001035B00DBB2214D2A7803EB0213112BE8
:109D400009DC022B2DD0102B23D0002420460DB08F
:109D5000F0BD0223EFE7202B1BD0122BF5D105F02D
:109D60009BF900232B7004460028EFD1144F0FCF2E
:109D700002AE0FC63B6813493360042200942346A9
:109D800002A805F057F904460028DFD102232B7002
:109D9000DBE705F081F900232B7004460028D4D0BE
:109DA000D4E7074E0FCE07AC0FC4336823600023FF
:109DB00004490093042207A8E3E700BF5E73002074
:109DC000101A05007023050030B591B0054623F048
:109DD000D5F869460446FFF76DFE08A9284606F047
:109DE00033F99DF82130012B05D1FFF72DFF2146D6
:109DF00018B904F051FA11B030BD034B1878FFF7D1
:109E00003FFFFFF78DFFF6E7EF72002030B591B00E
:109E10000D4608A9044606F017F99DF82130012BDC
:109E20000BD1204623F0AAF86946FFF743FE114BF9
:109E300000221A701DB1FFF773FF11B030BD02216F
:109E4000204623F049F8FFF76BFF204623F096F8F1
:109E5000094B19780F22162313FB01230749072208
:109E6000194421F070FF0028E7D105481EF0E8FAF8
:109E7000E3E700BF5E730020EF720020F072002065
:109E80008C05002010B5002004F054FB0446C0B936
:109E900002F096FB0C4802F0CFFA044688B90B4951
:109EA0000B4826F043FF0B4802F070FA0A4802F014
:109EB0006DFA0A4806F052F8094806F02DFBFFF744
:109EC0002FFF204610BD00BF64050020A19A0200AC
:109ED000B8180020F33E0500F73E050044050020B9
:109EE0001C0500202DE9FF41124E134F3078162536
:109EF0004FF00F0815FB0080002407226946384404
:109F00000094CDF8034021F01EFF68B1337815FBB3
:109F100003813944204604F0BFF93078029402A945
:109F2000CDF80B40FFF7ACFEFFF7FAFE002004B0BF
:109F3000BDE8F081EF720020F0720020042808B51F
:109F400010D80A4B1A7882420AD018704FF4F012D7
:109F5000002307481EF010FBFFF7E2FEFFF788FD25
:109F6000002008BD6FF02100FBE700BFEF7200206A
:109F7000B8180020054B187805230130B0FBF3F327
:109F800003EB8303C01AC0B2FFF7D8BFEF72002003
:109F9000054B187805230430B0FBF3F303EB830380
:109FA000C01AC0B2FFF7CABFEF720020044B0548C9
:109FB00019780F22162313FB01231844704700BFA2
:109FC000EF720020F072002010B50146044607220F
:109FD000044821F0C8FE21460348BDE8104007228E
:109FE00002F09AB9E8720020FA3E05001FB54C2431
:109FF0000294044C0194BDF81840009424F0D1FA66
:10A0000004B010BD383F050007B5064B0093064964
:10A01000064805234FF400721EF018FA002003B022
:10A020005DF804FB9023050030740020E818002040
:10A03000F0B5134E134F89B0002200236946304615
:10A040001DF032FF054608B109B0F0BD1FF009FC54
:10A0500004460028F8D01822294602A821F08EFED6
:10A0600008230DEB030120460397CDF810D0ADF87F
:10A07000143007F04DFF204622F0AFFEDCE700BFB2
:10A0800004120020FC2305002DE9F041134FDFF8F6
:10A0900050808AB001AE00220023314638461DF0C0
:10A0A00003FF054610B10AB0BDE8F0811FF0D9FBEF
:10A0B00004460028F7D01822294604A821F05EFEA5
:10A0C0000C2304A92046CDE90586ADF81C3007F025
:10A0D0001FFF204622F081FEDDE700BFD4110020E3
:10A0E0006024050037B5054640F6CD420146002301
:10A0F0000C481DF083FE044678B110F10B0F09D116
:10A1000000220023694607481DF0CEFE2846FFF7CF
:10A11000E9FF0446204603B030BD0349034826F05A
:10A12000E8FDF7E704120020AC050020E818002045
:10A1300030B5054685B040F6CD42014600230D48B6
:10A140001DF05CFE044678B110F10B0F09D100221E
:10A15000002301A907481DF0A7FE2846FFF7E8FFE6
:10A160000446204605B030BD0349044826F0C1FD31
:10A17000F7E700BFD41100209C050020E81800205C
:10A1800010B504460C2027F02CF9024A0260047234
:10A1900010BD00BFC424050001481EF051B900BF26
:10A1A0007C06002037B50F4CA5682C21EB682046B3
:10A1B0009847A0B92C212B696A462046984770B968
:10A1C000094C009B22789A4209D0D8B2207000F046
:10A1D000A1FF20B92078FFF7D3FF1EF0DCFF03B00A
:10A1E00030BD00BFD81505006073002013B50B48C3
:10A1F00026F033FB70B1FFF7D5FF044638B94FF4B2
:10A20000F01200230648CDE900231EF0B7FE2046D9
:10A2100002B010BD6FF01204F9E700BFD8150500B9
:10A220009010002030B5064D0FCD87B001AC0FC4A3
:10A230002B680449236001A805F096F907B030BDEA
:10A24000241A050051A3020007B500230749009313
:10A250004FF40072052306481EF0F8F8054805F093
:10A260007DFE03B05DF804EBFFF7DCBF3076002025
:10A27000881900209C06002084B010B588B00AAC74
:10A2800084E80F001148214640F6CD4200231DF01E
:10A29000B5FD0446A8B110F10B0F0CD1002200232C
:10A2A00003A90A481DF000FE0E9B00930AAB0FCBDA
:10A2B000FFF7E2FF0446204608B0BDE8104004B0B6
:10A2C00070470349034826F014FDF4E764120020A8
:10A2D0008C0600208819002070B503788AB00446E7
:10A2E0000E4607AD032B20D8DFE803F002191B1D33
:10A2F0001149284621F0F6FC059563780493A3786C
:10A300000393E37802932379019363790093A3790C
:10A310000A4A1E2130461FF004FC0AB070BD0849ED
:10A32000E7E70849E5E70849E3E7084A0A2128463C
:10A330001FF0F7FBE0E700BF8E3E0500B73E0500CB
:10A34000953E05009C3E0500A63E0500B03E05007A
:10A3500070B588B01646694605461C46FFF7BCFF37
:10A36000012E04D803492A46204622F0CCF908B031
:10A3700070BD00BF85A7020030B50C4D89B002AC9E
:10A3800000220023214628461DF08EFD08B109B0A9
:10A3900030BD08AB13E903008DE8030094E80F001B
:10A3A000FEF7E8FD1EF0F7FEEAE700BF741100209B
:10A3B00070B5104E104C8AB00022002305A930461B
:10A3C0001DF072FD08B10AB070BD9DF814307C22FA
:10A3D0005343E518E35C022BEED1CDE901000123E4
:10A3E0000093B5F85810686813230DF1150224F096
:10A3F00074FBE1E764120020AC420020034B5B6871
:10A40000834214BF6FF0150000207047AC4200205B
:10A4100008B5FFF7F3FF031EA3BF03487C2202FB2E
:10A420000300002008BD00BFAC42002010B502218F
:10A4300088B0044622F050FD48B92046FFF7E8FFF7
:10A4400028B1038D2BB16946204605F0FDFD08B00B
:10A4500010BD094A8260094AC260012202824FF699
:10A46000FF72C282037600F10801406807F0B8FE6F
:10A470000028E8D0EBE700BFC23F050081A402003E
:10A480002DE9F041134686B007460D4639B918222A
:10A49000184621F073FC002006B0BDE8F081FFF7FC
:10A4A000B7FF04460028F6D0124BD0F808C001AA26
:10A4B00003F11008964618685968164603C6083313
:10A4C00043453246F7D11B7833707146604621F020
:10A4D00038FD08B10120DFE7074BE3602B8AA0605D
:10A4E000013323820323237604F10801384607F061
:10A4F00077FED0E7381A0500C1A502002DE9F04724
:10A5000086B007461446FFF783FF002851D024B9D0
:10A510000C81204606B0BDE8F087631E00F15902A9
:10A520000F3413F8011F12F8015F69401174197894
:10A530001170A342F5D1DFF88090DFF880A000F120
:10A540006A0400264FF0010800252378EB40DB0762
:10A5500027D514F8101C08FA05F31942384614BF21
:10A5600001210021FFF74AFFAA198DF8000001928E
:10A570008DF8081026F088FD4FF47A72A0FB0203D4
:10A5800002FB0131C00B40EA4140C90BCDE9040197
:10A5900000220023694648461DF030FC50461DF05D
:10A5A0004FFF0135082DD0D10836802E04F101046B
:10A5B000CAD10120AEE700BF74110020BC06002004
:10A5C0002DE9F04106468AB00D46002962D0C968DF
:10A5D000002961D0FFF71CFF044600283AD02F4B1A
:10A5E000D1F800C06A4603F1100896461868596809
:10A5F000174603C7083343453A46F7D11B783B70EB
:10A600007146604621F09DFC38BB2B8AA060023366
:10A6100023820323237604F140032363E38AA38583
:10A62000284623F0D5FF1E4B236201232085A386F5
:10A630003046FFF7EDFE20B100F12001304607F073
:10A64000D5FFB4F858301BB1238D003B18BF012350
:10A6500083F001000AB0BDE8F081EB681F68114B80
:10A6600005AA03F1100E944618685968164603C6E9
:10A67000083373453246F7D11B783370614638464C
:10A6800021F05FFC0028DCD1284623F0A1FFA4F8CC
:10A690005800D6E70846DDE70846DBE7491A05001B
:10A6A000FDA402005A1A05002DE9F047044686B0C1
:10A6B00000284AD1264D2B78002B46D0686810B16F
:10A6C00022F08BFB6C600024224FDFF88C90DFF8C7
:10A6D0008CA02C70A04600263B78F340DB071CD5ED
:10A6E00033198DF8008001938DF8088026F0CCFC9A
:10A6F0004FF47A72A0FB020302FB0131C00B40EA67
:10A700004140C90BCDE904010022002369464846B7
:10A710001DF074FB50461DF093FE0136082EDBD170
:10A720000834802C07F10107D5D100220C491346CB
:10A7300001F8013F0132102A0B74F9D12B85A5F8DD
:10A740005830002006B0BDE8F0876FF01500F9E73B
:10A75000AC4200200643002074110020BC060020FB
:10A760000543002038B5064D2C7834B92046FFF754
:10A770009BFF01232B70204638BD6FF00B00FBE7D9
:10A78000AC4200202DE9F0410378063B012BA4B038
:10A7900005460E4603D9012024B0BDE8F081447877
:10A7A00014F00F04F7D16B789C42F4DA6968102238
:10A7B000214401A821F0F3FB70B3354B06AA03F145
:10A7C00010079646186859689446ACE803000833A9
:10A7D000BB426246F6D11B788CF80030714601A866
:10A7E00021F0AFFBD0B1252210A901A803F01EF87B
:10A7F0000BAA274B9646186859689446ACE80300A4
:10A800000833BB426246F6D11B788CF80030252213
:10A810001AA9704603F00AF81034C4E73046FFF76F
:10A82000D3FB04F01DFF07460028F5D1FFF79AFF80
:10A830003146C5B2384605F0B5FBDFF858C0164CB6
:10A840007C2255430CEB05081AAFC8F8040050B140
:10A85000FFF7ECFDA06C1A903946D8F8040022F0FE
:10A860008FFB002098E7E06C216D10AB543403C3DC
:10A8700094E80F0087E80F002B1D634410AA3946A7
:10A88000304605F00FFC0028EBD0FFF7CBFCE8E7E3
:10A89000381A0500AC420020241A050008B5FFF75D
:10A8A000ADFD002805DB7C235843024B02221A54DD
:10A8B000002008BDAC420020024B187002481DF079
:10A8C000BFBD00BFF30F0020CC06002008B5044830
:10A8D00001F042FA002818BF6FF0150008BD00BF54
:10A8E000B9A80200014B1878704700BFF30F002091
:10A8F000084B1B78033B082B08D8DFE803F0050959
:10A900000505070707070900022070470120704767
:10A9100000207047F30F002010B50948094C1DF0C6
:10A9200043F8206048B1084B08494C2219F088F9D7
:10A93000206825F052FA002010BD6FF01500FBE7EB
:10A94000D33F050028430020CC240500D93F050053
:10A9500001481DF0F1BB00BFC412002038B5044609
:10A960000D46FFF7BFFF0B280BD8DFE800F01E1ED7
:10A970000A0A1E060A0A0A0A0A1EBDE8384001F041
:10A98000B5B94FF47672002309481DF0FBFB094866
:10A990002146006800232A4625F029FA044610B112
:10A9A00003481DF0C9FB204638BD6FF01204FAE7DA
:10A9B000C4120020284300200148FEF779BA00BFE6
:10A9C0002540050010B5094C0A44914200D110BD44
:10A9D00011F8013B584003090001E35CC0B2434059
:10A9E00018091B01205CDBB25840EEE72B40050044
:10A9F0000B6801330B60014B1B681847DC06002015
:10AA000007B50B46002102460191034801A900F059
:10AA100027F903B05DF804FBF1A9020030B585B059
:10AA2000CDE901010446002501A90548039500F080
:10AA300017F9DDE902309842B8BF255405B030BDA2
:10AA4000E39A04002DE9F047058B04462807904659
:10AA500011D4022905F0070540F0CD8020461FF0F3
:10AA600088F878B10138218B042811D8DFE800F08C
:10AA7000C3106D85950001290CBF45F0100545F008
:10AA80002005258388F31188BFF36F8FBDE8F08719
:10AA900001F0070AAA4500F0A6800027B9463E4605
:10AAA000A368002B00F0BD8041F00801218388F3EA
:10AAB0001188BFF36F8FA168002900F0BB800D687B
:10AAC000002900F0B780D1F8048033465246204672
:10AAD000C047002D76D02B6829461D46F0E701F0CF
:10AAE00007035A1F012A1BD8002221F00701062B59
:10AAF000276889B2C4E9002209D13B4603E0628B92
:10AB00001B6801326283002BF9D141F002012183DD
:10AB100020461FF02EF800287BD041F0200177E07E
:10AB2000042B0AD121F0070189B2218320461FF0AE
:10AB300020F810B141F020012183218B01F0070A98
:10AB4000AA4550D00027B946AAE7236921F007019A
:10AB500041F00601062DD3F8009021832DD1B9F1E3
:10AB6000000F40D041F00801218388F31188BFF322
:10AB70006F8F3A492046C84729E021F00701236931
:10AB800041F0040189B2042DD3F804902183E6D06A
:10AB900000273E464FF0040A82E721F007012369AF
:10ABA00041F0050189B2052DD3F808902183D6D054
:10ABB00000273E464FF0050A72E700273E464FF059
:10ABC000060A6DE72B4687E7B9F1000FD1D14FF0A8
:10ABD0002003EFF3118883F31288BFF36F8F238B69
:10ABE00023F008032383258BEA062ED525F01003D6
:10ABF000238305F007056669218B002EBFF66FAF32
:10AC000000232768C4E9003321F0070141F0010166
:10AC10002183218B01F0070AAA454FF000097FF438
:10AC20003FAF002F9BD041F00801218388F31188AA
:10AC3000BFF36F8F002FC7D03D6839463346524669
:10AC400020461EF0C2FF2F46F4E7AB067FF51AAF91
:10AC500025F02003238305F00705FFE6F79B04009A
:10AC60002DE9F04F8DB01D46531E8246019103938E
:10AC70004FF00009039B5878252803F1010419D1EE
:10AC80001E4600204FF0FF3802360346029044462D
:10AC900031780396392954D81F2914D8002900F097
:10ACA000F08101992520D04701993078D04709F1EA
:10ACB0000209DFE7002800F0E4810199D04709F19B
:10ACC00001090394D6E7A1F12002192AE9D801A7C6
:10ACD00057F822F03DAD0200A3AC0200A3AC020085
:10ACE0003DAD0200A3AC0200BDAD0200A3AC02006A
:10ACF000A3AC0200A3AC0200A3AC020009AE0200A8
:10AD00003DAD0200A3AC02001DAE0200C9AD0200C1
:10AD1000A3AC0200D7AD0200F7AD0200F7AD020010
:10AD2000F7AD0200F7AD0200F7AD0200F7AD02008B
:10AD3000F7AD0200F7AD0200F7AD0200084601369C
:10AD4000A6E7582900F0EE80A1F16302D7B2172FD1
:10AD5000A7D8172AA5D801A757F822F0CBAF020031
:10AD600043AE0200A3AC0200A3AC0200A3AC0200FD
:10AD700023AE020043AE0200A3AC0200A3AC02006B
:10AD800023AE0200A3AC0200A3AC0200A3AC0200FD
:10AD9000FFAE0200A3AC0200A3AC02009FAF020012
:10ADA000A3AC020043AE0200A3AC0200A3AC0200BD
:10ADB000FFAE0200A3AC020023AE020001992520E1
:10ADC000D04709F1010955E7029A02F0FE0202920A
:10ADD0004FF00008B3E7002C0DDAB8F1000F0DDAE0
:10ADE000029A002A00F0458124EAE4740A2202FB58
:10ADF0000414303CA3E7B8F1000FF5DB0A2202FB94
:10AE00000812A2F130089AE7B8F1000F55F8042BA8
:10AE100080F23181002A80F2308154420222029273
:10AE20008DE7682903D1682B06D1482387E76C2971
:10AE300002D16C2B00F02381002B7FF432AF0B4644
:10AE40007DE77A2B06D1752955F8046B14D14FF0A4
:10AE5000000B0CE06C2BF6D04C2BF4D1073525F011
:10AE600007037529D3E9006B03F1080506D12028F3
:10AE70003ED1864F013C09E04FEAE67BBBF1000F73
:10AE8000F5DA7642824F6BEB4B0B013C0DF12D0353
:10AE9000059300230493304659460A220023FBF70A
:10AEA0002FF9049B03F1FF3CCDF810C0DDF814C06E
:10AEB00030320CF8012DCDF814C0B4465A46BCF11E
:10AEC0000A0F72F1000206468B46E4D2C3F1010B71
:10AED00030330DEB0306B8F1000FA6F104066DDA6E
:10AEE000029BD9077CD4A8EB0B03A4EB0B0413E063
:10AEF0002B280ABF674F684F04F1FF34C6E770295B
:10AF00000FD155F8042B0023FAB9644E053C6FF0BD
:10AF100004034FF0050B604F029A92076FD4A046CE
:10AF200065E078216C2B03D155F8042B002308E051
:10AF30004C2BF9D1073525F007031D465B6855F802
:10AF4000082B232825D1880621D5554F023C01F036
:10AF50006001A1F1390B0DF12D0E002602F00F0159
:10AF6000092988BF594430310EF8011D102A4FEAD3
:10AF7000121141EA03714FEA131073F1000306F155
:10AF8000FF3C08D2C6F1010B06F13003A1E7454FA3
:10AF9000DCE7414FDBE766460A460346DEE755F845
:10AFA000046B304620F0A8FEB8F1000F834602DBA8
:10AFB0004045A8BFC346384F4FF00008A8EB0B032D
:10AFC000002B92DDA4EB0804A6E755F8043B8DF8AE
:10AFD0001830013C4FF0FF334FF0010B06AE9AE7FB
:10AFE000A046EBE7029301992020D047029BB8F1DD
:10AFF0000108F7D524EAE472013C9144A41AB8464A
:10B0000006E0049302920199D047029A049B90466D
:10B01000424612F8010B0028F3D11A46013A15D521
:10B02000002BACBFC7EB03077F425B46013B15D546
:10B03000BBF1000FA8BF5F444F442646013E14D524
:10B04000002CA8BF3F1907EB080913E604930292EE
:10B0500001993020D047049B029ADFE702930199BF
:10B0600016F8010BD047029BE0E701992020D0475A
:10B07000E4E70122D3E6904661E614465FE64C23FE
:10B080005DE648460DB0BDE8F08F00BF3D400500CD
:10B090003B4005003F400500754005004740050066
:10B0A000414005004440050008B54FF02002EFF391
:10B0B000118382F31288BFF36F8F02F0DDF803482B
:10B0C0001EF022FD01F0BEFDFCE700BF4D40050073
:10B0D0001FB507240294044C0194BDF81840009455
:10B0E00023F05FFA04B010BDF40F002010B5084C37
:10B0F00086B024788DF81740012402940DF11704CE
:10B100000194BDF82040009423F04BFA06B010BD26
:10B11000FB0F002000B589B064288DF8070019D80E
:10B120000E4B18221870002102A820F027FE0C4BAD
:10B1300003930DF10703049302A901230020ADF846
:10B14000143006F0E5FE10F1800F08BF002009B0B2
:10B150005DF804FB6FF01500F9E700BFFB0F00205E
:10B16000802505002DE9F7430F4606460821C06AF1
:10B17000DFF850901FF071F83C68241A80463C605C
:10B1800004EA0905AC4203D8002003B0BDE8F0830F
:10B1900008236A46214630461EF0D4FF0028F4D129
:10B1A000694630461FF063F840B1BDF80230BDF883
:10B1B00004203C6005EA090513441D44A4EB08047F
:10B1C000E0E700BF0000FFFF2DE9F047044688B02C
:10B1D0000D4600F11407384625F019FC28461CF0EE
:10B1E000E3FBA062002800F052818368DB68984787
:10B1F000E06228B96FF01505284608B0BDE8F08771
:10B20000A06A8368DB6898470368013B1F2BF1D86D
:10B21000A06A216805AA24F0D3FF0028EAD1A589F5
:10B22000002DE7D0069BB5FBF3F203FB1255002D72
:10B23000E0D1E389012BDDD9E36A009593F804900E
:10B240004FF0FF334FF0FF3238461CF087FEE06AC4
:10B2500008211FF002F8A8460646E3891FFA85FA7E
:10B26000534508D8E389434523D138461CF0EEFE08
:10B270006FF02C05C0E7A1892B04891B13FA81F11B
:10B280004A460823204600911EF094FF78B1E089D9
:10B2900069461EF0D7FF08F10108009908234A46C5
:10B2A00020461FFA88F81EF085FF0028DAD0013505
:10B2B000D3E753450BD1009908234A46891B204602
:10B2C0001EF078FF18B9E08969461EF0BBFF694699
:10B2D0002046FFF747FF054618B138461CF0B6FE7A
:10B2E0008AE7009B63604FEA13484FEA0848C4F8B6
:10B2F0000880D4E9011399420FD3082301AA2046FC
:10B300001EF020FF05460028E7D101AB13F8012B02
:10B31000914533D10135082DF8D16368E0891B0CC4
:10B320001B04694600931EF08DFFA38900994A46CD
:10B3300020461EF03FFF051ECFDB636874D006EB8E
:10B3400003084FF6FF79A389CDF800801FFA88F231
:10B350009B1B9A422CD300236168002B41D0090C1F
:10B360000904E089009169461EF06CFF00992046AF
:10B370001EF045FF0546002D72D0AEE701A920461C
:10B380001EF075FF626810B9921B6260B1E7BDF8EC
:10B390000850BDF80610E06A29441EF05EFF4044E4
:10B3A0009042A060F0D1002DEED06FF01C0568E057
:10B3B000082303AA414620461EF0C4FE0546002885
:10B3C0008BD103A920461EF052FF30B1BDF80C30DE
:10B3D0004B4502D1BDF810300BB1B044B3E70123A7
:10B3E000BAE720461EF00BFF054600287FF475AF34
:10B3F0006368284AA18913400B44A3EB46036360AA
:10B400001340A36020461FF014F8B3E75B1A4A46C6
:10B4100020461EF0CFFE051EFFF65FAF08D0E26AA1
:10B42000A36812681344A360D4E901318B42EDD8BC
:10B430006168A38901EB46029A429CD1DFF85480EF
:10B44000A26801EA08039A4295D020461EF0D7FE72
:10B45000054600287FF441AF636803EA0803A36050
:10B46000A389A288A3EB46039A4206D038461CF073
:10B47000EDFD012323740025BEE620461EF0C4FF27
:10B48000054638461CF0E2FD002DF2D0B4E66FF020
:10B490000505B1E60000FFFF2DE9F04F1D46037CD6
:10B4A00089B0044689469046002B00F0BD80C26AF0
:10B4B000082110461EF0D1FE2946824610461EF095
:10B4C000CCFEA389A3EB8A039D42074600F2AF801E
:10B4D0001DB1B8F1000F00F0AA806368039304AABD
:10B4E00003A92046DDF80CB01EF0F9FE0646002840
:10B4F00065D1BDF810304B4505D06268039B9A4278
:10B50000EDD1E5B95BE004A920461EF0B0FE0028AD
:10B51000F3D0BDF81200BDF8143075B19D420ED1C4
:10B520004FEA1B41090401442B46424620461EF0C7
:10B5300017FE002803DC064641E0002B3FD0002F19
:10B5400041D104F1140301934FF0FF324FF0FF3368
:10B5500004F114001CF002FDDFF8D8B0E3899E422C
:10B560005FD0D4E90123F9188A422FD3ADF81A30FD
:10B5700006A8FF238DF81E30ADF81890ADF81C50CA
:10B580001EF057FEA1682B46424620461EF0F1FEF3
:10B5900029468246E06A1EF060FEA2680244A2606C
:10B5A000BAF1000F07D106A920461EF01CFF0028A3
:10B5B00014BF8246AA4601981CF048FD5646304604
:10B5C00009B0BDE8F08F5744BFB2BAE70821E06A7E
:10B5D0001EF043FE4FF6FF73ADF818300023ADF8B0
:10B5E0001C301318ADF81A30A38902EA0B021A4472
:10B5F000101A606006A81EF01CFE06A920461EF068
:10B60000F2FEE089211D1EF01DFE636803EA0B03B4
:10B61000A36020461EF00DFF82460028CBD10136E4
:10B620009CE76FF01B0AC6E76FF00C06C7E76FF0E8
:10B630001506C4E70000FFFF0C4BF0B45F6A0C4E28
:10B640000C4BB34203D36FF08500F0BC70475D68CC
:10B65000BD4209D31C693CB195F802C00579AC45DF
:10B6600002D12346F0BC18472433EAE72C430020DC
:10B6700014150020F01400202DE9F047134CDFF8DA
:10B680005080DFF8509005460E461746444503D3D8
:10B690006FF08500BDE8F0876268D9F824309A42DF
:10B6A00012D3A36983B190782979884205D13A46AB
:10B6B00031462846BDE8F04718475279012A03D1A0
:10B6C0003A463146284698472434DFE7F0140020F4
:10B6D000141500202C4300202DE9F0410B4CDFF81D
:10B6E000308005460E461746444502D36FF085006C
:10B6F00009E063690BB92434F6E73A463146284637
:10B7000098470028F7D1BDE8F08100BFF014002071
:10B710001415002007B583788DF80030037942793D
:10B7200043EA0223ADF80230C378684603F003030E
:10B730008DF8043018F046FE10F1780F04D018B1DF
:10B74000002003B05DF804FB9DF8000018F0C0FE77
:10B7500010F1780F01D00028F2D1024B012083F8BC
:10B76000B900EEE72C43002002480822002120F017
:10B7700005BB00BFE743002070B50B4B0B4CA34249
:10B7800001D3002070BD196A1E7F00220439D5B292
:10B79000AE4201D82433F2E7013211F8325085422B
:10B7A000F5D10120EEE700BFF014002014150020B1
:10B7B000094808B50378C3F341130A3350F823301E
:10B7C0003BB100F1080200F110019847C043C00FDF
:10B7D00008BD1846FCE700BF2C43002004282DE9D3
:10B7E000F047DFF88C8004460E4613D1FFF7BCFF0C
:10B7F000204B93F8B930ABB100F0FEFC1E4D45452F
:10B8000026D2D5F8209000272A7FFBB29A4217D87B
:10B810002435F4E7052810D1164B93F8B9300BB155
:10B8200000F0EAFC144D454517D3124B1B6AE3B1F7
:10B8300031462046BDE8F04718470128F2D1D7E746
:10B8400009EBC3030137187918F06CFE0028DBDA26
:10B85000084B002283F8B920E4E7EB681BB13246BD
:10B860002146284698472435DDE7BDE8F08700BF2C
:10B87000141500202C430020F014002073B5C4B22E
:10B8800063060D468DF8074007D02046FFF774FF8A
:10B8900078B10D4B93F8BA0058B10B4E204655B114
:10B8A00018F0B2FDF3691BB10DF1070108209847AC
:10B8B000012002B070BD18F0CFFDF369002BF7D066
:10B8C0000DF107010920F2E72C4300202DE9F04794
:10B8D000A44EB36904460F461546FBB9237803F01E
:10B8E0001F03012B00F09D80022B00F0078133BB6A
:10B8F00094F900002A686178002834DA062912D009
:10B9000008292BD0D9B901231370517096F8C33090
:10B910005B0043F00103137002232CE198470028D9
:10B92000DCD100200DE06288100A011F0129844645
:10B9300005D9072803D8716AD2B20C781CB96FF008
:10B940001500BDE8F0874E78664503D19A4200F0B5
:10B950000D8101332144F0E70B780CE196F8BA3001
:10B960001370012307E101390829E8D801A353F82E
:10B9700021F000BF0DBA02003FB902001BBA02005D
:10B980003FB9020099B902003FB902003FB9020075
:10B990003FB90200A5B90200A07818F001FD002807
:10B9A000BFD0CCE76388756A63BBFFF7DDFE6388B1
:10B9B00086F8BA30F369002BB3D06B49032098475F
:10B9C000AFE76B78042B10D0052B11D0022B04D1DC
:10B9D0006F796388BB4208BF01202B781D442B7808
:10B9E000002BEED10028AAD0DFE795F80380F4E71A
:10B9F0006388BB42F1D1B8F1000FEED12846FFF7C2
:10BA000089FEEAE7FF270020B846E8E76388012BB4
:10BA100095D1002386F8C33083E76388012B8ED14C
:10BA2000F8E796F8BA30D5F800C0002B87D0756AD1
:10BA3000A38894F804E02A46107800283FF47FAFEA
:10BA40005178022904D192F80480F04500F29580E3
:10BA50000244F1E78CF800208CF80120396060E79F
:10BA6000154496E00B2A7FF46AAF00274FF0FF08D9
:10BA7000C146BA4606E06B78042B0FD0052B21D0C7
:10BA80002B781D442B78002BF5D1F36913B1514667
:10BA900007209847002F7FF444AF50E795F80280C5
:10BAA000A38895F803909845EAD163889945E7D132
:10BAB000B8F1070F1FD806EB0803AA4683F8BB901E
:10BAC0000127DDE7A3884345DAD1A3784B450DD0A4
:10BAD000AF78384600F072FB384618F023FD10F1BD
