:020000022000DC
:10600000E8A30020BDCF0200DBBA040091CF02005C
:1060100091CF020091CF020091CF0200000000005A
:1060200000000000000000000000000025CD02007C
:1060300091CF020000000000DDCC020091CF0200F1
:10604000A1CD0200B9FE0300A1CD0200A1CD020046
:10605000A1CD0200A1CD0200A1CD0200A1CD020080
:10606000A1CD0200A1CD0200A1CD0200A1CD020070
:10607000A1CD0200A1CD0200A1CD0200A1CD020060
:10608000A1CD0200A1CD0200A1CD0200A1CD020050
:10609000A1CD0200A1CD0200A1CD0200A1CD020040
:1060A000A1CD0200A1CD0200A1CD0200A1CD020030
:1060B000A1CD0200A1CD0200A1CD0200A1CD020020
:1060C000A1CD0200A1CD0200A1CD0200A1CD020010
:1060D000A1CD0200A1CD0200A1CD0200A1CD020000
:1060E000A1CD0200A1CD0200A1CD0200A1CD0200F0
:1060F000A1CD0200A1CD0200A1CD0200A1CD0200E0
:1061000053B94AB9002908BF00281CBF4FF0FF311E
:106110004FF0FF3000F00CB8ADF1080C6DE904CE83
:1061200000F008F8DDF804E0DDE9022304B0704770
:10613000704700BF2DE9F04786468C460846089E0A
:10614000154674461946002B40F0C2808542B2FACB
:1061500082F245D94AB1C2F1200300FA02FC2EFABC
:1061600003F3954043EA0C0C94404FEA154EA8B255
:10617000BCFBFEF8230C0EFB18CC08FB00F943EA2D
:106180000C43994528D9EB1808F1FF3704D29945FB
:1061900002D9A8F102072B44A3EB0903A4B2B3FB75
:1061A000FEFC0EFB1C330CFB00F044EA0344A0424F
:1061B00014D92C190CF1FF3304D2A04202D9ACF14E
:1061C00002032C44241A43EA07401EB1D4400023A2
:1061D00034607360BDE8F0874746DDE76346F1E76A
:1061E00092BB431B01214FEA154EAFB2B3FBFEFC3D
:1061F000200C0EFB1C330CFB07F840EA03439845C8
:1062000062D9EB180CF1FF3004D2984502D9ACF1F9
:1062100002002B44A3EB0803A4B2B3FBFEFC0EFB6D
:106220001C330CFB07F744EA0344A7424ED92C1950
:106230000CF1FF3304D2A74202D9ACF102032C4483
:10624000E41B43EA0040C0E7C2F1200320FA03F157
:10625000954090402EFA03F303434FEA154EAFB238
:10626000B1FBFEFC0EFB1C10190C0CFB07F841EAFD
:106270000041884504FA02F422D969180CF1FF3074
:1062800004D2884502D9ACF102002944A1EB0801EF
:106290009BB2B1FBFEFC0EFB1C110CFB07F743EAA3
:1062A00001439F420ED9EB180CF1FF3104D29F42FB
:1062B00002D9ACF102012B44DB1B41EA004192E719
:1062C0006046E3E76146F7E76046A3E76346B7E762
:1062D000834206D916B9002108467BE7C6E900E0EB
:1062E000F9E7B3FA83F78FB9834201D3724508D82F
:1062F000BEEB020460EB030301209C461EB90021A3
:1063000068E73846FAE7C6E9004CF8E7C7F1200C21
:10631000BB4022FA0CF41C432EFA0CF120FA0CF3C9
:10632000B84001434FEA14490EFA07F5B3FBF9F8F8
:106330001FFA84FE09FB18300B0C08FB0EFA43EA27
:1063400000439A4502FA07F240D9E31808F1FF30FA
:1063500004D29A4502D9A8F102002344A3EB0A0310
:1063600089B2B3FBF9F809FB183308FB0EFE41EACA
:1063700003418E452CD9611808F1FF3304D28E45B4
:1063800002D9A8F10203214443EA0040A0FB02988D
:10639000A1EB0E014145CE46434602D306D14D4501
:1063A00004D2B9EB020E68EB04030138002EA6D02C
:1063B000B5EB0E0261EB030101FA0CFC22FA07F3C4
:1063C0004CEA0303F940C6E9003198E74046C5E7C7
:1063D0004346D9E70000000073B5414DD5F854316C
:1063E000996811F0010124D101AA40F6034007F099
:1063F0008BFC044600286FD1019CA3681B78ABB9C5
:1064000008F014FFBFF35B8FD5F8CC30BFF35B8F80
:1064100005F1CC0203F00503BFF35B8F52E8001FC8
:1064200042E800300028F9D1BFF35B8F20461DF011
:106430008DFA01AA002141F2030007F065FC044631
:10644000002849D1019E2748B1680822013125F072
:1064500003FC30461DF07AFA214601AA41F2010000
:1064600007F052FC0446002836D1019883685A7818
:1064700085F86820D9789A7842EA0122A5F86A203E
:106480001A7985F86920197ADA7942EA0122A5F8A1
:106490006C205A799B7942EA0323A5F86E301DF0EF
:1064A00055FA214601AA41F2020007F02DFC0446EC
:1064B00090B9019E0C48B1684022013125F0CCFB17
:1064C000094825F07DFC30461DF040FA95F87430FF
:1064D0005A060BD46FF01204204602B070BD00BF04
:1064E00030000020A0000020A8000020214601AAC2
:1064F00042F2030007F008FC04460028ECD1019E9C
:10650000B748B1680822013125F0A6FB30461DF0DE
:106510001DFA214601AA42F2020007F0F5FB0446EB
:106520000028D9D1019CA368B3F80120A5F8FC206C
:1065300091B221B1DA78AB4811462AF0BAFA204676
:106540001DF004FA95F8746016F0200618D10221A7
:1065500040F66D4007F07CFB0446002800F0CE803A
:106560000221083029F059FB0123037046702146AF
:10657000324640F66D4007F0C7FB04460028ABD119
:1065800095F894301B0712D501AA002142F21C0095
:1065900007F0BAFB044600289ED101988368D3F81F
:1065A0000120D3F80530C5E936231DF0CFF995F861
:1065B000D0309E0624D50DF10201684625F08DFEEF
:1065C0000446002888D1042142F2240007F040FB51
:1065D0000646002800F092800421083029F01DFBB7
:1065E000BDF800300380BDF80230438022463146BA
:1065F00042F2240007F088FB044600287FF46CAFC9
:1066000095F8D0305C0610D501AA002142F22A008C
:1066100007F07AFB044600287FF45EAF0198836898
:106620005B7885F818311DF091F9082142F20100DC
:1066300007F00EFB0446002860D00821084429F02A
:10664000ECFA95F8D01011F0400F024640F2022308
:1066500008BF032388074CBF43F02C0043F00C0015
:106660008B0695F8D13048BF40F0400013F0090F79
:1066700095F89A3018BF40F4006003F00603CE0787
:1066800048BF40F01000062B08BF40F4C070002146
:1066900025F0DCFC2146002242F2010007F034FB29
:1066A000044600287FF418AF95F87430B5F8FC1054
:1066B000980626D4D9B901AA41F2050007F024FBB7
:1066C000044600287FF408AFB5F8FC30019C5BB9A4
:1066D000A3685A78997842EA0122A5F8FC209A88A2
:1066E000404811462AF0E5F920461DF02FF908210F
:1066F00040F6014007F0ACFA044638B96FF0680480
:10670000EAE60029F3D16FF00404E5E60821084425
:1067100029F083FA95F8D030D907024657D4324889
:106720004FF0005125F092FC2146002240F6014036
:1067300007F0EAFA044600287FF4CEAE014601AA2B
:106740004FF6014007F0E0FA044648BB01981DF0FF
:10675000FDF8214601AA4FF6024007F0D5FA04469B
:10676000F0B9019E2148B1680222013125F074FA86
:1067700030461DF0EBF895F8B9305B0710D501AA4B
:1067800021464FF6034007F0BFFA48B9019C18486C
:10679000A1680122114425F05FFA20461DF0D6F8C9
:1067A00026F05BF8044600287FF496AE09F06AFEF6
:1067B000044600287FF490AEEB79002B3FF48CAEBA
:1067C00004210C4825F0D2FB07F038FE84E602A134
:1067D000D1E90001A6E700BF9088000200800020F8
:1067E000000100203001002010880002E900002094
:1067F000E8000020FC0000202DE9F843D0E90B352B
:10680000D0F828805C193034A0450F46164619D8B8
:106810001D4DA3FB05011AA3D3E90023FFF770FC6C
:106820000346A4EB0800A0FB050123F07F4414A35A
:10683000D3E90023FFF764FC20F07F403C60306028
:10684000BDE8F883DFF840900DA3D3E90023A8FB4F
:106850000901FFF755FC044605F1300008A3D3E910
:106860000023A0FB0901FFF74BFC24F07F4420F03C
:106870007F403C603060BDE8F88300BFAFF300802C
:106880008D49FD1A0700000000CA9A3B0000000075
:1068900000284ED02DE9F04F5F4C94F86A2012F09A
:1068A000010591B040F0FE8194F82500FF2300F02F
:1068B000030084F8263018F095FE94F86A00460725
:1068C00028D494F8292094F8353004EB820204EBA4
:1068D0008303D66AD3F8388086B14F48314612F028
:1068E0006BFA33785D0605D506210DF0E7FA00282E
:1068F00000F0DA814848414612F05EFA337813F02E
:106900000E0F18D1236A002B00F090800C2011B0DC
:10691000BDE8F08F2A4604F16B01C0F3C00018F007
:10692000F7FFFF2884F82600CBD0284618F0A0FEF9
:10693000C7E711F05DBF94F824300121C3F342038F
:106940000CA88DF830300DF04FFC0246002859D0CD
:1069500098F80110304611F0FFFF3049B4F8687024
:1069600000253123A360C4E9055529A3D3E90023F9
:1069700025706560E560A0FB0101FFF7C1FB2061A8
:106980000EF09EFE80463FB9357805F00F05A5F163
:106990000105B5FA85F56D0994F82400236965F3BE
:1069A000000010F0010584F8240000F0468100206A
:1069B0001B4A1C4F049302250EAE0193059203213E
:1069C000CDE90200089606944346009007972A46B0
:1069D0000E950EF049FD314611F03EF990B912497D
:1069E00005914AF2D8330093CDE90300CDE90100C7
:1069F0000797089606944346012203210E950EF050
:106A000033FD40E1236A002B80D011F0AFFE7DE71B
:106A10008D49FD1A07000000B457002000CA9A3BB8
:106A2000C989030031710300FD84030011F05EF891
:106A30008146002800F0408111F064F88246002869
:106A400000F0378113F0A2FA0546002800F02E81ED
:106A50004FF6FF73406F2B8505F11C030B93002845
:106A600000F0308105F1680205F164010DF032FAA1
:106A7000B5F86030984923F4EF6323F0070343F43B
:106A8000887343F00103A5F8603095F8393003F0BE
:106A90003F0363F07F0385F8393095F87A3023F0AF
:106AA000070385F87A3095F83C3023F0070385F822
:106AB0003C3095F8D630002767F3000385F8D630D0
:106AC00006224FF01B13C5E91631A5F8C020C5E911
:106AD00012776F67A5F878706F86C5F82E7085F805
:106AE0003B702F65A5F8C470A5F8C870A5F8D070E4
:106AF000A5F8CC704FF6FF7B6FF0FF030DF131016D
:106B000005F1D7000C93ADF834B08DF836B025F010
:106B1000A3F895F8D61067F3410185F8D610062240
:106B20006FF0FF030DF1390105F1DD000E93ADF8B3
:106B30003CB08DF83EB025F08FF895F8E43085F83C
:106B4000F27023F0070385F8E430A5F8F070C5F87B
:106B50001471A5F81871A5F8307110F083FA95F842
:106B60004A31A5F8487123F0030385F84A3195F8B6
:106B70007A30A5F8507123F0180385F87A3095F82B
:106B8000763185F8537123F0070385F8763195F84F
:106B90009631C5F8549167F3451385F8963195F809
:106BA000BE31A5F8747167F3C303002285F8BE31C6
:106BB0000023C5E94E01C5E9502385F8E570A5F825
:106BC0009471C5F8EC70A5F8BC71A5F8C87113F004
:106BD0003BFDA5F8D20013F03DFDD5F8CC213F4B8D
:106BE000A5F8D4001340C5F8CC3113F039FD95F861
:106BF000D03160F3020385F8D03113F037FD05F191
:106C00001C03236295F8D031C5F8D47160F3C50335
:106C1000C4E9189AC5E97877C5E97677C5E90577B3
:106C20002F70ED6185F8D03119F0ACFE00283FF4EB
:106C300082AE11F09BFD032069E6294A294804939E
:106C400003F247130694029591211360A7FB0003FA
:106C500001FB0731244B0793244B05934FF6FF7339
:106C60000992022703930EAE19A3D3E900230E97CE
:106C70000896FFF745FA4346CDE900503A462846C4
:106C800003210EF09BFB314610F0E6FF00287FF455
:106C9000B9AE94F86A3043F0010384F86A3012F018
:106CA00079FA58B1002032E6122030E6504610F052
:106CB0002FFF484610F020FF072028E6012018F09B
:106CC00073FCEFE705F16C006867CBE6AFF300807B
:106CD0008D49FD1A07000000480148010000FFF639
:106CE000A8570020002AE78431710300C9890300F6
:106CF00070B590F824308AB0C3F342030D460446C1
:106D000001210DF1230016468DF823300DF06CFAA9
:106D100071780246284611F01FFE1D491AA3D3E9D7
:106D20000023A0FB0101FFF7EBF923699842054618
:106D300021D21B1A00220192164A0293164BA21A64
:106D4000A3FB02320221920900230A4409AE0991F1
:106D500012490591CDE903330321D2B2069600937F
:106D600018460EF0F5FB314610F076FF38B9256174
:106D700000200AB070BDFBD9C21A0023DBE70C204B
:106D80000AB070BDAFF300808D49FD1A0700000006
:106D900000CA9A3BB4570020898888883171030063
:106DA00038B5194C9DF810E094F844C01CF001056A
:106DB00022D163F3420C400194F83230A1874FEAAC
:106DC000CE0E0EF0180E00F0200040EA0E0023F068
:106DD000380303430D4884F832309121A2FB0003AD
:106DE00084F844C001FB023105A3D3E90023FFF777
:106DF00087F92064284638BD0C25284638BD00BFD9
:106E00008D49FD1A0700000044580020002AE7843D
:106E100010B504469DF8080022844FEA411CC000CA
:106E2000A17D00F018000CF0200C4CEA000C0C487E
:106E300021F038014CEA010CA3FB0002912101FB77
:106E4000032184F816C004A3D3E90023FFF758F9FF
:106E5000606210BDAFF300808D49FD1A070000008D
:106E6000002AE784000000002DE9F047044600F105
:106E7000350190F8440094F83230C0F3400060F3DC
:106E800086138CB084F832300EF050FC94F8322027
:106E9000A38F4B48E46102F07902002584F8322088
:106EA0009121A3FB000201FB0321C4E9055542A384
:106EB000D3E900232570FFF723F93123A360236C66
:106EC00065600933A0F13102934228BF1346236164
:106ED000E56028BF256406460EF0F2FB236A0746EC
:106EE0000DF12C08002B4AD0364D374BCDF82080C1
:106EF0000694651BA3FB05353148A38F4FF0000AAC
:106F0000A3FB0002CDF80CA0912101FB0321236912
:106F100004932E4B07932E4B05934FF0020926A3A3
:106F2000D3E90023CDF82C90FFF7EAF81046194674
:106F30004FF47A720023FFF7E3F82D090435EDB220
:106F4000CDE9016003213B462A46CDF800A050461A
:106F50000EF08AFA414610F07FFE60B994F8443092
:106F600043F0010384F8443011F0FCFEF8B1002036
:106F70000CB0BDE8F0870C200CB0BDE8F087CDE97F
:106F80000A33216943460AAA032001F0DDF90B996F
:106F90000029A9D00F4808A3D3E90023A1FB0001D1
:106FA000FFF7AEF80A9B20F07F471F449CE7484656
:106FB00018F0FAFADBE700BF8D49FD1A0700000060
:106FC000002AE78444580020398EE33831710300E9
:106FD000898F030000CA9A3B2DE9F04FC38D458E7F
:106FE000B0F8F4601D4490F81A31ADB22944174648
:106FF00013F007028BB0044689B20AD0531E042B4B
:1070000000F27C83DFE813F06A010102FC0139021F
:107010000402891B1FFA81F8090400F1CB8190F961
:107020003930002BC0F2638294F8F03084F8F130EC
:1070300094F8942194F8953194F8181184F8191162
:1070400093420AD094F8963103F00F03062B04D133
:10705000002384F89521A4F8C830934BD4F81491F8
:107060001A68944204BF00221A60B9F1000F00F0C0
:10707000B781D9F80000002800F0B281D4F81C31A3
:10708000628D4168C4F814111FFA83FC6245B4F89C
:10709000201100F03482228DC9F81E30002389F8B7
:1070A0001C30A9F80620A9F82210182389F804300A
:1070B000494610F033FD10F03BFDA368002B09DAC0
:1070C000E168626823F0004391422CBF7F18BF182B
:1070D000A360FF1A618DB4F81C9111FB08F189B20D
:1070E000B1FBF9F319FB03F080B281421FFA83FA76
:1070F00080F06581401A40F2E2426C4902FB00F0E8
:10710000A0FB010166A3D3E90023FEF7F9FF20F0FD
:107110007F400744E38D1E4494F93930761B564472
:1071200040F2E24B002BE6850BFB09F6C0F207822A
:10713000D4F824115D485AA3D3E90023A1FB000130
:10714000FEF7DEFF20F07F48354608F10108584A77
:10715000B4F82031B4F81E015649A4F82A903244FC
:10716000B2FBF6F2A4F8C62042F2107202FB0363EF
:107170003144013BB1FBF6F1B3FBF6F38AB2A4F85C
:10718000C230831D9A42A085A4F8CE2004DDC0F54C
:107190007F43FA331A4492B294F81A31A4F8CA2001
:1071A0001B0744BF0023A4F8C430022101201CF0B7
:1071B00053F900220221824601200CF0DBFE3E49F9
:1071C0004FF4F87220460CF065FE00F105095FFAF5
:1071D00089F93A4B00944A46012100200EF0D0F97B
:1071E00030F002030CD0364A3649374840F6CB43DC
:1071F00022F003FC404080F311884FF0030002DFCF
:107200002A4EA5FB066B26A3D3E900233046594638
:10721000FEF776FF2D4B20F07F45A5FB03310722BB
:10722000F01A02FB05116BEB01014FF47A72002397
:10723000FEF766FFCDE9015008940694CDF8008072
:10724000216994F93950224804912249224C07942B
:1072500031EA250128BF014605914FF6FE713B46F4
:1072600003914A46012100200EF0FEF830F002039F
:107270000CD0134A1349144840F6E54322F0BDFBF5
:10728000404080F311884FF0030002DFBAF1000F95
:1072900040F04F8100200BB0BDE8F08FAFF30080CD
:1072A0008D49FD1A07000000BC58002000CA9A3B17
:1072B000FF5962027FC3C901603300209596030025
:1072C000802F050060300500702A05008D49FD1AE9
:1072D000E5E10300D1E303003D960300DFF82083DE
:1072E000012010F02BFC0646002800F0B081C548B4
:1072F0000CF09AFD0546002800F0A981C24B1A68DF
:10730000002A00F0688110F039FC3368D4F81421A9
:107310005A602B79C4F8146143F003032B710C23DA
:107320006B710023EB7194F828312B72B74AD4F8B3
:107330002431A2FB03239B0AA5F80930B4F81C31C1
:10734000A5F80B30B4F81E31A5F80D30B4F8203193
:10735000A5F80F3094F81A31C4F8FC70032262F3D8
:10736000020384F81A31A368002B0ADAE168626824
:1073700023F0004391422CBF7F18BF18FF1AC4F8B6
:10738000FC70A34B01220935C4F8F85002211046C5
:10739000C3E902480CF022FE60B19E4A9E499F4814
:1073A00040F6733322F029FB404080F311884FF000
:1073B000030002DF6FF076000BB0BDE8F08F09FB31
:1073C0001311974840F2E24389B203FB01F1A1FB9C
:1073D000000189A3D3E90023FEF792FE3F1A99E644
:1073E0008C4A90498D484FF4426322F006FB40409E
:1073F00080F311884FF0030002DFD9F800003DE66A
:107400006FF00F000BB0BDE8F08FDFF81C8267E76C
:10741000D0F8F830D0F8D41190F8F00084F8F100EA
:1074200094F81801784A84F8190194F8940184F8C2
:10743000950100201060D4F8D801A3F109020029B9
:1074400000F0118194F87651AD0700F1F18094F8C5
:10745000CF51EF0700F1EC80D4F8E051A94200F0E1
:107460001B81002840F0E580087900F00300032824
:1074700000F03781C4F8D811DDE0828D90F81A0150
:10748000D4F8F830D4F8D4510632114489B26FF3ED
:107490000200A4F8F410A3F109021981D4F8D8115C
:1074A00084F81A01002D00F0D58094F87601860743
:1074B00000F1938094F8CF01C00700F18E80D4F8DA
:1074C000E001854200F0F680002900F00281D4F846
:1074D000DC51296843F8091C2A6053F8093CC4F8B8
:1074E000DC21002B7FF466AFC4F8E42162E790F85A
:1074F000E530002B3FF498AD80F8E52098E5B4F82E
:107500002CC0BCEB134F7FF4C6AD40F2E24C0CFB39
:1075100002F242F2107C0CFB012C0CF1FF3CBCFB94
:10752000F2F2B4F8C2C092B294457FF4B4AD012334
:10753000BCE50122022110460CF01CFDAAE6226CDB
:10754000A36C02FB1833A36419F06EFA054694F895
:10755000E400DFF8CC80C0F3C20019F067FA0544FC
:1075600006FB05F5314B94F8282105F5742505F245
:107570003F25A3FB0535AD0CA36C25640BFB02F284
:1075800005FB0AF0226572080344963A934228BF2D
:107590001346C4E911230023A0FB0801C4F8EC3012
:1075A00015A3D3E90023FEF7ABFD184B3F1AD4F81F
:1075B0002401A3FB0030800A0BFB00F0A0FB0801B4
:1075C0000DA3D3E90023FEF79BFD751BB4F81C91B6
:1075D00020F07F48BBE51C6095E600294ED0D4F82A
:1075E000DC11086843F8090C0A6053F8093CC4F838
:1075F000DC2176E7AFF300808D49FD1A070000001B
:1076000035EA0300A0590020BC5800205917B7D113
:10761000240C0020802F0500742D0500702A050021
:1076200000CA9A3B4C3005000185020083DE1B43F3
:1076300058B3D4F8DC11086843F8090C0A6053F811
:10764000093CC4F8DC21B3B16FF08B0023E66FF086
:10765000680020E60029C2D143F8091CC4E975225C
:10766000C4F8DC2140E70028E3D143F8090CC4E961
:107670007522C4F8DC21C4F8E421E5E743F8095C8D
:10768000C4E97522C4F8DC2194E643F8091CC4E976
:107690007522C4F8DC21D7E70D68C4F8E051002852
:1076A000C7D1086843F8090C0A6053F8093CC4E9DB
:1076B0007622C8E72868C4F8E00100297FF407AF04
:1076C000296843F8091C2A6053F8093CC4E976226A
:1076D00007E7297901F00301032909D0C4F8D8513B
:1076E000F7E6C8790328DCD00A287FF4C3AED8E7D0
:1076F000E9790329E4D00A29F0D1E1E7074A0849EA
:10770000084840F6C73322F078F9404080F31188EA
:107710004FF0030002DF4FF00008E1E5802F050085
:10772000D02A0500702A05002DE9F04F0B68D2F829
:1077300000B01B6897B08A460B93037F00F11E01CF
:10774000C3F380130446154614A806228DF847306B
:1077500024F082FA9AF811000D90FF280DF14808E4
:1077600000F0838042460DF1470117F01BFC9DF8A5
:1077700047600236F6B28DF847600B9B277FD4F83E
:1077800000C0CDF830C003F17109FF09434606F08F
:1077900001024946384612F06FFF00284BD19BF892
:1077A000D6200E9066F341028BF8D6204146062281
:1077B0000BF1DD0024F050FA9BF8D62067F30002AD
:1077C00049468BF8D6200BF1D700062224F044FA64
:1077D0002F1D032204F12E0105F1080024F03CFACC
:1077E00005F11806042204F12A01384624F034FA7F
:1077F000052204F13A01304624F02EFA30460521E4
:107800000CF0F2FC6A7F94F83F6000F03F0060F3F8
:1078100005026A77C6F30402AA77A18EE9810128DE
:1078200089B206F01F0206D91B3202F01F020B2A92
:1078300001D80E9B09BB0B9BE6680C9800225A618D
:1078400095F82030012762F3000385F820302146A7
:10785000277110F063F930683771314610F05EF926
:1078600010F066F917B0BDE8F08F062214A9404663
:1078700024F0F2F99DF847607FE7DAF800205360C2
:1078800094F8372094F8363043EA02232B829BF891
:10789000E430628E0F92760966F3C5038BF8E4300C
:1078A00040F2E24606FB01F919F0BEF80E909BF893
:1078B000E400C0F3C20019F0B9F80E9BC04A298A4F
:1078C000034409FB03F303F5742303F23F23A2FBF4
:1078D00003239B0C6B6294F83130BA4A06FB03F326
:1078E000AB634FEA5903963BAB62268FB64B42F22D
:1078F00010704A44B2FBF9F2ABF8C620B2B200FBFA
:1079000002924B44013A881DB2FBF9F2B3FBF9F342
:10791000ABF8C2209AB28242ABF8CE2004DDC1F5AA
:107920007F41FA310A4492B2ABF8CA2039460422A8
:107930000BF1E80024F090F9234613F81C2FC2F352
:1079400040120E92DA0700F101814FF48073A38395
:107950000B9B93F8260018F0F9F80146062204F173
:107960002B00002900F0EA8004F1240124F074F9CE
:107970000D9BFF2B04F1250000F0E38014A90622E3
:1079800024F06AF99DF84730A3774146062204F1B6
:107990001F0024F061F9D5F80E30C4F832309BF89E
:1079A000E430E686C3F3C20384F83830584612F058
:1079B000F9FA2146A881E080DAF804400C9810F02A
:1079C000ADF8AB89E3801B2323710E9BD4F80080B4
:1079D000002B40F0D0800E9E26772146404610F0C6
:1079E0009DF810F0A5F895F84500B5F84060B5F899
:1079F0004240012100F0070018F01EFE344404F557
:107A0000E17421188046714800273123CBF80830F3
:107A1000A1FB000168A3D3E90023CBF80470CBF8E5
:107A20000C70FEF76DFB0F9ADAF80C406E6A40F2AC
:107A3000E24320F07F4003FB024402213A46CBF8A8
:107A4000100001200CF096FA0B9D284611F070F9F9
:107A5000821C5F4B0095D2B2384601210DF090FD9B
:107A600004F2B2440128A9EB0606A4EB080400F0D6
:107A70008C800B9B93F82430DB0774D4584612F0AB
:107A800091FADFF84891A6FB09864BA3D3E90023BE
:107A9000054631464046FEF733FBDAF808304D4ADA
:107AA0000792A3F13A0A4C4BCDF818B020F07F476B
:107AB000A7FB0331B8EB0300484B05934FF4E47385
:107AC0000893DBF8103004934FF0000303934FF05A
:107AD000070303FB071166EB01014FF47A720023E1
:107AE000FEF70EFB34A3D3E90023CDE90170A4FB1C
:107AF0000901FEF705FB053520F07F40EDB200904F
:107B000053462A46012100200DF0AEFC30F002035E
:107B10000CD0334A3349344840F2C91321F06DFF89
:107B2000404080F311884FF0030002DF0122022160
:107B300010460CF01FFA17B0BDE8F08F24F097F84C
:107B400016E70622002124F092F81BE7244A274971
:107B50002548F12321F051FF404080F311884FF078
:107B6000030002DFF1E600230122009318461146CC
:107B70000DF006FD82E76B7F43F0400338466B77DC
:107B800017F00EF80126E88326E710F0A5F80B9B06
:107B900083423FF46EAF124A1549134840F29F23C7
:107BA00021F02BFF404080F311884FF0030002DFEB
:107BB0005FE700BFAFF300808D49FD1A07000000AA
:107BC00083DE1B43FF5962027FC3C90100CA9A3B8F
:107BD000A9E1030079E103008D49FD1AE5E1030005
:107BE0009831050060300500702A0500802B0500E3
:107BF000F4310500000000002DE9F04F8BB0CDE915
:107C0000050102930020BDF860309DF85480BDF856
:107C100058A0BDF85CB00493164611F0C9FA0028CC
:107C200000F0B78108F00107054638460DF06EFDFB
:107C30000390002F6BD1DDE90221149B384612F02E
:107C40001BFD002840F0B6812B6A05F11C0207924B
:107C5000002B63D0D5F82090029BD9F8004003F0A8
:107C6000010A99F84400C0F3C00100F0070018F0C1
:107C7000E1FCB9F84010B9F8423000F5E170014478
:107C8000D7481944A1FB0001D3A3D3E90023FEF791
:107C900037FA20F07F402061304617F0C5FC95F898
:107CA00033306FF3410385F83330FF2385F83430E8
:107CB000002E00F07281A8F10203012B40F27E81B8
:107CC00095F84430149968F3420385F8443095F8E8
:107CD00033306AF3000385F83330062205F12400BF
:107CE00023F0BAFF049B2B8605F11C00DDE9052378
:107CF00000210096FFF78CF818F044FE002840F0B1
:107D00007B812846FFF7B0F80BB0BDE8F08F062165
:107D10000CF0D4F800288ED11220F5E70FF0E6FE23
:107D20000790002800F0C18112F030F904460028C5
:107D300000F0B88120300CF06BFA04F11C09002827
:107D400040F08381032104F1240018F021FB606FCF
:107D5000A4F82CB04FF6FF73A4F82AA023850028BE
:107D600000F0808104F1640104F168020CF0B2F8C3
:107D7000B4F860309B4A23F4EF6323F0070343F425
:107D8000887343F00103A4F8603094F87A3023F04C
:107D900007034FF0000B84F87A304FF01B13C4E94F
:107DA0001632C4F874B0A4F878B0C4F82EB0A4F8B1
:107DB00032B004F1340016F09FFE94F8393060F3CD
:107DC0000503012184F839300DF1270018F0E0FA9D
:107DD0009DF82720844BDDF810C0A08D84F83BB0BF
:107DE000A3FB0213DB0803EB4303A2EB830294F82B
:107DF00039307E49A4F8C4B003F03F03053284F85B
:107E0000393094F83C3084F83A2040F2E24202FBE8
:107E10000AF223F00303114484F83C30B1FBF2F181
:107E2000734BA4F8C61042F2107101FB0C211344ED
:107E30000139B3FBF2F3B1FBF2F2A4F8C22006223F
:107E4000A4F8C020811D9AB28A42A4F8C8B0A4F850
:107E5000D0B0A4F8CCB0A4F8CE2002DD063A121AB5
:107E600092B294F8E430A4F8CA2023F007034FF04C
:107E7000000B84F8E430029B84F8F2B0A4F8F0B070
:107E8000C4F814B1A4F818B1A4F830B103F0010A91
:107E90000FF0E8F8079BC4F8543194F84A31A4F87D
:107EA00048B123F0030384F84A3194F87A30A4F8F7
:107EB00050B123F0180384F87A3094F8763184F8BE
:107EC00053B123F0070384F8763194F89631A4F87F
:107ED00074B16BF3451384F8963194F8BE31A4F86D
:107EE00094B16BF3C303002284F8BE310023C4E9CC
:107EF0004E01C4E95023A4F8BCB1A4F8C8B112F0F3
:107F0000A3FBA4F8D20012F0A5FBD4F8CC21394B86
:107F1000A4F8D4001340C4F8CC3112F0A1FB94F8BB
:107F2000D03160F3020384F8D03112F09FFB94F853
:107F3000D0311499C4F8D4B160F3C50384F8D031BA
:107F400094F8D630C4F804B06AF3410384F8D6300C
:107F50003123A3600622C4E978BBC4E976BBC4F828
:107F60000CB004F1DD0023F077FE94F8D6300399CD
:107F700068F3000384F8D630062204F1D70023F01A
:107F80006BFEC5F82090C4E905BB84F800B0E4613D
:107F900067E60C200BB0BDE8F08F17F085FF0028D6
:107FA0003FF489AE02981499324617F0B1FC85F877
:107FB000340080E60B200BB0BDE8F08F002017F0F6
:107FC00057FB95F8333043F00203B84685F8333059
:107FD00076E600BFAFF300808D49FD1A0700000070
:107FE00000CA9A3B48014801ABAAAAAAFF596202FB
:107FF0007FC3C9010000FFF62C6AA36D63B12C4A50
:108000002C492D484FF4976321F0F7FC404080F352
:1080100011884FF0030002DF04F14C0104F1480025
:108020000BF05CFF064608B32768A665D7F85441F5
:1080300054B320460FF060FD384611F0ADFF002329
:1080400003202B620BB0BDE8F08F194A1B491A4878
:10805000BF2321F0D2FC404080F311884FF0030091
:1080600002DF6FE604F16C0060677BE6104A14499A
:10807000114840F2BA4321F0C0FC404080F311881F
:108080004FF0030002DFCFE7094A0D490A4840F2EA
:10809000C14321F0B2FC404080F311884FF003004F
:1080A00002DFC6E707980FF027FD07202CE600BF88
:1080B00024320500AC2E0500702A05004C2C05006A
:1080C000D82F0500000000002DE9F04F07468DB0C5
:1080D000044617F81C9F0E46154600F1240106229F
:1080E0000AA823F0B9FD94F81C80FB07C9F3C01956
:1080F000C8F3401800F1FB800023A383B17C777C98
:1081000011F0010104F12B004FF0060200F0D980BC
:1081100004F11E0123F0A0FDFF2F04F1250B04F153
:108120001F0A00F0D7805246384604F11E0116F0AF
:1081300039FFA37F02330AA95846A377062223F00A
:108140008BFD3368D3F80090D5F80E30C4F8323088
:10815000B9F83030E38618F065FC84F838002F68F1
:10816000384611F01FFFD6F804A0A8812146E08010
:1081700020680FF0D3FCAB89AAF806301B23DAF88D
:1081800000408AF80430B8F1000F40F0BE8051463C
:1081900020468AF81C800FF0C1FC0FF0C9FCBA68B9
:1081A0007B6895F84400B5F80E80F4689A4238BFB1
:1081B0001A46C0F3C00140F2E24300F0070003FB9F
:1081C00008F8924618F036FA203400220221241AC8
:1081D00001200BF0CFFE484610F0C2FF021D524BAB
:1081E000CDF80090D2B2012100200DF0C9F930F095
:1081F00002030CD04D4A4E494E4840F2C93321F09B
:10820000FCFB404080F311884FF0030002DF4FF089
:1082100000094B4603220121CDF8009048460DF09D
:10822000AFF9384611F0BEFEB668093EA6EB0A0665
:10823000DFF804A105463AA3D3E90023A8FB0A010D
:10824000FDF75EFF19463D4B07933D4B059340F20A
:10825000F933069708933B698046CDE903931046AE
:1082600000234FF47A72FDF74BFF2DA3D3E90023CF
:10827000CDE90180A4FB0A01FDF742FF053520F09E
:108280007F40EDB2009033462A46012148460DF06A
:10829000EBF830F002030CD0244A2549254840F27F
:1082A000FA3321F0AAFB404080F311884FF003001D
:1082B00002DF0122022110460BF05CFE0DB0BDE88A
:1082C000F08F23F0D4FCFF2F04F1250B04F11F0ADB
:1082D0007FF429AF58460622002123F0C8FC84F819
:1082E0001E900AA95046062223F0B6FC29E70F4A41
:1082F000144910484FF4527321F07FFB404080F343
:1083000011884FF0030002DFF6E66B7F43F0400375
:108310006B77281D16F044FC4FF00108E88336E720
:108320008D49FD1A070000009DE30300243205007B
:1083300060300500702A050000CA9A3BA1E30300E3
:10834000D1E30300802B05002DE9F04F8DB01D46D1
:1083500007934FF0FF0B00231646DFF8F4908DF8DB
:1083600027B00A1D044606922B600A939A4604938E
:108370000DF12C080AAF0225CDE90198009733468C
:108380000DF12702214600200B950DF03BF9022844
:108390002CD00B9B83BB9DF82700FF283CD00538D1
:1083A000C3B2052BE8D880B211F004FE0028E2D059
:1083B00090F93930002BDEDBBBF1FF0F03690A9D1A
:1083C0000AD00499059328460DF07CF9069B0AEB28
:1083D00003029042059B22D804959DF827B09A4647
:1083E0000225C9E7214600200DF052F90B9B022B14
:1083F000F8D00B9B002BCED0164A17491748732391
:1084000021F0FBFA404080F311884FF0030002DFB7
:108410009DF82700FF28C2D1BBF1FF0F0FD0049BAE
:108420000F485344A3FB0002072101FB032106A3CD
:10843000D3E90023FDF764FE079B803018600DB080
:10844000BDE8F08FAFF3008000CA9A3B0000000047
:1084500075E7030070320500B4320500702A05008C
:108460008D49FD1A0000000070B582B01C460192D3
:108470001546064601AA0220FFF766FF23680BB3E4
:108480000198431B1B021FD429460DF01BF91A4A01
:1084900003460721A0FB020201FB032114A3D3E939
:1084A0000023FDF72DFE22680244002A226009DB2A
:1084B00040F2E24303FB06F0904203D2121A8242DA
:1084C000FCD8226002B070BD014628460DF0FAF8D3
:1084D000094A03460721A0FB020201FB032104A372
:1084E000D3E90023FDF70CFE2268121ADDE700BF76
:1084F00000CA9A3B000000008D49FD1A00000000F0
:108500002DE9F043B0F8A41189B0044640F2E243EB
:108510003D48002603FB01F105AD0623C5E90166D0
:108520008DF80F30A1FB000135A3D3E90023059698
:10853000FDF7E6FD0DF10F03019500930490B4F8EB
:108540009A31204604AA012116F016F99DF80F0071
:10855000B046374604F5D2794FF6FF76B9F800C039
:1085600078B12A460023B44503F1010104D0B2F8E2
:1085700000E0E6451BD00127CBB2834202F10202A4
:10858000F1D108F10108B8F1060F09F10209E5D1AE
:10859000D4F8F83027BBBDF8142040F2E24102FBCA
:1085A00001F1100AC4F824111A7058700EE08342C9
:1085B000E7D2D4F8F82040F2E24303FB0CF34FEA91
:1085C0001C21C4F8243182F800C05170042294F8B0
:1085D0001A3162F3020384F81A3109B0BDE8F0835E
:1085E00013F8052C0320024340F6117103F8052C03
:1085F00020221A7003F8040C23F8021C0522E6E777
:108600008D49FD1A0700000000CA9A3B00000000D7
:1086100038B5044619F0A2F8A37DA27DC3F3410347
:10862000013303F00303032B08BF002363F342026B
:1086300014BF03F125002520A27517F0B9FF636868
:108640000BB123694BB90DF03BF8C11C00201AF0A7
:108650005BFDBDE838401AF0D5BD1AF087FD054630
:108660000DF02EF8C11C00201AF04EFD1AF0CAFDC4
:108670001AF07CFD29460DF025F80B4A0346072128
:10868000A0FB020201FB032105A3D3E90023FDF7B0
:1086900037FD23691B1A236138BD00BFAFF300808B
:1086A00000CA9A3B000000008D49FD1A000000003E
:1086B0002DE9F04F89B004461AF03AFBC0B250B928
:1086C00017F0CEFF7E4821461AF00EFA09B0BDE839
:1086D000F04F1AF003BB1AF04BFB05461AF066FC8C
:1086E00007461AF06DFC81461AF082FE06461AF023
:1086F00063FE82461AF01EFCEDB280461AF000FCC2
:1087000017F0AEFF002DDDD001200FF089FB0546EC
:10871000002800F0CB8117F0FF07F6B240F0BD81D2
:10872000002E40F0C2804FF0FF093A464B463146DA
:10873000204619F039FA0028C4D02A7F6168002346
:108740008DF81B305FFA88F702F00F03002900F064
:10875000D680616891F82010880700F1D080072B3F
:10876000B0D0A17D090740F1AF81002B40F0AE8071
:108770006B7F252BA6D804200FF052FB0028A1D038
:108780001AF048FD636A074643B9238C40F2712210
:1087900002FB03F3B0FBF3F203FB120723681A6931
:1087A000484B0721A2FB030301FB023142A3D3E99B
:1087B0000023FDF7A5FCA0F24233BB4282D31AF09E
:1087C00091FB4846636817F0CFF9E37D9F07804629
:1087D00040F1DB81002800F0D881834601271AF0A0
:1087E000D5FA2B7F07AA039205F11E0201468246A5
:1087F000C3F38013009220460022CDE9017B19F0DB
:10880000EDF950461AF048FA1AF088FA002840F0BC
:10881000D1812D4821461AF067F96168A37D91F84E
:10882000202043F0800342F0010281F82020A3754C
:108830000FF016FB1623074603714FF6FF732D7FCB
:10884000C380514624221C3023F006FA3B7FBC60D3
:10885000C5F3401565F345133B771AF087FC0021FB
:1088600038610120079D1AF027FA002E08BF4FF04B
:10887000FF0987F81990E37D2D1A13F002037D613B
:1088800003D0B8F1000318BF0123BA7E63F30002DE
:10889000BA760FF0E5FA3946F86038680FF0F6FA64
:1088A00009B0BDE8F04F0FF001BB5FFA8AF017F096
:1088B000E9F9814639E700BF00CA9A3B0000000091
:1088C000151804008D49FD1A051A0400012B40F00B
:1088D0000B816A7F0C2A7FF4F5AE2A7FCDF80090D9
:1088E000194600230193D20905F12403204619F00B
:1088F000AFF800287FF43FAF2B7F03F00F03002B6E
:108900007DD16B7F252B1A463FF6DCAEA17D890613
:1089100040F193806268002A40F00F819620059212
:108920001AF064FB059A10461AF034FA03200FF08F
:1089300077FA804600283FF4C5AE0FF091FA4FF663
:10894000FF73A8F80630052388F80430002F40F0A4
:1089500018817F23002E88F8183014BF4B46FF2360
:1089600088F8193098F81A30D8F800006FF34103EE
:1089700088F81A3041460FF089FA0FF097FA1AF08A
:1089800005FA2B7F0646C3F380133278DB0102F031
:10899000700243F00303134333700C237370484693
:1089A00017F0E2F8E37D9A0740F1F580002800F027
:1089B000F28033780146304643F0400300F8023B32
:1089C000062223F049F9062205F11E0106F10800EE
:1089D00023F042F930461AF05FF91AF09FF90028A7
:1089E00040F0F6801AF00EFCA37D804843F00103AE
:1089F0002146A37509B0BDE8F04F1AF075B8062BF3
:108A00003FF47FAF4521D94011F0010140F097803C
:108A1000012B70D16B7F0C2B7FF454AE2A7FCDF8E5
:108A200000900DF11B030193D20905F124032046A8
:108A300019F00EF800285ED06A7F002A3FF442AE9B
:108A400063682BB12B7F03F00F03072B7FF43AAE43
:108A500003209DF81B800FF0E3F9054600283FF442
:108A600031AE0FF0FDF94FF6FF73EB8005232B714C
:108A7000002F35D17F20AB7E2876002E08BF4FF027
:108A8000FF0968F341032868AB76294685F81990F9
:108A90000FF0FCF90FF00AFA14E6A07D5FFA89F1F5
:108AA000C0F3C00017F084F881463EE6504A5149B1
:108AB000514840F2C32320F0A0FF404080F31188CA
:108AC0004FF0030002DF26E6B9F1FF0F8DF81C908E
:108AD000C2F3801838D0227E91453FF446AE0EE7AF
:108AE0001AF01AFAC0B2C6E7062B3FF40AAF4522C5
:108AF000DA40D00723D42B7F03F00F03042B7FF43D
:108B0000E1AD6B7F252B3FF6DDADA37DDB077FF568
:108B1000D9AD1AF03BF92B7F0278C3F38013B3EB86
:108B2000D21F7FF4CFAD0830062205F11E0123F0DD
:108B300083F800287FF4C6AD7EE71A467DE76A7F9A
:108B4000252A7FF67AAFBDE505F11E0A07AA514630
:108B5000404617F04DF900283FF4CEAEE37D03F018
:108B6000010343457FF4C8AE5146062204F10800D4
:108B700023F062F82B7F03F00F0300283FF4F5ADDC
:108B8000BDE61AF0C9F9C3B2E4E6A77D04F1190BFA
:108B9000C7F3801723E6A37D3278C3F380133046F2
:108BA00063F3861200F8022B04F11901062223F068
:108BB00053F808E70E4A11490F4840F2914320F05C
:108BC0001CFF404080F311884FF0030002DF20E6D5
:108BD000074A0A49084840F2165320F00EFF404069
:108BE00080F311884FF0030002DFFBE62918040030
:108BF000D436050088360500702A05009036050039
:108C00002DE9F04F8FB0DFF8D8800B900DF13701D0
:108C10000DF136000EF0FAFF324F9DF836A09DF8A8
:108C200037B00CF04DFDD8F800400A90A4FB075473
:108C300029A3D3E90023002621462846FDF760FA40
:108C40000B9B0693CDE90766274B05938146D8F821
:108C5000040021A3D3E90023A0FB0701FDF750FA8C
:108C6000224B29F07F47A7FB033120F07F400722EA
:108C7000CDE9036002FB0711E81A64EB01014FF430
:108C80007A720023FDF73CFA0A9B0096CDE9017049
:108C90005A46032150460CF0E7FB30F0020416D18F
:108CA000134A144800231FF009FA68B19DF83720D1
:108CB0009DF836000094234603210CF061FC6FF010
:108CC00073000FB0BDE8F08FD8F80C00F9E76FF033
:108CD0008B00F6E7AFF300808D49FD1A0700000016
:108CE000C06D002000CA9A3B315404008D49FD1A22
:108CF000447B0B00A86D002038B50F4D04460CF0E6
:108D0000DFFCA9680CF0DEFC6968B0FBF4F40444F5
:108D10000A4807A3D3E90023A1FB0001FDF7F0F9FE
:108D200020F07F40844294BF0020012038BD00BF66
:108D30008D49FD1A07000000C06D002000CA9A3B53
:108D400001481FF019BB00BF9002002007B528F0B2
:108D500014F94FF47A72A0FB020302FB0131C00B3D
:108D6000074A40EA4140106000234FF400420548A2
:108D7000CDE9002320F09EF8002003B05DF804FB4D
:108D8000A04100205010002008B5044B187800F0D6
:108D9000E5F8BDE8084020F09AB900BFDA7200207B
:108DA000044B1A78824202D01870FFF7EDBF002002
:108DB000704700BFDA72002008B528F0DEF84FF4E3
:108DC0007A72A0FB020302FB0131C00B044A40EAA5
:108DD00041401060BDE808400020FFF7E1BF00BF40
:108DE000A041002008B528F0C8F84FF47A72A0FB23
:108DF000020302FB0131084AC30B126843EA4143F4
:108E00009B1A47F23052934204DDBDE8084001202E
:108E1000FFF7C6BF08BD00BFA041002030B5184C09
:108E20008DB00022002303A920461EF0D9FF08B10F
:108E30000DB030BD059DDDE9030100F057F8B5FA2E
:108E400085F56D09FF238DF8183007908DF82050B7
:108E500028F093F84FF47A72A0FB020302FB013171
:108E6000C00B40EA4140C90B8DE8030006ABCDE9D9
:108E70000A010FCB00F07EF820F029F9D1E700BFFE
:108E80002C1200201FB583F00103CDE901120393DA
:108E90000022002301A904481EF04CFF03481FF0E4
:108EA0006BFA05B05DF804FB2C120020A4410020F1
:108EB00010B51EF015FD044678B10949094827F0A0
:108EC00078FEA36808491B6820469847A3689B68FA
:108ED0000BB120469847002010BD6FF01500FBE74E
:108EE0001D8E0200A4410020858E02000A2303FB90
:108EF0000011024B53F82100704700BFEC19050028
:108F00002DE9F041134B144EA3EB060807460D461E
:108F100006EBC106C8F3C708A84506DC002438469E
:108F200028F0D1F92046BDE8F08132683B689A42CA
:108F30000BD13D71736838461B6898470128044679
:108F4000ECD0022804D00028E9D101350836E3E747
:108F50000024E7E70C440500CC43050010B50446A7
:108F60000C2028F0B7F9024A0260047210BD00BF5D
:108F7000841A050084B070B504AC84E80F0020208A
:108F800028F0A8F90446084B44F8083B04AD06460F
:108F90000FCD0FC495E8030084E803003046BDE818
:108FA000704004B0704700BF881A05000268034B88
:108FB0009A420CBF08300020704700BF881A050095
:108FC00010B504460C2028F085F9024A02600472AC
:108FD00010BD00BF901A050082B038B504A981E821
:108FE0000C00054611481EF07BFC0446A0B16B68DE
:108FF000012B0CD0022B05D0A3B9BDE8384002B03C
:1090000020F07DB820F082F800282046F5DCBDE88D
:10901000384002B020F06CB86FF00400BDE8384072
:1090200002B070476FF08500F8E700BFE93B05002C
:1090300082B010B502A981E80C0004460B481EF06E
:109040004FFC78B16368022B04D00020BDE81040CB
:1090500002B0704720F05AF80028CCBF0020012051
:109060006060F2E76FF00400F0E700BFE93B050045
:109070000D4A52F82030013342F820300B4A0123C8
:10908000117883400B430A490978DBB2137023EA55
:1090900001030849084A097850780B43181A53709D
:1090A00018BF0120704700BFB4410020DD720020CE
:1090B000DB720020DC720020D90F0020114A52F828
:1090C0002030002B10B519DD013B42F820300E4A4C
:1090D0002BB913780121814023EA010313700B4857
:1090E0000B4B047810780B4A5978127820EA040068
:1090F00010435870401A18BF012010BD6FF01500C2
:10910000FBE700BFB4410020DD720020DB720020CD
:10911000D90F0020DC72002010B5084B084A1870E7
:10912000084B51781C78084B1B7823EA040318433A
:109130005070401A18BF012010BD00BFDC72002023
:10914000D90F0020DB720020DD720020074B0022C7
:109150001A70074B074A1978074B50781B7823EA97
:109160000103181A537018BF01207047DC720020E9
:10917000DB720020D90F0020DD720020A0F1E00397
:10918000072B03D82030C0B2FFF772BF064B062270
:1091900013F8011F19B1013AFAD100207047187075
:1091A0000028F8D0F9E700BFDB0F0020A0F1E003B2
:1091B000072B10B404D8203010BCC0B2FFF77EBF1C
:1091C0000023064A194612F8014F0133A04208BF96
:1091D0001170062BF7D1002010BC7047DB0F002068
:1091E00002480822002122F042BD00BFDA0F002011
:1091F00010B50849002301EB4302B2F8014024B145
:109200000133062BF7D1002010BDA2F80100002881
:10921000F6D0F8E7CC0F002030B50023074C1946F4
:1092200004EB43020133B2F80150854204BF517090
:109230009170062BF4D1002030BD00BFCC0F002070
:1092400002480C22002122F012BD00BFCD0F0020E9
:1092500000487047D90F002000487047CC0F00200D
:1092600038B50C4605461449206822F0C5FC10B9F3
:109270002872012038BD1149206822F0BDFC10B9C8
:1092800001232B72F5E70E49206822F0B5FC08B9DE
:109290000223F6E70B49206822F0AEFC10B96368A0
:1092A0006B60E6E70849206822F0A6FC10B9636805
:1092B0002B60DEE70020DDE7063C05000E3C0500E4
:1092C000183C0500203C05002D3C05002DE9F84325
:1092D000D0F804800769D8F80830DFF848903B617F
:1092E00000247B81BC8108F10C06D8F80830A34229
:1092F00011D931463846FFF7B3FF651C70B93068A5
:10930000494622F079FC48B9D8F808303C61ADB242
:109310005B1B7D81BB810020BDE8F8832C460C36A9
:10932000E3E700BF3B3C050010B5094B00211A469E
:109330005C68844205D15C7E1CB9582303FB012084
:1093400010BD01310A2903F15803F1D10020F7E7DC
:10935000101500202DE9F0410B4E337883B10B4CF2
:10936000DFF82C8000254FF0FF37204641460135BD
:1093700027F055FC0A2D44F8247C04F15804F4D15C
:1093800000203070BDE8F081E20F00203815002089
:109390008194040082B02DE9F84308A981E80C000B
:1093A0000068DDE90A571E461EF09AFAD0F80480DC
:1093B0003046FFF7B9FF0446A8B9324B01461A46BA
:1093C000586801302CD15823594300235418535066
:1093D00000200021C4E9080101226660C4F814805D
:1093E00022742283A3764FF0010904F1280684F841
:1093F0001090304627F021FC2368D8F804207730FD
:1094000008BF84F8199093423CBF0133236023685E
:1094100093420FD12A463B4620461FF0A8FF04E0A6
:1094200001310A2903F15803CAD1BDE8F8430020ED
:1094300002B0704763691B685D1947F10007C4E912
:10944000085727F09AFD4FF47A72A0FB020302FB43
:109450000131C30B43EA4143EC1A002CE5DD4FF424
:10946000004540F2E73000214FF47A720023E4FB1C
:109470000501FCF745FE02460B4630461EF0E4FFB0
:10948000D3E700BF10150020F8B5FFF78FFD0446A5
:1094900028B3037A1BB3164D0026012755F8243C48
:1094A0005A1C1ED0626893421BD0284627F0C5FB89
:1094B00015F80E3C773008BF05F80F7C8BB90D4DC1
:1094C000582303FB06552846D4E904231FF04FFF19
:1094D0002B7C23B9D4E9042328461FF081FF002008
:1094E000F8BD01360A2E05F15805D7D1F7E700BFC0
:1094F00038150020101500202DE9F04395B01422F6
:1095000000210FA822F0B3FBDFF8D0804FF47A7768
:10951000002200230FA940461EF062FC002849D11A
:109520000F9E029027F029FDA0FB070C07FB01CC42
:10953000C50B45EA4C459DF84C30CDE903654FEA33
:10954000DC3C13F0010FCDF814C002AB0FCB06AC1E
:1095500084E80F000DF128092FD0CDE90765CDF87B
:1095600024C094E80F0089E80F0010981EF0B8F9A5
:1095700050B183689C683CB1DDE90C018DE80300C3
:1095800010A899E80C00A047139C012CC0D9C4F383
:109590005E044FF4004540F2E73000214FF47A7248
:1095A0000023E5FB0401FCF7ABFD02460B460C482B
:1095B0001EF04AFF15B0BDE8F083CDE90765CDF890
:1095C00024C094E80F0089E80F0010981EF088F975
:1095D0000028D9D08368DC68CDE700BF9C1100204B
:1095E0000000002010B58AB001AC84E80E0005A888
:1095F0001122002122F03BFB94E8070006AB83E830
:1096000007009DF830300D9A43EA42030993094858
:109610000022002305A91EF08DFB002804DB06486C
:1096200027F009FB10B100200AB010BD0248FFF777
:1096300063FFF8E79C1100200000002038B5154CAE
:10964000012323701448002200231EF037FD002858
:1096500005DB0025237823B90F481EF009FD002003
:1096600038BD257000F0FCF800F0060006284FF029
:10967000030007D100F0FAF80028EBD103201FF017
:1096800080FFE7E700F0F2F80028E3D003201FF0A6
:109690007BFFDFE7DE720020A412002008B5FFF791
:1096A000D7FD094A127822B1012A07D06FF0850050
:1096B00008BDBDE80840092101F0ECB8BDE808404C
:1096C000013000F0ABBC00BFE30F002008B5FFF78E
:1096D000C3FD094A127822B1012A07D06FF0850034
:1096E00008BDBDE808400D2101F0D4B8BDE8084030
:1096F000013000F0B9BC00BFE30F0020024903486D
:10970000012202F0A5BD00BFDF7200207C3C0500F5
:1097100010B502F0F1FE074802F02AFE044630B907
:109720000548064927F07BFA054802F0CBFD2046A4
:1097300010BD00BF0405002080180020FD96020027
:10974000903C050038B500F0C7FAC8B101F06CF8DC
:1097500002281BD10F4B1C780F4D2B78A34217D03A
:10976000FFF73EFDFFF76CFDFFF798FFFFF7AEFF39
:1097700020462C7000F030F8BDE838401FF0A7BC40
:1097800001F052F8841E18BF0124E5E70124E3E745
:1097900038BD00BFDF720020E30F002070B50C461B
:1097A00015460B4900221E4620F061FF08B9002033
:1097B00070BD012C08D1074922463046A847002831
:1097C000F6DDFFF7BFFFF2E76FF01500F0E700BF2F
:1097D000863C0500DF72002010B504460C2027F0FF
:1097E00079FD024A0260047210BD00BF481B0500EB
:1097F00003281FB52FD828BB09B3184B1A680123BB
:1098000083401343154C9A42236018D08DF8000012
:109810008DF8011027F0B1FB4FF47A72A0FB020320
:1098200002FB0131C00B40EA4140C90BCDE9020106
:1098300004AB13E90F0000F0C9F81FF048FC00204A
:1098400004B010BD054B1A680029D8D1012383400C
:1098500022EA0303D6E76FF01500F1E7A0420020EB
:10986000014B1868704700BFA0420020014B1968E7
:109870001FF07DBEA04200202DE9F04F15464FF4A9
:10988000D8721F464A430C2303FB0522394B13446D
:1098900082460E4693E807008DB005AC84E80700C9
:1098A000DDE916891EF01CF8834600285DD0CDE95D
:1098B0000865CDE90A8905981EF012F883685B688F
:1098C0009C4653B10CAB13E90300DDE908238DE896
:1098D000030020466146884758BBDBF808301B78F8
:1098E000012B13D0022B27D0002B40D1CDE90A89C0
:1098F0000CAB029713E90300CDE908658DE803007E
:109900002B46324620461FF042FE12E0CDE90A897E
:1099100002970AAA92E80300CDE908658DE80300E2
:1099200008ABBAF1FF0F0CCBECD0214650461FF02C
:1099300061FF0DB0BDE8F08FCDE90A89CDE908657A
:1099400002970AAE96E803008DE8030008AD95E89B
:109950000C00214600201FF04DFF029796E80300FF
:109960008DE8030095E80C00CCE70120E1E76FF0FB
:109970008500DEE7541B05002DE9F34EDDE90AAB57
:10998000104D81460F4614461AB10F4B1B6845F81F
:109990002130032655F82710F0B21FF0E8FD30B94A
:1099A000013EF7D26FF0850002B0BDE8F08ECDE940
:1099B00000AB23463A4631464846FFF75DFF002894
:1099C000F2DDEDE710420020A04200207FB56C469A
:1099D00084E80F00182027F07DFC0546054B45F86C
:1099E000083B064694E80F0085E80F00304604B0B7
:1099F00070BD00BF1422050084B070B504AC84E8CB
:109A00000F00202027F066FC0446084B44F8083B72
:109A100004AD06460FCD0FC495E8030084E80300AB
:109A20003046BDE8704004B0704700BF1C220500FE
:109A30000268034B9A420CBF08300020704700BFF9
:109A40001C22050013B56C4684E80300102027F0A3
:109A500041FC0246054942F8081B034694E803000E
:109A600082E80300184602B010BD00BF20220500A6
:109A700007B5094B1A78094B8DF80020162102FB17
:109A80000133019302AB13E90300FFF7DBFF03B0DF
:109A90005DF804EB1FF01BBBE7720020E8720020AA
:109AA00002490348012202F0D3BB00BFE772002045
:109AB000263D050070B503788AB004460E4607AD12
:109AC000032B20D8DFE803F002191B1D114928469B
:109AD00022F081F8059563780493A3780393E378E3
:109AE00002932379019363790093A3790A4A1E2193
:109AF00030461FF08FFF0AB070BD0849E7E70849FC
:109B0000E5E70849E3E7084A0A2128461FF082FFF3
:109B1000E0E700BF393D0500623D0500403D05001E
:109B2000473D0500513D05005B3D05002DE9F04135
:109B30008AB00D46164626496A4604461F4620F05E
:109B400096FDF8B10098E8B10A2201A921F0CCFFF6
:109B5000019B1B7803BB162D1ED1C4B2042C1BD84D
:109B6000DFF870806C432A4608EB04013846B047A2
:109B7000002813DD04F10F0002A94044FFF79AFF0B
:109B800000200BE014496A46204620F070FD78B1B1
:109B9000009B6BB9012D04D06FF015000AB0BDE831
:109BA000F0810E492A463846B04700EAE070F5E7F2
:109BB0000B496A46204620F05AFD0028E0D0009B61
:109BC000002BDDD1072DE7D106492A46EBE700BF80
:109BD000853D0500E87200202A3D0500E77200205F
:109BE000A93D0500E072002010B590B0044623F0B6
:109BF0003EF96946FFF75EFF08A9204606F0C0F966
:109C00009DF82130012B14D10B481EF0B5FB2046E6
:109C100023F02DF9094B19780F22162313FB01238A
:109C200007490722194422F007F810B905481EF029
:109C3000A3FB10B010BD00BF7C050020E772002020
:109C4000E87200208C05002007B50B4B0B481978F3
:109C50000F22162313FB0123002200926946CDF840
:109C600003201844072221F0E7FFB0FA80F04009F2
:109C700003B05DF804FB00BFE7720020E87200202B
:109C80002DE9F04104468CB00D464FF016080F4FF9
:109C900004A9284614FB08F6FFF70CFF06F10F0095
:109CA00029460722384421F0D7FF22460849684652
:109CB00003F04EFA4246B919684602F0C9FA05485F
:109CC0001EF05AFB0CB0BDE8F08100BFE872002026
:109CD0008E3D05008C05002037B50F4B1A781624F1
:109CE0000F2314FB02340D4B1C4400250722694648
:109CF00020460095CDF8035021F09EFF48B1214643
:109D0000284606F0EBF820B122F0E0FF012003B076
:109D100030BD0020FBE700BFE7720020E8720020A2
:109D2000F0B58DB0FFF790FF98B9FFF7D5FF80F041
:109D300001035B00DBB2214D2A7803EB0213112BE8
:109D400009DC022B2DD0102B23D0002420460DB08F
:109D5000F0BD0223EFE7202B1BD0122BF5D105F02D
:109D600037F900232B7004460028EFD1144F0FCF92
:109D700002AE0FC63B6813493360042200942346A9
:109D800002A805F0F3F804460028DFD102232B7067
:109D9000DBE705F01DF900232B7004460028D4D022
:109DA000D4E7074E0FCE07AC0FC4336823600023FF
:109DB00004490093042207A8E3E700BF567300207C
:109DC000D01805002422050030B591B0054623F0D7
:109DD0004EF869460446FFF76DFE08A9284606F0CE
:109DE000CFF89DF82130012B05D1FFF72DFF21463B
:109DF00018B904F0EDF911B030BD034B1878FFF736
:109E00003FFFFFF78DFFF6E7E772002030B591B016
:109E10000D4608A9044606F0B3F89DF82130012B41
:109E20000BD1204623F023F86946FFF743FE114B80
:109E300000221A701DB1FFF773FF11B030BD02216F
:109E4000204622F0C2FFFFF76BFF204623F00FF8F9
:109E5000094B19780F22162313FB01230749072208
:109E6000194421F0E9FE0028E7D105481EF084FAE4
:109E7000E3E700BF56730020E7720020E87200207D
:109E80008C05002010B5002004F0F0FA0446C0B99B
:109E900002F032FB0C4802F06BFA044688B90B4919
:109EA0000B4826F0BCFE0B4802F00CFA0A4802F000
:109EB00009FA0A4805F0EEFF094806F0C9FAFFF76B
:109EC0002FFF204610BD00BF64050020A19A0200AC
:109ED000B01800209E3D0500A23D0500440500206D
:109EE0001C050020044B054819780F22162313FB8C
:109EF00001231844704700BFE7720020E872002079
:109F000010B5014604460722044821F0A5FE21466B
:109F10000348BDE81040072202F09AB9E072002021
:109F2000A53D05001FB54C240294044C0194BDF8D6
:109F30001840009424F0AEFA04B010BDE33D0500D3
:109F400007B5064B00930649064805234FF40072F7
:109F50001EF018FA002003B05DF804FB442205004F
:109F600028740020E0180020F0B5134E134F89B07C
:109F700000220023694630461DF032FF054608B135
:109F800009B0F0BD1FF0E6FB04460028F8D0182207
:109F9000294602A821F06BFE08230DEB03012046A1
:109FA0000397CDF810D0ADF8143007F04DFF2046E0
:109FB00022F08CFEDCE700BFFC110020B02205007F
:109FC0002DE9F041134FDFF850808AB001AE002236
:109FD0000023314638461DF003FF054610B10AB094
:109FE000BDE8F0811FF0B6FB04460028F7D0182228
:109FF000294604A821F03BFE0C2304A92046CDE904
:10A000000586ADF81C3007F01FFF204622F05EFEEB
:10A01000DDE700BFCC1100201423050037B505464D
:10A0200040F6CD42014600230C481DF083FE044655
:10A0300078B110F10B0F09D10022002369460748BF
:10A040001DF0CEFE2846FFF7E9FF0446204603B088
:10A0500030BD0349034826F0C5FDF7E7FC11002099
:10A06000AC050020E018002030B5054685B040F66C
:10A07000CD42014600230D481DF05CFE044678B138
:10A0800010F10B0F09D10022002301A907481DF090
:10A09000A7FE2846FFF7E8FF0446204605B030BD7E
:10A0A0000349044826F09EFDF7E700BFCC110020CD
:10A0B0009C050020E018002010B504460C2027F075
:10A0C00009F9024A0260047210BD00BF782305003E
:10A0D00001481EF051B900BF7C06002037B50F4C77
:10A0E000A5682C21EB6820469847A0B92C212B6944
:10A0F0006A462046984770B9094C009B22789A42DC
:10A1000009D0D8B2207000F0A1FF20B92078FFF765
:10A11000D3FF1EF0DCFF03B030BD00BFC414050048
:10A120005873002013B50B4826F010FB70B1FFF7F1
:10A13000D5FF044638B94FF4F01200230648CDE9A4
:10A1400000231EF0B7FE204602B010BD6FF01204CF
:10A15000F9E700BFC41405008810002030B5064D93
:10A160000FCD87B001AC0FC42B680449236001A850
:10A1700005F096F907B030BDE418050089A2020089
:10A1800007B50023074900934FF4007205230648E2
:10A190001EF0F8F8054805F07DFE03B05DF804EB0D
:10A1A000FFF7DCBF28760020801900209C060020E5
:10A1B00084B010B588B00AAC84E80F00114821467D
:10A1C00040F6CD4200231DF0B5FD0446A8B110F1C4
:10A1D0000B0F0CD10022002303A90A481DF000FE3A
:10A1E0000E9B00930AAB0FCBFFF7E2FF044620461D
:10A1F00008B0BDE8104004B070470349034826F09A
:10A20000F1FCF4E75C1200208C060020801900208D
:10A2100070B503788AB004460E4607AD032B20D8EC
:10A22000DFE803F002191B1D1149284621F0D3FC79
:10A23000059563780493A3780393E37802932379D5
:10A24000019363790093A3790A4A1E2130461FF0D7
:10A25000E1FB0AB070BD0849E7E70849E5E70849AE
:10A26000E3E7084A0A2128461FF0D4FBE0E700BFD5
:10A27000393D0500623D0500403D0500473D0500B4
:10A28000513D05005B3D050070B588B01646694636
:10A2900005461C46FFF7BCFF012E04D803492A4699
:10A2A000204622F0A9F908B070BD00BFBDA602008B
:10A2B00030B50C4D89B002AC00220023214628465F
:10A2C0001DF08EFD08B109B030BD08AB13E90300E5
:10A2D0008DE8030094E80F00FEF74CFE1EF0F7FE39
:10A2E000EAE700BF6C11002070B5104E104C8AB028
:10A2F0000022002305A930461DF072FD08B10AB006
:10A3000070BD9DF814307C225343E518E35C022BAA
:10A31000EED1CDE9010001230093B5F8581068682B
:10A3200013230DF1150224F051FBE1E75C1200202C
:10A33000A4420020034B5B68834214BF6FF01500FA
:10A3400000207047A442002008B5FFF7F3FF031E6A
:10A35000A3BF03487C2202FB0300002008BD00BF0E
:10A36000A442002010B5022188B0044622F02DFD41
:10A3700048B92046FFF7E8FF28B1038D2BB16946A5
:10A38000204605F0FDFD08B010BD094A8260094A6B
:10A39000C260012202824FF6FF72C282037600F190
:10A3A0000801406807F0B8FE0028E8D0EBE700BFDE
:10A3B0006D3E0500B9A302002DE9F041134686B0B9
:10A3C00007460D4639B91822184621F050FC0020E6
:10A3D00006B0BDE8F081FFF7B7FF04460028F6D0CD
:10A3E000124BD0F808C001AA03F11008964618686D
:10A3F0005968164603C6083343453246F7D11B78E1
:10A4000033707146604621F015FD08B10120DFE789
:10A41000074BE3602B8AA06001332382032323765A
:10A4200004F10801384607F077FED0E7F818050078
:10A43000F9A402002DE9F04786B007461446FFF75D
:10A4400083FF002851D024B90C81204606B0BDE816
:10A45000F087631E00F159020F3413F8011F12F840
:10A46000015F6940117419781170A342F5D1DFF8CA
:10A470008090DFF880A000F16A0400264FF0010808
:10A4800000252378EB40DB0727D514F8101C08FAC9
:10A4900005F31942384614BF01210021FFF74AFF96
:10A4A000AA198DF8000001928DF8081026F065FDBC
:10A4B0004FF47A72A0FB020302FB0131C00B40EAA9
:10A4C0004140C90BCDE904010022002369464846FA
:10A4D0001DF030FC50461DF04FFF0135082DD0D146
:10A4E0000836802E04F10104CAD10120AEE700BF76
:10A4F0006C110020BC0600202DE9F04106468AB010
:10A500000D46002962D0C968002961D0FFF71CFF01
:10A51000044600283AD02F4BD1F800C06A4603F118
:10A520001008964618685968174603C7083343450C
:10A530003A46F7D11B783B707146604621F07AFCB1
:10A5400038BB2B8AA060023323820323237604F1D5
:10A5500040032363E38AA385284623F0B2FF1E4B02
:10A56000236201232085A3863046FFF7EDFE20B14C
:10A5700000F12001304607F0D5FFB4F858301BB188
:10A58000238D003B18BF012383F001000AB0BDE812
:10A59000F081EB681F68114B05AA03F1100E944679
:10A5A00018685968164603C6083373453246F7D112
:10A5B0001B7833706146384621F03CFC0028DCD122
:10A5C000284623F07EFFA4F85800D6E70846DDE7CA
:10A5D0000846DBE70919050035A402001A19050031
:10A5E0002DE9F047044686B000284AD1264D2B7845
:10A5F000002B46D0686810B122F068FB6C60002424
:10A60000224FDFF88C90DFF88CA02C70A04600263B
:10A610003B78F340DB071CD533198DF8008001939C
:10A620008DF8088026F0A9FC4FF47A72A0FB020393
:10A6300002FB0131C00B40EA4140C90BCDE90401E6
:10A6400000220023694648461DF074FB50461DF069
:10A6500093FE0136082EDBD10834802C07F1010768
:10A66000D5D100220C49134601F8013F0132102ACE
:10A670000B74F9D12B85A5F85830002006B0BDE841
:10A68000F0876FF01500F9E7A4420020FE42002099
:10A690006C110020BC060020FD42002038B5064D9C
:10A6A0002C7834B92046FFF79BFF01232B702046FE
:10A6B00038BD6FF00B00FBE7A44200202DE9F0410C
:10A6C0000378063B012BA4B005460E4603D90120B2
:10A6D00024B0BDE8F081447814F00F04F7D16B7812
:10A6E0009C42F4DA69681022214401A821F0D0FBD1
:10A6F00070B3354B06AA03F11007964618685968DF
:10A700009446ACE803000833BB426246F6D11B789E
:10A710008CF80030714601A821F08CFBD0B12522C5
:10A7200010A901A803F01EF80BAA274B964618683B
:10A7300059689446ACE803000833BB426246F6D140
:10A740001B788CF8003025221AA9704603F00AF80D
:10A750001034C4E73046FFF7D3FB04F01DFF074673
:10A760000028F5D1FFF79AFF3146C5B2384605F00B
:10A77000B5FBDFF858C0164C7C2255430CEB05089E
:10A780001AAFC8F8040050B1FFF7ECFDA06C1A90A6
:10A790003946D8F8040022F06CFB002098E7E06C02
:10A7A000216D10AB543403C394E80F0087E80F0009
:10A7B0002B1D634410AA3946304605F00FFC0028D3
:10A7C000EBD0FFF7CBFCE8E7F8180500A442002027
:10A7D000E418050008B5FFF7ADFD002805DB7C2374
:10A7E0005843024B02221A54002008BDA442002004
:10A7F000024B187002481DF0BFBD00BFF30F0020D0
:10A80000CC06002008B5044801F042FA002818BF21
:10A810006FF0150008BD00BFF1A70200014B1878CA
:10A82000704700BFF30F0020084B1B78033B082B39
:10A8300008D8DFE803F00509050507070707090041
:10A84000022070470120704700207047F30F00205E
:10A8500010B50948094C1DF043F8206048B1084B79
:10A8600008494C2219F088F9206825F02FFA0020B9
:10A8700010BD6FF01500FBE77E3E05002043002071
:10A8800080230500843E050001481DF0F1BB00BF98
:10A89000BC12002038B504460D46FFF7BFFF0B2859
:10A8A0000BD8DFE800F01E1E0A0A1E060A0A0A0A72
:10A8B0000A1EBDE8384001F0B5B94FF476720023A6
:10A8C00009481DF0FBFB09482146006800232A4681
:10A8D00025F006FA044610B103481DF0C9FB2046D6
:10A8E00038BD6FF01204FAE7BC12002020430020AC
:10A8F0000148FEF7DDBA00BFD03E050010B5094C97
:10A900000A44914200D110BD11F8013B584003099F
:10A910000001E35CC0B2434018091B01205CDBB2BC
:10A920005840EEE7D63E05000B6801330B60014B43
:10A930001B681847DC06002007B50B4600210246BD
:10A940000191034801A900F027F903B05DF804FB69
:10A9500029A9020030B585B0CDE9010104460025E2
:10A9600001A90548039500F017F9DDE90230984286
:10A97000B8BF255405B030BDD59904002DE9F04786
:10A98000058B04462807904611D4022905F00705D7
:10A9900040F0CD8020461FF065F878B10138218B5A
:10A9A000042811D8DFE800F0C3106D859500012957
:10A9B0000CBF45F0100545F02005258388F311886C
:10A9C000BFF36F8FBDE8F08701F0070AAA4500F0DA
:10A9D000A6800027B9463E46A368002B00F0BD8044
:10A9E00041F00801218388F31188BFF36F8FA168BC
:10A9F000002900F0BB800D68002900F0B780D1F875
:10AA00000480334652462046C047002D76D02B683E
:10AA100029461D46F0E701F007035A1F012A1BD8FB
:10AA2000002221F00701062B276889B2C4E9002221
:10AA300009D13B4603E0628B1B6801326283002B25
:10AA4000F9D141F00201218320461FF00BF80028C4
:10AA50007BD041F0200177E0042B0AD121F00701DF
:10AA600089B2218320461EF0FDFF10B141F0200184
:10AA70002183218B01F0070AAA4550D00027B9464F
:10AA8000AAE7236921F0070141F00601062DD3F85A
:10AA9000009021832DD1B9F1000F40D041F0080181
:10AAA000218388F31188BFF36F8F3A492046C84746
:10AAB00029E021F00701236941F0040189B2042D46
:10AAC000D3F804902183E6D000273E464FF0040AD5
:10AAD00082E721F00701236941F0050189B2052DC4
:10AAE000D3F808902183D6D000273E464FF0050AC0
:10AAF00072E700273E464FF0060A6DE72B4687E7D0
:10AB0000B9F1000FD1D14FF02003EFF3118883F397
:10AB10001288BFF36F8F238B23F008032383258BC9
:10AB2000EA062ED525F01003238305F00705666994
:10AB3000218B002EBFF66FAF00232768C4E90033D6
:10AB400021F0070141F001012183218B01F0070A67
:10AB5000AA454FF000097FF43FAF002F9BD041F092
:10AB60000801218388F31188BFF36F8F002FC7D0AE
:10AB70003D6839463346524620461EF09FFF2F4619
:10AB8000F4E7AB067FF51AAF25F02003238305F029
:10AB90000705FFE6E99A04002DE9F04F8DB01D4648
:10ABA000531E8246019103934FF00009039B58788E
:10ABB000252803F1010419D11E4600204FF0FF386B
:10ABC000023603460290444631780396392954D818
:10ABD0001F2914D8002900F0F08101992520D047C1
:10ABE00001993078D04709F10209DFE7002800F029
:10ABF000E4810199D04709F101090394D6E7A1F155
:10AC00002002192AE9D801A757F822F075AC0200F2
:10AC1000DBAB0200DBAB020075AC0200DBAB020079
:10AC2000F5AC0200DBAB0200DBAB0200DBAB0200E9
:10AC3000DBAB020041AD020075AC0200DBAB0200F1
:10AC400055AD020001AD0200DBAB02000FAD02000A
:10AC50002FAD02002FAD02002FAD02002FAD02007C
:10AC60002FAD02002FAD02002FAD02002FAD02006C
:10AC70002FAD020008460136A6E7582900F0EE8005
:10AC8000A1F16302D7B2172FA7D8172AA5D801A719
:10AC900057F822F003AF02007BAD0200DBAB0200ED
:10ACA000DBAB0200DBAB02005BAD02007BAD020060
:10ACB000DBAB0200DBAB02005BAD0200DBAB0200F2
:10ACC000DBAB0200DBAB020037AE0200DBAB020005
:10ACD000DBAB0200D7AE0200DBAB02007BAD0200B3
:10ACE000DBAB0200DBAB020037AE0200DBAB0200E5
:10ACF0005BAD020001992520D04709F1010955E714
:10AD0000029A02F0FE0202924FF00008B3E7002C14
:10AD10000DDAB8F1000F0DDA029A002A00F0458131
:10AD200024EAE4740A2202FB0414303CA3E7B8F1DD
:10AD3000000FF5DB0A2202FB0812A2F130089AE7A5
:10AD4000B8F1000F55F8042B80F23181002A80F20F
:10AD500030815442022202928DE7682903D1682B88
:10AD600006D1482387E76C2902D16C2B00F02381A0
:10AD7000002B7FF432AF0B467DE77A2B06D1752985
:10AD800055F8046B14D14FF0000B0CE06C2BF6D08F
:10AD90004C2BF4D1073525F007037529D3E9006B57
:10ADA00003F1080506D120283ED1864F013C09E079
:10ADB0004FEAE67BBBF1000FF5DA7642824F6BEB90
:10ADC0004B0B013C0DF12D030593002304933046FA
:10ADD00059460A220023FBF793F9049B03F1FF3C39
:10ADE000CDF810C0DDF814C030320CF8012DCDF8CC
:10ADF00014C0B4465A46BCF10A0F72F1000206466E
:10AE00008B46E4D2C3F1010B30330DEB0306B8F1EE
:10AE1000000FA6F104066DDA029BD9077CD4A8EBDB
:10AE20000B03A4EB0B0413E02B280ABF674F684FFA
:10AE300004F1FF34C6E770290FD155F8042B002325
:10AE4000FAB9644E053C6FF004034FF0050B604FF8
:10AE5000029A92076FD4A04665E078216C2B03D14B
:10AE600055F8042B002308E04C2BF9D1073525F0C9
:10AE700007031D465B6855F8082B232825D1880653
:10AE800021D5554F023C01F06001A1F1390B0DF1C4
:10AE90002D0E002602F00F01092988BF59443031D8
:10AEA0000EF8011D102A4FEA121141EA03714FEA10
:10AEB000131073F1000306F1FF3C08D2C6F1010B39
:10AEC00006F13003A1E7454FDCE7414FDBE766467B
:10AED0000A460346DEE755F8046B304620F085FE4F
:10AEE000B8F1000F834602DB4045A8BFC346384F88
:10AEF0004FF00008A8EB0B03002B92DDA4EB080435
:10AF0000A6E755F8043B8DF81830013C4FF0FF33AD
:10AF10004FF0010B06AE9AE7A046EBE702930199CA
:10AF20002020D047029BB8F10108F7D524EAE4724B
:10AF3000013C9144A41AB84606E004930292019998
:10AF4000D047029A049B9046424612F8010B002813
:10AF5000F3D11A46013A15D5002BACBFC7EB030756
:10AF60007F425B46013B15D5BBF1000FA8BF5F4494
:10AF70004F442646013E14D5002CA8BF3F1907EBCD
:10AF8000080913E60493029201993020D047049BEC
:10AF9000029ADFE70293019916F8010BD047029B52
:10AFA000E0E701992020D047E4E70122D3E690466C
:10AFB00061E614465FE64C235DE648460DB0BDE809
:10AFC000F08F00BFE83E0500E63E0500EA3E0500C2
:10AFD000203F0500F23E0500EC3E0500EF3E050077
:10AFE00008B54FF02002EFF3118382F31288BFF30C
:10AFF0006F8F02F0DDF803481EF0FFFC01F0BEFD8C
:10B00000FCE700BFF83E05001FB507240294044C7E
:10B010000194BDF81840009423F03CFA04B010BD30
:10B02000F40F002010B5084C86B024788DF8174036
:10B03000012402940DF117040194BDF820400094FE
:10B0400023F028FA06B010BDFB0F002000B589B030
:10B0500064288DF8070019D80E4B182218700021AB
:10B0600002A820F004FE0C4B03930DF10703049398
:10B0700002A901230020ADF8143006F0E5FE10F11E
:10B08000800F08BF002009B05DF804FB6FF01500C9
:10B09000F9E700BFFB0F0020342405002DE9F7433A
:10B0A0000F4606460821C06ADFF850901FF04EF8A0
:10B0B0003C68241A80463C6004EA0905AC4203D887
:10B0C000002003B0BDE8F08308236A4621463046DD
:10B0D0001EF0B1FF0028F4D1694630461FF040F859
:10B0E00040B1BDF80230BDF804203C6005EA090516
:10B0F00013441D44A4EB0804E0E700BF0000FFFF79
:10B100002DE9F047044688B00D4600F11407384693
:10B1100025F0F6FB28461CF0E3FBA062002800F0B7
:10B1200052818368DB689847E06228B96FF01505A3
:10B13000284608B0BDE8F087A06A8368DB689847B6
:10B140000368013B1F2BF1D8A06A216805AA24F0EF
:10B15000B0FF0028EAD1A589002DE7D0069BB5FBFA
:10B16000F3F203FB1255002DE0D1E389012BDDD969
:10B17000E36A009593F804904FF0FF334FF0FF32ED
:10B1800038461CF087FEE06A08211EF0DFFFA84663
:10B190000646E3891FFA85FA534508D8E3894345F3
:10B1A00023D138461CF0EEFE6FF02C05C0E7A189D4
:10B1B0002B04891B13FA81F14A460823204600918B
:10B1C0001EF071FF78B1E08969461EF0B4FF08F106
:10B1D0000108009908234A4620461FFA88F81EF005
:10B1E00062FF0028DAD00135D3E753450BD100992F
:10B1F00008234A46891B20461EF055FF18B9E089EE
:10B2000069461EF098FF69462046FFF747FF05464E
:10B2100018B138461CF0B6FE8AE7009B63604FEA1F
:10B2200013484FEA0848C4F80880D4E9011399424A
:10B230000FD3082301AA20461EF0FDFE0546002874
:10B24000E7D101AB13F8012B914533D10135082D1E
:10B25000F8D16368E0891B0C1B04694600931EF05B
:10B260006AFFA38900994A4620461EF01CFF051E6E
:10B27000CFDB636874D006EB03084FF6FF79A38930
:10B28000CDF800801FFA88F29B1B9A422CD3002332
:10B290006168002B41D0090C0904E08900916946DE
:10B2A0001EF049FF009920461EF022FF0546002DA2
:10B2B00072D0AEE701A920461EF052FF626810B9B5
:10B2C000921B6260B1E7BDF80850BDF80610E06A55
:10B2D00029441EF03BFF40449042A060F0D1002D75
:10B2E000EED06FF01C0568E0082303AA4146204613
:10B2F0001EF0A1FE054600288BD103A920461EF0B2
:10B300002FFF30B1BDF80C304B4502D1BDF81030E5
:10B310000BB1B044B3E70123BAE720461EF0E8FEC4
:10B32000054600287FF475AF6368284AA189134059
:10B330000B44A3EB460363601340A36020461EF05A
:10B34000F1FFB3E75B1A4A4620461EF0ACFE051E2D
:10B35000FFF65FAF08D0E26AA36812681344A360E7
:10B36000D4E901318B42EDD86168A38901EB460233
:10B370009A429CD1DFF85480A26801EA08039A42FD
:10B3800095D020461EF0B4FE054600287FF441AF5C
:10B39000636803EA0803A360A389A288A3EB4603BA
:10B3A0009A4206D038461CF0EDFD01232374002597
:10B3B000BEE620461EF0A1FF054638461CF0E2FD21
:10B3C000002DF2D0B4E66FF00505B1E60000FFFFF6
:10B3D0002DE9F04F1D46037C89B00446894690460E
:10B3E000002B00F0BD80C26A082110461EF0AEFEA0
:10B3F0002946824610461EF0A9FEA389A3EB8A03C4
:10B400009D42074600F2AF801DB1B8F1000F00F079
:10B41000AA806368039304AA03A92046DDF80CB050
:10B420001EF0D6FE0646002865D1BDF810304B450B
:10B4300005D06268039B9A42EDD1E5B95BE004A9AF
:10B4400020461EF08DFE0028F3D0BDF81200BDF896
:10B45000143075B19D420ED14FEA1B4109040144DD
:10B460002B46424620461EF0F4FD002803DC06462B
:10B4700041E0002B3FD0002F41D104F11403019390
:10B480004FF0FF324FF0FF3304F114001CF002FDC7
:10B49000DFF8D8B0E3899E425FD0D4E90123F918E0
:10B4A0008A422FD3ADF81A3006A8FF238DF81E303C
:10B4B000ADF81890ADF81C501EF034FEA1682B4674
:10B4C000424620461EF0CEFE29468246E06A1EF025
:10B4D0003DFEA2680244A260BAF1000F07D106A99E
:10B4E00020461EF0F9FE002814BF8246AA460198A5
:10B4F0001CF048FD5646304609B0BDE8F08F574471
:10B50000BFB2BAE70821E06A1EF020FE4FF6FF73D3
:10B51000ADF818300023ADF81C301318ADF81A3010
:10B52000A38902EA0B021A44101A606006A81EF0F2
:10B53000F9FD06A920461EF0CFFEE089211D1EF070
:10B54000FAFD636803EA0B03A36020461EF0EAFEDF
:10B5500082460028CBD101369CE76FF01B0AC6E774
:10B560006FF00C06C7E76FF01506C4E70000FFFF99
:10B570000C4BF0B45F6A0C4E0C4BB34203D36FF02C
:10B580008500F0BC70475D68BD4209D31C693CB1C1
:10B5900095F802C00579AC4502D12346F0BC1847A6
:10B5A0002433EAE7244300200C150020E81400208F
:10B5B0002DE9F047134CDFF85080DFF85090054636
:10B5C0000E461746444503D36FF08500BDE8F0876B
:10B5D0006268D9F824309A4212D3A36983B1907873
:10B5E0002979884205D13A4631462846BDE8F047D8
:10B5F00018475279012A03D13A46314628469847DE
:10B600002434DFE7E81400200C1500202443002038
:10B610002DE9F0410B4CDFF8308005460E46174609
:10B62000444502D36FF0850009E063690BB9243407
:10B63000F6E73A463146284698470028F7D1BDE854
:10B64000F08100BFE81400200C15002007B58378B6
:10B650008DF800300379427943EA0223ADF80230D5
:10B66000C378684603F003038DF8043018F046FEF3
:10B6700010F1780F04D018B1002003B05DF804FB7E
:10B680009DF8000018F0C0FE10F1780F01D00028DE
:10B69000F2D1024B012083F8B900EEE724430020E9
:10B6A00002480822002120F0E2BA00BFDF43002058
:10B6B00070B50B4B0B4CA34201D3002070BD196A2F
:10B6C0001E7F00220439D5B2AE4201D82433F2E7FE
:10B6D000013211F832508542F5D10120EEE700BF6A
:10B6E000E81400200C150020094808B50378C3F3BE
:10B6F00041130A3350F823303BB100F1080200F146
:10B7000010019847C043C00F08BD1846FCE700BFB2
:10B710002443002004282DE9F047DFF88C800446FC
:10B720000E4613D1FFF7BCFF204B93F8B930ABB1F5
:10B7300000F0FEFC1E4D454526D2D5F8209000278E
:10B740002A7FFBB29A4217D82435F4E7052810D196
:10B75000164B93F8B9300BB100F0EAFC144D454597
:10B7600017D3124B1B6AE3B131462046BDE8F047C0
:10B7700018470128F2D1D7E709EBC303013718793D
:10B7800018F06CFE0028DBDA084B002283F8B920A1
:10B79000E4E7EB681BB1324621462846984724353A
:10B7A000DDE7BDE8F08700BF0C1500202443002032
:10B7B000E814002073B5C4B263060D468DF8074047
:10B7C00007D02046FFF774FF78B10D4B93F8BA000D
:10B7D00058B10B4E204655B118F0B2FDF3691BB1BC
:10B7E0000DF1070108209847012002B070BD18F044
:10B7F000CFFDF369002BF7D00DF107010920F2E727
:10B80000244300202DE9F047A44EB36904460F46B7
:10B810001546FBB9237803F01F03012B00F09D8030
:10B82000022B00F0078133BB94F900002A6861788D
:10B83000002834DA062912D008292BD0D9B90123DF
:10B840001370517096F8C3305B0043F0010313701E
:10B8500002232CE198470028DCD100200DE062880B
:10B86000100A011F0129844605D9072803D8716AE7
:10B87000D2B20C781CB96FF01500BDE8F0874E7895
:10B88000664503D19A4200F00D8101332144F0E76F
:10B890000B780CE196F8BA301370012307E10139F7
:10B8A0000829E8D801A353F821F000BF45B90200E8
:10B8B00077B8020053B9020077B80200D1B802008D
:10B8C00077B8020077B8020077B80200DDB802004E
:10B8D000A07818F001FD0028BFD0CCE76388756A16
:10B8E00063BBFFF7DDFE638886F8BA30F369002B8F
:10B8F000B3D06B4903209847AFE76B78042B10D087
:10B90000052B11D0022B04D16F796388BB4208BF8D
:10B9100001202B781D442B78002BEED10028AAD0D3
:10B92000DFE795F80380F4E76388BB42F1D1B8F113
:10B93000000FEED12846FFF789FEEAE7FF27002037
:10B94000B846E8E76388012B95D1002386F8C33019
:10B9500083E76388012B8ED1F8E796F8BA30D5F8E3
:10B9600000C0002B87D0756AA38894F804E02A46AB
:10B97000107800283FF47FAF5178022904D192F863
:10B980000480F04500F295800244F1E78CF8002035
:10B990008CF80120396060E7154496E00B2A7FF4AB
:10B9A0006AAF00274FF0FF08C146BA4606E06B7841
:10B9B000042B0FD0052B21D02B781D442B78002B86
:10B9C000F5D1F36913B1514607209847002F7FF452
:10B9D00044AF50E795F80280A38895F80390984506
:10B9E000EAD163889945E7D1B8F1070F1FD806EB74
:10B9F0000803AA4683F8BB900127DDE7A3884345E7
:10BA0000DAD1A3784B450DD0AF78384600F072FB01
:10BA1000384618F023FD10F1780FEDD0B0FA80F71A
:10BA20007F09C9E72846FFF711FE0746C4E7AA4683
:10BA30000027C1E794F900206378002A18DA002B68
:10BA40007FF419AF24792D6863060AD02046FFF7EA
:10BA50002FFE00283FF40FAF96F8BA30002B3FF4CA
:10BA60000AAF2946204618F0B3FC00236B70EFE6BE
:10BA7000012B08D0032B7FF4FEAE6388002B7FF4EC
:10BA8000FAAE012103E0618800297FF4F4AEA088BA
:10BA9000FFF790FE00287FF4E0AEECE624430020A0
:10BAA000DE430020022829607FF4F2AE4B883B6021
:10BAB000D3E694F9000062780028BFF66FAF002A41
:10BAC0003FF464AF0A2A7FF4D6AE2A78002A3FF406
:10BAD000D2AE697804297FF45FAFA9788B427FF4F6
