:020000022000DC
:10600000986200201DA5020045490400F1A4020089
:10601000F1A40200F1A40200F1A4020000000000BB
:1060200000000000000000000000000085A2020047
:10603000F1A40200000000003DA20200F1A4020051
:1060400001A3020065A1030001A3020001A3020055
:1060500001A3020001A3020001A3020001A30200A8
:1060600001A3020001A3020001A3020001A3020098
:1060700001A3020001A3020001A3020001A3020088
:1060800001A3020001A3020001A3020001A3020078
:1060900001A3020001A3020001A3020001A3020068
:1060A00001A3020001A3020001A3020001A3020058
:1060B00001A3020001A3020001A3020001A3020048
:1060C00001A3020001A3020001A3020001A3020038
:1060D00001A3020001A3020001A3020001A3020028
:1060E00001A3020001A3020001A3020001A3020018
:1060F00001A3020001A3020001A3020001A3020008
:1061000053B94AB9002908BF00281CBF4FF0FF311E
:106110004FF0FF3000F00CB8ADF1080C6DE904CE83
:1061200000F008F8DDF804E0DDE9022304B0704770
:10613000704700BF2DE9F04786468C460846089E0A
:10614000154674461946002B40F0C2808542B2FACB
:1061500082F245D94AB1C2F1200300FA02FC2EFABC
:1061600003F3954043EA0C0C94404FEA154EA8B255
:10617000BCFBFEF8230C0EFB18CC08FB00F943EA2D
:106180000C43994528D9EB1808F1FF3704D29945FB
:1061900002D9A8F102072B44A3EB0903A4B2B3FB75
:1061A000FEFC0EFB1C330CFB00F044EA0344A0424F
:1061B00014D92C190CF1FF3304D2A04202D9ACF14E
:1061C00002032C44241A43EA07401EB1D4400023A2
:1061D00034607360BDE8F0874746DDE76346F1E76A
:1061E00092BB431B01214FEA154EAFB2B3FBFEFC3D
:1061F000200C0EFB1C330CFB07F840EA03439845C8
:1062000062D9EB180CF1FF3004D2984502D9ACF1F9
:1062100002002B44A3EB0803A4B2B3FBFEFC0EFB6D
:106220001C330CFB07F744EA0344A7424ED92C1950
:106230000CF1FF3304D2A74202D9ACF102032C4483
:10624000E41B43EA0040C0E7C2F1200320FA03F157
:10625000954090402EFA03F303434FEA154EAFB238
:10626000B1FBFEFC0EFB1C10190C0CFB07F841EAFD
:106270000041884504FA02F422D969180CF1FF3074
:1062800004D2884502D9ACF102002944A1EB0801EF
:106290009BB2B1FBFEFC0EFB1C110CFB07F743EAA3
:1062A00001439F420ED9EB180CF1FF3104D29F42FB
:1062B00002D9ACF102012B44DB1B41EA004192E719
:1062C0006046E3E76146F7E76046A3E76346B7E762
:1062D000834206D916B9002108467BE7C6E900E0EB
:1062E000F9E7B3FA83F78FB9834201D3724508D82F
:1062F000BEEB020460EB030301209C461EB90021A3
:1063000068E73846FAE7C6E9004CF8E7C7F1200C21
:10631000BB4022FA0CF41C432EFA0CF120FA0CF3C9
:10632000B84001434FEA14490EFA07F5B3FBF9F8F8
:106330001FFA84FE09FB18300B0C08FB0EFA43EA27
:1063400000439A4502FA07F240D9E31808F1FF30FA
:1063500004D29A4502D9A8F102002344A3EB0A0310
:1063600089B2B3FBF9F809FB183308FB0EFE41EACA
:1063700003418E452CD9611808F1FF3304D28E45B4
:1063800002D9A8F10203214443EA0040A0FB02988D
:10639000A1EB0E014145CE46434602D306D14D4501
:1063A00004D2B9EB020E68EB04030138002EA6D02C
:1063B000B5EB0E0261EB030101FA0CFC22FA07F3C4
:1063C0004CEA0303F940C6E9003198E74046C5E7C7
:1063D0004346D9E70000000073B53F4DD5F854316E
:1063E000996811F0010121D101AA40F6034004F09F
:1063F0008FFE044600286CD1019883681B789BB9F6
:10640000BFF35B8FD5F8CC30BFF35B8F05F1CC02C7
:1064100003F00503BFF35B8F52E8001F42E800342E
:10642000002CF9D1BFF35B8F16F03EFE01AA0021CC
:1064300041F2030004F06CFE0446002849D1019E9D
:106440002648B168082201311EF03BFB304616F0A9
:106450002BFE214601AA41F2010004F059FE044638
:10646000002836D1019883685A7885F86820D97851
:106470009A7842EA0122A5F86A201A7985F86920FB
:10648000197ADA7942EA0122A5F86C205A799B79C7
:1064900042EA0323A5F86E3016F006FE214601AA53
:1064A00041F2020004F034FE044690B9019E0C480B
:1064B000B168402201311EF004FB09481EF0A8FB20
:1064C000304616F0F1FD95F874305A060AD46FF094
:1064D0001204204602B070BD0000002070000020B1
:1064E00078000020214601AA42F2030004F010FEC9
:1064F00004460028EDD1019EB748B1680822013159
:106500001EF0DFFA304616F0CFFD214601AA42F216
:10651000020004F0FDFD04460028DAD1019CA368C6
:10652000B3F80120A5F8FC2091B221B1DA78AB488C
:10653000114622F00CF9204616F0B6FD95F874606D
:1065400016F0200618D1022140F66D4004F084FDBB
:106550000446002800F0CE800221083021F0E4F942
:106560000123037046702146324640F66D4004F028
:10657000CFFD04460028ACD195F894301B0712D506
:1065800001AA002142F21C0004F0C2FD04460028CA
:106590009FD101988368D3F80120D3F80530C5E96D
:1065A000362316F081FD95F8D0309E0624D50DF1E6
:1065B000020168461EF090FD0446002889D104219E
:1065C00042F2240004F048FD0646002800F09280C4
:1065D0000421083021F0A8F9BDF800300380BDF88F
:1065E000023043802246314642F2240004F090FDFE
:1065F000044600287FF46DAF95F8D0305C0610D5C6
:1066000001AA002142F22A0004F082FD044600287B
:106610007FF45FAF019883685B7885F8183116F0D6
:1066200043FD082142F2010004F016FD0446002853
:1066300060D00821084421F077F995F8D01011F0C6
:10664000400F024640F2022308BF032388074CBFD5
:1066500043F02C0043F00C008B0695F8D13048BF76
:1066600040F0400013F0090F95F89A3018BF40F43D
:10667000006003F00603CE0748BF40F01000062B71
:1066800008BF40F4C07000211EF006FC2146002225
:1066900042F2010004F03CFD044600287FF419AFEB
:1066A00095F87430B5F8FC10980626D4D9B901AA2B
:1066B00041F2050004F02CFD044600287FF409AFE8
:1066C000B5F8FC30019C5BB9A3685A78997842EA26
:1066D0000122A5F8FC209A884048114622F037F89C
:1066E000204616F0E1FC082140F6014004F0B4FC1D
:1066F000044638B96FF06804EBE60029F3D16FF077
:106700000404E6E60821084421F00EF995F8D0309B
:10671000D907024657D432484FF000511EF0BCFB57
:106720002146002240F6014004F0F2FC0446002815
:106730007FF4CFAE014601AA4FF6014004F0E8FC19
:10674000044648BB019816F0AFFC214601AA4FF65B
:10675000024004F0DDFC0446F0B9019E2148B16816
:10676000022201311EF0ADF9304616F09DFC95F87D
:10677000B9305B0710D501AA21464FF6034004F05B
:10678000C7FC48B9019C1848A168012211441EF0B9
:1067900098F9204616F088FC1EF01AFF04460028DF
:1067A0007FF497AE06F010FB044600287FF491AE0C
:1067B000EB79002B3FF48DAE04210C481EF0FBFA60
:1067C00004F066FF85E602A1D1E90001A6E700BF5B
:1067D0009088000200800020D000002000010020EE
:1067E00010880002B9000020B8000020CC00002072
:1067F0002DE9F843D0E90B35D0F828805C19303406
:10680000A0450F46164619D81D4DA3FB05011AA336
:10681000D3E90023FFF774FC0346A4EB0800A0FBB8
:10682000050123F07F4414A3D3E90023FFF768FC9C
:1068300020F07F403C603060BDE8F883DFF8409096
:106840000DA3D3E90023A8FB0901FFF759FC044677
:1068500005F1300008A3D3E90023A0FB0901FFF7ED
:106860004FFC24F07F4420F07F403C603060BDE866
:10687000F88300BFAFF300808D49FD1A07000000C8
:1068800000CA9A3B00000000002800F08D812DE92D
:10689000F04FCD4C94F86A2012F001058DB040F015
:1068A000D28194F82500FF2300F0030084F82630FD
:1068B00013F0F8F894F86A00460727D494F82920D2
:1068C00094F8353004EB820204EB8303D76AD3F8E3
:1068D000388087B13946BC480DF032FD3B78590607
:1068E00005D5062109F0C4F8002800F0AE81B648AD
:1068F00041460DF025FD3B7813F00E0F40F0ED8082
:10690000236A93B10C200DB0BDE8F08F2A4604F144
:106910006B01C0F3C00013F02FFAFF2884F82600A3
:10692000CCD0284613F0D8F8C8E70CF0CBFB814652
:10693000002800F097810CF0D1FB8246002800F07F
:106940008E810EF035FC0546002800F08D81406FE9
:106950004FF6FF732B8505F11C0B002800F07B819F
:1069600005F1680205F1640109F08EF8B5F86030B0
:10697000964A23F4EF6323F0070343F4887343F04C
:106980000103A5F8603095F8393003F03F0363F058
:106990007F0385F8393095F87A3023F0070385F8BE
:1069A0007A3095F83C3023F0070385F83C3095F8B1
:1069B000D83023F0070385F8D8304FF01B1300269A
:1069C000C5E916320623A5F8C030C5E912666E6720
:1069D000A5F878606E86C5F82E6085F83B602E6558
:1069E000A5F8C460A5F8C860A5F8D060A5F8CC608B
:1069F00085F8E660A5F8E460C5F80861A5F80C61C3
:106A0000A5F820610BF030FE95F83A31A5F8386111
:106A100023F0030385F83A3195F87A30A5F8406100
:106A200023F0180385F87A3095F8663185F84361CC
:106A300023F0070385F8663195F88631C5F844914F
:106A400066F3451385F8863195F8AE31A5F8646193
:106A500066F3C303002285F8AE310023C5E94A017D
:106A6000C5E94C2385F8D960A5F88461C5F8E060D4
:106A7000A5F8AC61A5F8B8610EF0C8FEA5F8D20083
:106A80000EF0CAFED5F8BC21514BA5F8D400134036
:106A9000C5F8BC310EF0C6FE95F8C03160F30203B4
:106AA00085F8C0310EF0C4FE95F8C031C4F820B0AE
:106AB00060F3C503C4E9189AC5E97466C5E972664E
:106AC000C5E90566C5F8C4612E70ED6185F8C03171
:106AD00014F09EF8002840F0BA8094F82430012188
:106AE000C3F342030DF12B008DF82B3009F056F95A
:106AF000024600285AD098F8011038460DF0F0F9F7
:106B00003449B4F8686000253123A360C4E9055511
:106B10002BA3D3E9002325706560E560A0FB01018C
:106B2000FFF7EEFA20610AF0A1FA80463EB93D78FF
:106B300005F00F05A5F10105B5FA85F56D0994F885
:106B40002400236965F3000010F0010584F8240097
:106B500048D00020204A214F049302250BAE019318
:106B600005920321CDE90200089606944346009061
:106B700007972A460B950AF0ABF931460CF058FB03
:106B8000A0B9174905914AF2D8330093CDE9030023
:106B9000CDE9010007970896069443460122032198
:106BA0000B950AF095F943E00DF0ECB8236A002B41
:106BB0003FF4A8AE0DF0A4F8A4E600BFAFF3008048
:106BC0008D49FD1A0700000060250020480148019A
:106BD0000000FFF600CA9A3B513F0300092703005B
:106BE000913A0300264A2748049303F24713069478
:106BF000029591211360A6FB000301FB0631224B95
:106C00000793224B05934FF6FF73099202270393D4
:106C10000BAE19A3D3E900230B970896FFF770FA80
:106C20004346CDE900503A46284603210AF0FAF8D7
:106C300031460CF0FDFA0028B8D194F86A3043F0E0
:106C4000010384F86A3000205DE612205BE60DF057
:106C500057F8032057E605F16C00686780E6484660
:106C60000CF036FA07204EE650460CF03DFA484646
:106C70000CF02EFAF6E700BF8D49FD1A0700000060
:106C800054250020002AE78409270300513F030010
:106C900070B590F824308AB0C3F342030D46044621
:106CA00001210DF1230016468DF8233009F076F806
:106CB0007178024628460DF013F91D491AA3D3E94D
:106CC0000023A0FB0101FFF71BFA23699842054648
:106CD00021D21B1A00220192164A0293164BA21AC5
:106CE000A3FB02320221920900230A4409AE099152
:106CF00012490591CDE903330321D2B206960093E0
:106D000018460AF059F931460CF092FA38B9256163
:106D100000200AB070BDFBD9C21A0023DBE70C20AB
:106D20000AB070BDAFF300808D49FD1A0700000066
:106D300000CA9A3B6025002009CB3D8D092703003E
:106D40002DE9F04FC38D468EB0F8E8701E4490F8E0
:106D50000E31B6B2314413F007038BB004461FFA6C
:106D600081F940F0A181A9EB07011FFA81F909041B
:106D700000F10282904690F93920002AC0F2358154
:106D800094F8E43084F8E53094F8842194F885315F
:106D900094F80C1184F80D11934206D094F88631C2
:106DA00003F00F03062B00F03B82B14BD4F80851DF
:106DB0001A68944204BF00221A60002D00F043813B
:106DC0002868002800F03F81D4F81031628D4168B6
:106DD000C4F808111FFA83FC6245B4F8141100F0DE
:106DE0001881228DC5F81E3000232B77EA80698434
:106DF00018232B7129460CF07DF90CF085F9A36856
:106E0000002BC0F2FA80B4F82AC0B4F810511CFB71
:106E100009FC1FFA8CFCBCFBF5F315FB03F080B2F8
:106E200084451FFA83FAC0F0CE8005FB13C1914858
:106E300040F2E24389B203FB01F1A1FB00018AA306
:106E4000D3E90023FFF75CF9A8EB0008E38D1F44AA
:106E5000BF1B94F939305744E785002B40F2E247D5
:106E600007FB05F6C0F28B81834A8449844840F6CB
:106E70009C431BF027FD404080F311884FF0030036
:106E800002DF0027B3467F4AD4F81011B4F814315A
:106E90007D48C4F82A103244B2FBF6F2A4F8C620AA
:106EA00042F21072090C02FB03633044013BB0FB59
:106EB000F6F0B3FBF6F3A4F8C23083B2881D834228
:106EC000A4F8CE3004DDC1F57F41FA310B449BB20A
:106ED000A4F8CA3094F80E311B0744BF0023A4F86D
:106EE000C4300221012015F065FE002202218246F5
:106EF000012008F019FE65494FF4F072204608F0B1
:106F0000A3FD00F103095FFA89F9614B00944A4639
:106F1000012100200AF068F830F002030CD0564A34
:106F20005C49574840F6CB431BF0CCFC404080F313
:106F300011884FF0030002DF4E4EABFB066B4AA3F5
:106F4000D3E9002330465946FFF7DAF8089406944F
:106F500023690493504B20F07F45A5FB0331F01AC1
:106F60004E4B07934FF007024D4B059302FB051163
:106F70004FF6FE736BEB010103934FF47A7200231B
:106F8000FFF7BEF84346CDE9015000974A4601217C
:106F9000002009F09DFF30F002030CD0364A3D4935
:106FA000374840F6E5431BF08DFC404080F31188E4
:106FB0004FF0030002DFBAF1000F40F02B810020F8
:106FC0000BB0BDE8F08FA0EB0C0040F2E242294983
:106FD00002FB00F0A0FB010123A3D3E90023FFF78C
:106FE0008FF820F07F40804430E790F8D920002AC5
:106FF0003FF4C6AE80F8D930C6E6E168626823F097
:10700000004391422CBF88449044A360A8EB03083E
:10701000F9E6B4F82CC0BCEB134F7FF4E2AE40F2BB
:10702000E24C0CFB02F242F2107C0CFB012C0CF146
:10703000FF3CBCFBF2F2B4F8C2C092B294457FF4BC
:10704000D0AE0123D5E60C4A16490D484FF44263F1
:107050001BF038FC404080F311884FF0030002DF42
:107060002868B1E6AFF300808D49FD1A07000000E3
:10707000F425002000CA9A3BDCA00400C89C040050
:10708000689C0400FF5962027FC3C901E814002014
:10709000A1490300BCA104008D49FD1A4949030020
:1070A000958E0300A8A1040001200CF033F80646D9
:1070B000002800F0DB807E4808F090FC05460028A0
:1070C00000F0D4807B4B1A68002A00F0AF800CF0EF
:1070D00041F82B793268D4F80811516043F003036A
:1070E000C4F808612B710C236B71D4F81821724815
:1070F0000021E971A0FB020294F81C312B72920A64
:10710000A38DA5F80920B4F81021A5F80B20B4F838
:107110001221A5F80D20B4F81421A5F80F2094F839
:107120000E21063361F302024B44D4F8C41184F8F3
:107130000E219BB2A4F8E830A5F81130002977D0D1
:1071400094F866319E077FD494F8BF31D8077BD47A
:10715000D4F8D021D4F8C831914200F08A80002BB5
:1071600000F09480D4F8CC110B682B600D602B6874
:10717000C4F8CC51002B76D06FF0760020E7226C5B
:10718000A36C02FB1933A36413F092FD054694F837
:10719000D800C0F3C20013F08DFD054406FB05F5D1
:1071A000464B94F81C2105F5742505F23F25A3FBF9
:1071B0000535AD0C07FB02F2A36C226505FB0AF056
:1071C00072080344963A934228BF13462564A6EBFF
:1071D000050B3B4DC4E911230023C4F8E030A0FBAC
:1071E000050131A3D3E90023FEF78AFF324BA8EB58
:1071F0000008D4F81801A3FB0030800A07FB00F058
:1072000029A3D3E90023A0FB0501FEF779FF20F0B5
:107210007F4738E601220221104608F085FCCEE6C1
:10722000002384F88521A4F8C830BEE51C604EE731
:10723000D4F8C83193B1D4F8CC311A682A601D60F3
:107240002B68C4F8CC5195E7D4F8C831002BF2D1A3
:107250002960C4E97155C4F8CC518DE72B60C4E9AD
:107260007155C4F8CC51C4F8D45185E76FF068006B
:10727000A6E60A68C4F8D021002B7FF473AF0B6830
:107280002B600D602B68C4E9725573E70B7903F02E
:107290000303032B02D0C4F8C81165E7CB79032B95
:1072A000EDD00A2BF7D1EAE78D49FD1A070000005F
:1072B00038260020F42500205917B7D183DE1B4360
:1072C00000CA9A3B000000002DE9F04F0B68D2F88D
:1072D00000A0D3F80080037F97B00C46C3F380135F
:1072E00000F11E010546164614A806228DF8473007
:1072F0001DF0E7FB677CFF2F0DF1480B5CD05A4671
:107300000DF14701384612F0DBF89DF847300233A3
:107310008DF847302946032251F82E3B0B9306F196
:10732000080006F104091DF0CCFB06F11803042245
:1073300005F12A0148460C931DF0C3FB0C9B052266
:1073400005F13A0118461DF0BCFB0C9B05211846BF
:1073500008F024FD737F95F83F2000F03F0060F3B4
:1073600005037377C2F30403B377AB8EF38101286F
:1073700099B202F01F0305D91B3303F01F030B2B37
:1073800000D8F9B996F82030EC680B98002262F327
:1073900000030127C8F81420294686F820302F71F1
:1073A0000BF0A8FE2068277121460BF0A3FE0BF01E
:1073B000ABFE17B0BDE8F08F062214A958461DF0A9
:1073C00080FBA7E723680020586095F8363095F8D1
:1073D000370043EA002333829AF8D830520962F327
:1073E000C5036A8E8AF8D83040F2E24303FB01F10C
:1073F0000E920C9113F05CFC0D909AF8D800C0F33B
:10740000C20013F057FC0D9A0C99104401FB00F0D8
:10741000BD4A00F5742000F23F20A2FB002095F841
:10742000312040F2E24302FB03F3B3634B08800CCC
:10743000963B7062B3622B8FB44AADF83E3018466B
:10744000B34B8C460B446244B3FBF1F3B2FBFCF24A
:10745000318AAAF8C62082B242F2107000FB02C242
:10746000013A881DB2FBFCF2AAF8C2209AB282420D
:10747000AAF8CE2004DDC1F57F41FA310A4492B268
:10748000AAF8CA20494604220AF1DC001DF019FBC3
:107490002B4613F81C2FC2F340120D92DA0700F1AD
:1074A0000F814FF48073AB8398F8260012F07EFDB5
:1074B0000146062205F12B00002900F0E78005F1C6
:1074C00024011DF0FEFAFF2F05F1250000F0E180F8
:1074D00014A906221DF0F5FA9DF84730AB775946FE
:1074E000062205F11F001DF0ECFAD6F80E30C5F8A3
:1074F0003230BDF83E30EB869AF8D830C3F3C20381
:1075000085F8383050460DF05FFE2946B081E8809E
:1075100065680B980BF0EEFDB389EB801B232B7194
:107520000D9B2F68002B40F0B9800D9B2B772946CF
:1075300038460BF0DFFD0BF0E7FD96F84500B6F896
:107540004070B6F84250012100F0070013F0BAF97C
:107550003D4405F5E175291881466E480027312321
:10756000CAF80830A1FB000165A3D3E90023CAF8DB
:107570000470CAF80C70FEF7C3FD766A0C9B0E9A75
:10758000E56820F07F409E1B40F2E24303FB02557A
:1075900002213A46CAF81000012008F0C5FA404618
:1075A0000CF08AFE821C5C4BCDF80080D2B23846CB
:1075B000012109F019FD05F2B2450128A5EB0905E5
:1075C00000F08B8098F82430DB0771D450460DF022
:1075D000FBFDDFF84091A6FB098649A3D3E9002310
:1075E000834631464046FEF78BFDA3684B4A07921F
:1075F0000BF10304A3F13A0B494BCDF818A020F08E
:107600007F47A7FB0331B8EB0300464B05934FF4CC
:10761000E4730893DAF8103004934FF000030393F7
:107620004FF0070303FB071166EB01014FF47A7279
:107630000023FEF765FD32A3D3E90023CDE90170F5
:10764000A5FB0901FEF75CFDE4B220F07F4000904D
:107650005B4622460121002009F03AFC30F002038B
:107660000CD0314A3149324840F2C9131BF02AF993
:10767000404080F311884FF0030002DF0122022115
:10768000104608F051FA17B0BDE8F08F1DF024FA4B
:1076900019E7062200211DF01FFA1DE7737F43F052
:1076A00040037377484611F019FD0123F0833DE74D
:1076B0000023012200931846114609F095FC85E746
:1076C000194A1C491A48F1231BF0FCF8404080F38A
:1076D00011884FF0030002DFE3E60BF0E9FD80457F
:1076E0003FF470AF104A1449114840F29F231BF039
:1076F000E9F8404080F311884FF0030002DF61E7B2
:107700008D49FD1A0700000083DE1B43FF5962020A
:107710007FC3C90100CA9A3B598E0300298E03001A
:107720008D49FD1A958E030000A30400BCA104003E
:10773000689C0400509D04005CA30400000000004D
:107740002DE9F04F8FB0DFF8D8800B900DF13701A5
:107750000DF136000BF046FD324F9DF836A09DF836
:1077600037B009F083FCD8F800400A90A4FB075416
:1077700029A3D3E90023002621462846FEF7C0FCB2
:107780000B9B0693CDE90766274B05938146D8F8F6
:10779000040021A3D3E90023A0FB0701FEF7B0FCFE
:1077A000224B29F07F47A7FB033120F07F400722BF
:1077B000CDE9036002FB0711E81A64EB01014FF405
:1077C0007A720023FEF79CFC0A9B0096CDE90170BB
:1077D0005A460321504609F07BFB30F0020416D1D3
:1077E000134A1448002319F0E3FE68B19DF83720CE
:1077F0009DF8360000942346032109F0F5FB6FF055
:1078000073000FB0BDE8F08FD8F80C00F9E76FF007
:107810008B00F6E7AFF300808D49FD1A07000000EA
:10782000A036002000CA9A3B99E903008D49FD1A51
:10783000447B0B008836002038B50F4D044609F014
:1078400015FCA96809F014FC6968B0FBF4F4044461
:107850000A4807A3D3E90023A1FB0001FEF750FC6F
:1078600020F07F40844294BF0020012038BD00BF3B
:107870008D49FD1A07000000A036002000CA9A3B7F
:10788000014819F0F3BF00BF6002002007B521F0E6
:10789000B0F94FF47A72A0FB020302FB0131C00B76
:1078A000074A40EA4140106000234FF40042054877
:1078B000CDE900231AF078FD002003B05DF804FB49
:1078C00068190020100A002008B5044B187800F051
:1078D000E5F8BDE808401AF05EBE00BF343B00206A
:1078E000044B1A78824202D01870FFF7EDBF0020D7
:1078F000704700BF343B002008B521F07AF94FF4FF
:107900007A72A0FB020302FB0131C00B044A40EA79
:1079100041401060BDE808400020FFF7E1BF00BF14
:107920006819002008B521F064F94FF47A72A0FBC1
:10793000020302FB0131084AC30B126843EA4143C8
:107940009B1A47F23052934204DDBDE80840012003
:10795000FFF7C6BF08BD00BF6819002030B5184C3E
:107960008DB00022002303A9204619F0B3FC08B112
:107970000DB030BD059DDDE9030100F057F8B5FA03
:1079800085F56D09FF238DF8183007908DF820508C
:1079900021F02FF94FF47A72A0FB020302FB0131B0
:1079A000C00B40EA4140C90B8DE8030006ABCDE9AE
:1079B0000A010FCB00F07EF81AF0EDFDD1E700BF11
:1079C0005C0B00201FB583F00103CDE90112039386
:1079D0000022002301A9044819F026FC034819F0ED
:1079E00045FF05B05DF804FB5C0B00206C1900201E
:1079F00010B519F0EFF9044678B10949094820F0AB
:107A000026FFA36808491B6820469847A3689B681F
:107A10000BB120469847002010BD6FF01500FBE722
:107A20005D7902006C190020C57902000A2303FB6E
:107A30000011024B53F82100704700BF7C940400F2
:107A40002DE9F041134B144EA3EB060807460D46F3
:107A500006EBC106C8F3C708A84506DC0024384673
:107A600021F06DFA2046BDE8F08132683B689A4209
:107A70000BD13D71736838461B689847012804464E
:107A8000ECD0022804D00028E9D101350836E3E71C
:107A90000024E7E7CCB10400B4B1040010B50446FB
:107AA0000C2021F053FA024A0260047210BD00BF9C
:107AB0001495040084B070B504AC84E80F00202055
:107AC00021F044FA0446084B44F8083B04AD06464E
:107AD0000FCD0FC495E8030084E803003046BDE8ED
:107AE000704004B0704700BF189504000268034B53
:107AF0009A420CBF08300020704700BF1895040060
:107B000010B504460C2021F021FA024A02600472EA
:107B100010BD00BF2095040082B038B504A981E8EB
:107B20000C000546114819F055F90446A0B16B68E0
:107B3000012B0CD0022B05D0A3B9BDE8384002B010
:107B40001AF041BD1AF046FD00282046F5DCBDE8DC
:107B5000384002B01AF030BD6FF00400BDE8384084
:107B600002B070476FF08500F8E700BF19AC040061
:107B700082B010B502A981E80C0004460B4819F048
:107B800029F978B16368022B04D00020BDE81040C9
:107B900002B070471AF01EFD0028CCBF0020012063
:107BA0006060F2E76FF00400F0E700BF19AC04007A
:107BB00010B504460C2021F0C9F9024A0260047293
:107BC00010BD00BF54950400014819F04FBE00BF1E
:107BD0007002002037B50F4CA5682C21EB682046B9
:107BE0009847A0B92C212B696A462046984770B95E
:107BF000094C009B22789A4209D0D8B2207000F03C
:107C000021FD20B92078FFF7D3FF1AF0C4FC03B0A0
:107C100030BD00BFC4900400353B002013B50B48B5
:107C200020F0E2FB70B1FFF7D5FF044638B94FF4FE
:107C3000F01200230648CDE900231AF0B5FB2046D8
:107C400002B010BD6FF01204F9E700BFC490040049
:107C5000480A002010B504460C2021F077F9024AAA
:107C60000260047210BD00BF589504001FB51024B7
:107C70000294044C0194BDF8184000941FF073F86E
:107C800004B010BD493B002007B5064B00930649E0
:107C9000064805234FF4247219F0EEFD002003B0CE
:107CA0005DF804FB60950400303C0020880D002046
:107CB00070B50F4D0F4E8AB000220023694628464A
:107CC00019F008FB044608B10AB070BD214618221D
:107CD00004A81CF001FF10230DEB030120460596BC
:107CE000CDF818D0ADF81C3006F0CEFBE4E700BFAD
:107CF0002C0B00207C9504001FB50E490E4840F661
:107D0000CD42002319F090FA044670B110F10B0F28
:107D100008D1002200236946074819F0DBFAFFF773
:107D2000EBFF0446204604B010BD0449044820F08F
:107D300097FDF7E7493B00202C0B00208002002034
:107D4000880D0020C208054900F007000123834088
:107D5000885C03438B54FFF7CFBF00BF493B002033
:107D600010B4C108054C00F00700635C012282409A
:107D700023EA0203635410BCFFF7BEBF493B002057
:107D800008B5B1FA81F0044B40091870FFF762FFA3
:107D9000BDE808401AF0FFBB593B002070B50378DE
:107DA0008AB004460E4607AD032B20D8DFE803F067
:107DB00002191B1D114928461CF042FE05956378E7
:107DC0000493A3780393E37802932379019363796F
:107DD0000093A3790A4A1E2130461AF080FD0AB0AA
:107DE00070BD0849E7E70849E5E70849E3E7084ABD
:107DF0000A2128461AF073FDE0E700BF8EAC0400AC
:107E0000B7AC040095AC04009CAC0400A6AC040024
:107E1000B0AC040000B589B01DF0B1FE6946FFF7B3
:107E2000BDFF054B00201870FFF714FF1AF0B3FBDD
:107E300009B05DF804FB00BF593B002070B500207D
:107E400088B003F037FC0646B8B901F005FE0C48CF
:107E50000C4D01F027FD0C4801F024FD0B4804F007
:107E60002BFE0FCD03AC0FC42B682360084900968E
:107E70003346032203A804F01DF9304608B070BD54
:107E8000DAAC0400D0930400DEAC0400B802002099
:107E9000F4950400024B1870024819F0E7BC00BFCB
:107EA000D9090020D802002008B5044801F0E0F903
:107EB000002818BF6FF0150008BD00BF957E0200B6
:107EC000084B1B78033B082B08D8DFE803F00509B3
:107ED00005050707070709000220704701207047C2
:107EE00000207047D90900200148FFF781BD00BF7D
:107EF000E1AC040010B5094C0A44914200D110BD18
:107F000011F8013B584003090001E35CC0B2434053
:107F100018091B01205CDBB25840EEE7E7AC040017
:107F20000B6801330B60014B1B681847E802002007
:107F300007B50B46002102460191034801A900F054
:107F400027F903B05DF804FB217F020030B585B04E
:107F5000CDE901010446002501A90548039500F07B
:107F600017F9DDE902309842B8BF255405B030BD9D
:107F70009F2804002DE9F047058B0446280790460A
:107F800011D4022905F0070540F0CD8020461AF0F3
:107F9000CEFC78B10138218B042811D8DFE800F03D
:107FA000C3106D85950001290CBF45F0100545F003
:107FB0002005258388F31188BFF36F8FBDE8F08714
:107FC00001F0070AAA4500F0A6800027B9463E4600
:107FD000A368002B00F0BD8041F00801218388F3E5
:107FE0001188BFF36F8FA168002900F0BB800D6876
:107FF000002900F0B780D1F804803346524620466D
:10800000C047002D76D02B6829461D46F0E701F0C9
:1080100007035A1F012A1BD8002221F00701062B53
:10802000276889B2C4E9002209D13B4603E0628B8C
:108030001B6801326283002BF9D141F002012183D8
:1080400020461AF074FC00287BD041F0200177E034
:10805000042B0AD121F0070189B2218320461AF0AE
:1080600066FC10B141F020012183218B01F0070A49
:10807000AA4550D00027B946AAE7236921F0070195
:1080800041F00601062DD3F8009021832DD1B9F1DE
:10809000000F40D041F00801218388F31188BFF31D
:1080A0006F8F3A492046C84729E021F0070123692C
:1080B00041F0040189B2042DD3F804902183E6D065
:1080C00000273E464FF0040A82E721F007012369AA
:1080D00041F0050189B2052DD3F808902183D6D04F
:1080E00000273E464FF0050A72E700273E464FF054
:1080F000060A6DE72B4687E7B9F1000FD1D14FF0A3
:108100002003EFF3118883F31288BFF36F8F238B63
:1081100023F008032383258BEA062ED525F01003D0
:10812000238305F007056669218B002EBFF66FAF2C
:1081300000232768C4E9003321F0070141F0010161
:108140002183218B01F0070AAA454FF000097FF433
:108150003FAF002F9BD041F00801218388F31188A5
:10816000BFF36F8F002FC7D03D6839463346524664
:1081700020461AF008FC2F46F4E7AB067FF51AAF4D
:1081800025F02003238305F00705FFE6B32904004B
:108190002DE9F04F8DB01D46531E82460191039389
:1081A0004FF00009039B5878252803F1010419D1E9
:1081B0001E4600204FF0FF38023603460290444628
:1081C00031780396392954D81F2914D8002900F092
:1081D000F08101992520D04701993078D04709F1E5
:1081E0000209DFE7002800F0E4810199D04709F196
:1081F00001090394D6E7A1F12002192AE9D801A7C1
:1082000057F822F06D820200D3810200D381020070
:108210006D820200D3810200ED820200D381020050
:10822000D3810200D3810200D3810200398302008E
:108230006D820200D38102004D830200F9820200A8
:10824000D3810200078302002783020027830200F4
:10825000278302002783020027830200278302006E
:108260002783020027830200278302000846013685
:10827000A6E7582900F0EE80A1F16302D7B2172FCC
:10828000A7D8172AA5D801A757F822F0FB84020027
:1082900073830200D3810200D3810200D3810200E4
:1082A0005383020073830200D3810200D381020052
:1082B00053830200D3810200D3810200D3810200E4
:1082C0002F840200D3810200D3810200CF840200F8
:1082D000D381020073830200D3810200D3810200A4
:1082E0002F840200D38102005383020001992520CC
:1082F000D04709F1010955E7029A02F0FE02029205
:108300004FF00008B3E7002C0DDAB8F1000F0DDADA
:10831000029A002A00F0458124EAE4740A2202FB52
:108320000414303CA3E7B8F1000FF5DB0A2202FB8E
:108330000812A2F130089AE7B8F1000F55F8042BA3
:1083400080F23181002A80F230815442022202926E
:108350008DE7682903D1682B06D1482387E76C296C
:1083600002D16C2B00F02381002B7FF432AF0B463F
:108370007DE77A2B06D1752955F8046B14D14FF09F
:10838000000B0CE06C2BF6D04C2BF4D1073525F00C
:1083900007037529D3E9006B03F1080506D12028EE
:1083A0003ED1864F013C09E04FEAE67BBBF1000F6E
:1083B000F5DA7642824F6BEB4B0B013C0DF12D034E
:1083C000059300230493304659460A220023FDF703
:1083D00097FE049B03F1FF3CCDF810C0DDF814C0FC
:1083E00030320CF8012DCDF814C0B4465A46BCF119
:1083F0000A0F72F1000206468B46E4D2C3F1010B6C
:1084000030330DEB0306B8F1000FA6F104066DDA68
:10841000029BD9077CD4A8EB0B03A4EB0B0413E05D
:108420002B280ABF674F684F04F1FF34C6E7702955
:108430000FD155F8042B0023FAB9644E053C6FF0B8
:1084400004034FF0050B604F029A92076FD4A046C9
:1084500065E078216C2B03D155F8042B002308E04C
:108460004C2BF9D1073525F007031D465B6855F8FD
:10847000082B232825D1880621D5554F023C01F031
:108480006001A1F1390B0DF12D0E002602F00F0154
:10849000092988BF594430310EF8011D102A4FEACE
:1084A000121141EA03714FEA131073F1000306F150
:1084B000FF3C08D2C6F1010B06F13003A1E7454F9E
:1084C000DCE7414FDBE766460A460346DEE755F840
:1084D000046B30461CF0BEFAB8F1000F834602DB95
:1084E0004045A8BFC346384F4FF00008A8EB0B0328
:1084F000002B92DDA4EB0804A6E755F8043B8DF8A9
:108500001830013C4FF0FF334FF0010B06AE9AE7F5
:10851000A046EBE7029301992020D047029BB8F1D7
:108520000108F7D524EAE472013C9144A41AB84644
:1085300006E0049302920199D047029A049B904668
:10854000424612F8010B0028F3D11A46013A15D51C
:10855000002BACBFC7EB03077F425B46013B15D541
:10856000BBF1000FA8BF5F444F442646013E14D51F
:10857000002CA8BF3F1907EB080913E604930292E9
:1085800001993020D047049B029ADFE702930199BA
:1085900016F8010BD047029BE0E701992020D04755
:1085A000E4E70122D3E6904661E614465FE64C23F9
:1085B0005DE648460DB0BDE8F08F00BFF9AC0400A1
:1085C000F7AC0400FBAC040031AD040003AD0400C3
:1085D000FDAC040000AD040008B54FF02002EFF33D
:1085E000118382F31288BFF36F8F02F079F803488A
:1085F0001AF068F901F072FDFCE700BF09AD040054
:108600001FB507240294044C0194BDF8184000944F
:108610001EF0A9FB04B010BDDA09002010B5084C0B
:1086200086B024788DF81740012402940DF11704C8
:108630000194BDF8204000941EF095FB06B010BDDB
:10864000E109002000B589B064288DF8070019D829
:108650000E4B18221870002102A81CF03DFA0C4B9A
:1086600003930DF10703049302A901230020ADF841
:10867000143005F009FF10F1800F08BF002009B089
:108680005DF804FB6FF01500F9E700BFE109002079
:10869000AC9604002DE9F7430F4606460821C06A50
:1086A000DFF850901AF0B7FC3C68241A80463C6012
:1086B00004EA0905AC4203D8002003B0BDE8F0830A
:1086C00008236A46214630461AF01AFC0028F4D1E5
:1086D000694630461AF0A9FC40B1BDF80230BDF839
:1086E00004203C6005EA090513441D44A4EB08047A
:1086F000E0E700BF0000FFFF2DE9F047044688B027
:108700000D4600F1140738461FF048FF284618F0C0
:1087100061FBA062002800F052818368DB68984703
:10872000E06228B96FF01505284608B0BDE8F0876B
:10873000A06A8368DB6898470368013B1F2BF1D868
:10874000A06A216805AA1FF002FB0028EAD1A589CA
:10875000002DE7D0069BB5FBF3F203FB1255002D6D
:10876000E0D1E389012BDDD9E36A009593F8049009
:108770004FF0FF334FF0FF32384618F005FEE06A45
:1087800008211AF048FCA8460646E3891FFA85FA34
:10879000534508D8E389434523D1384618F06CFE89
:1087A0006FF02C05C0E7A1892B04891B13FA81F116
:1087B0004A460823204600911AF0DAFB78B1E08996
:1087C00069461AF01DFC08F10108009908234A4681
:1087D00020461FFA88F81AF0CBFB0028DAD00135C2
:1087E000D3E753450BD1009908234A46891B2046FD
:1087F0001AF0BEFB18B9E08969461AF001FC694617
:108800002046FFF747FF054618B1384618F034FEFA
:108810008AE7009B63604FEA13484FEA0848C4F8B0
:108820000880D4E9011399420FD3082301AA2046F6
:108830001AF066FB05460028E7D101AB13F8012BBF
:10884000914533D10135082DF8D16368E0891B0CBF
:108850001B04694600931AF0D3FBA38900994A468A
:1088600020461AF085FB051ECFDB636874D006EB4B
:1088700003084FF6FF79A389CDF800801FFA88F22C
:108880009B1B9A422CD300236168002B41D0090C1A
:108890000904E089009169461AF0B2FB009920466C
:1088A0001AF08BFB0546002D72D0AEE701A92046D9
:1088B0001AF0BBFB626810B9921B6260B1E7BDF8A9
:1088C0000850BDF80610E06A29441AF0A4FB4044A1
:1088D0009042A060F0D1002DEED06FF01C0568E052
:1088E000082303AA414620461AF00AFB0546002841
:1088F0008BD103A920461AF098FB30B1BDF80C309B
:108900004B4502D1BDF810300BB1B044B3E70123A1
:10891000BAE720461AF051FB054600287FF475AFF0
:108920006368284AA18913400B44A3EB46036360A4
:108930001340A36020461AF05AFCB3E75B1A4A467C
:1089400020461AF015FB051EFFF65FAF08D0E26A5D
:10895000A36812681344A360D4E901318B42EDD8B7
:108960006168A38901EB46029A429CD1DFF85480EA
:10897000A26801EA08039A4295D020461AF01DFB2E
:10898000054600287FF441AF636803EA0803A3604B
:10899000A389A288A3EB46039A4206D0384618F072
:1089A0006BFD012323740025BEE620461AF00AFC65
:1089B0000546384618F060FD002DF2D0B4E66FF0A1
:1089C0000505B1E60000FFFF2DE9F04F1D46037CD1
:1089D00089B0044689469046002B00F0BD80C26AEB
:1089E000082110461AF017FB2946824610461AF055
:1089F00012FBA389A3EB8A039D42074600F2AF80D6
:108A00001DB1B8F1000F00F0AA806368039304AAB7
:108A100003A92046DDF80CB01AF03FFB06460028FB
:108A200065D1BDF810304B4505D06268039B9A4272
:108A3000EDD1E5B95BE004A920461AF0F6FA00286A
:108A4000F3D0BDF81200BDF8143075B19D420ED1BF
:108A50004FEA1B41090401442B46424620461AF0C6
:108A60005DFA002803DC064641E0002B3FD0002FD2
:108A700041D104F1140301934FF0FF324FF0FF3363
:108A800004F1140018F080FCDFF8D8B0E3899E42AE
:108A90005FD0D4E90123F9188A422FD3ADF81A30F8
:108AA00006A8FF238DF81E30ADF81890ADF81C50C5
:108AB0001AF09DFAA1682B46424620461AF037FB71
:108AC00029468246E06A1AF0A6FAA2680244A26029
:108AD000BAF1000F07D106A920461AF062FB002860
:108AE00014BF8246AA46019818F0C6FC5646304686
:108AF00009B0BDE8F08F5744BFB2BAE70821E06A79
:108B00001AF089FA4FF6FF73ADF818300023ADF86C
:108B10001C301318ADF81A30A38902EA0B021A446C
:108B2000101A606006A81AF062FA06A920461AF028
:108B300038FBE089211D1AF063FA636803EA0B032E
:108B4000A36020461AF053FB82460028CBD10136A1
:108B50009CE76FF01B0AC6E76FF00C06C7E76FF0E3
:108B60001506C4E70000FFFF0C4BF0B45F6A0C4E23
:108B70000C4BB34203D36FF08500F0BC70475D68C7
:108B8000BD4209D31C693CB195F802C00579AC45DA
:108B900002D12346F0BC18472433EAE77C190020B1
:108BA000810D0020810D00202DE9F047134CDFF8E6
:108BB0005080DFF8509005460E461746444503D3D3
:108BC0006FF08500BDE8F0876268D9F824309A42DA
:108BD00012D3A36983B190782979884205D13A46A6
:108BE00031462846BDE8F04718475279012A03D19B
:108BF0003A463146284698472434DFE7810D002065
:108C0000810D00207C1900202DE9F0410B4CDFF88C
:108C1000308005460E461746444502D36FF0850066
:108C200009E063690BB92434F6E73A463146284631
:108C300098470028F7D1BDE8F08100BF810D0020E2
:108C4000810D002007B583788DF8003003794279D3
:108C500043EA0223ADF80230C378684603F0030309
:108C60008DF8043014F0FEFD10F1780F04D018B127
:108C7000002003B05DF804FB9DF8000014F078FEBE
:108C800010F1780F01D00028F2D1024B012083F8B7
:108C9000B900EEE77C1900200248082200211BF0F1
:108CA0001BBF00BF371A002070B50B4B0B4CA34203
:108CB00001D3002070BD196A1E7F00220439D5B28D
:108CC000AE4201D82433F2E7013211F83250854226
:108CD000F5D10120EEE700BF810D0020810D0020BD
:108CE000094808B50378C3F341130A3350F8233019
:108CF0003BB100F1080200F110019847C043C00FDA
:108D000008BD1846FCE700BF7C19002004282DE9A7
:108D1000F047DFF88C8004460E4613D1FFF7BCFF06
:108D2000204B93F8B930ABB100F0F2FC1E4D454535
:108D300026D2D5F8209000272A7FFBB29A4217D876
:108D40002435F4E7052810D1164B93F8B9300BB150
:108D500000F0DEFC144D454517D3124B1B6AE3B1FE
:108D600031462046BDE8F04718470128F2D1D7E741
:108D700009EBC3030137187914F024FE0028DBDA6D
:108D8000084B002283F8B920E4E7EB681BB13246B8
:108D90002146284698472435DDE7BDE8F08700BF27
:108DA000810D00207C190020810D002073B5C4B214
:108DB00063060D468DF8074007D02046FFF774FF85
:108DC00078B10D4B93F8BA0058B10B4E204655B10F
:108DD00014F06AFDF3691BB10DF1070108209847F3
:108DE000012002B070BD14F087FDF369002BF7D0AD
:108DF0000DF107010920F2E77C1900202DE9F04769
:108E0000A44EB36904460F461546FBB9237803F018
:108E10001F03012B00F09D80022B00F0078133BB64
:108E200094F900002A686178002834DA062912D003
:108E300008292BD0D9B901231370517096F8C3308B
:108E40005B0043F00103137002232CE198470028D4
:108E5000DCD100200DE06288100A011F0129844640
:108E600005D9072803D8716AD2B20C781CB96FF003
:108E70001500BDE8F0874E78664503D19A4200F0B0
:108E80000D8101332144F0E70B780CE196F8BA30FC
:108E90001370012307E101390829E8D801A353F829
:108EA00021F000BF3D8F02006F8E02004B8F020049
:108EB0006F8E0200C98E02006F8E02006F8E02005C
:108EC0006F8E0200D58E0200A07814F0B9FC002845
:108ED000BFD0CCE76388756A63BBFFF7DDFE6388AC
:108EE00086F8BA30F369002BB3D06B49032098475A
:108EF000AFE76B78042B10D0052B11D0022B04D1D7
:108F00006F796388BB4208BF01202B781D442B7802
:108F1000002BEED10028AAD0DFE795F80380F4E714
:108F20006388BB42F1D1B8F1000FEED12846FFF7BC
:108F300089FEEAE7FF270020B846E8E76388012BAF
:108F400095D1002386F8C33083E76388012B8ED147
:108F5000F8E796F8BA30D5F800C0002B87D0756ACC
:108F6000A38894F804E02A46107800283FF47FAFE5
:108F70005178022904D192F80480F04500F29580DE
:108F80000244F1E78CF800208CF80120396060E79A
:108F9000154496E00B2A7FF46AAF00274FF0FF08D4
:108FA000C146BA4606E06B78042B0FD0052B21D0C2
:108FB0002B781D442B78002BF5D1F36913B1514662
:108FC00007209847002F7FF444AF50E795F80280C0
:108FD000A38895F803909845EAD163889945E7D12D
:108FE000B8F1070F1FD806EB0803AA4683F8BB9019
:108FF0000127DDE7A3884345DAD1A3784B450DD09F
:10900000AF78384600F066FB384614F0DBFC10F110
:10901000780FEDD0B0FA80F77F09C9E72846FFF74F
:1090200011FE0746C4E7AA460027C1E794F90020CD
:109030006378002A18DA002B7FF419AF24792D68A1
:1090400063060AD02046FFF72FFE00283FF40FAF3B
:1090500096F8BA30002B3FF40AAF2946204614F0A8
:109060006BFC00236B70EFE6012B08D0032B7FF421
:10907000FEAE6388002B7FF4FAAE012103E0618825
:1090800000297FF4F4AEA088FFF790FE00287FF45B
:10909000E0AEECE67C190020361A00200228296098
:1090A0007FF4F2AE4B883B60D3E694F9000062781F
:1090B0000028BFF66FAF002A3FF464AF0A2A7FF49E
:1090C000D6AE2A78002A3FF4D2AE697804297FF41C
:1090D0005FAFA9788B427FF45BAF072B96BF9B19DC
:1090E000002393F8BB308CF80030D2E613B5134C54
:1090F000237DCBB9E268A168019201AB80201AF010
:10910000AEF9019AA3681344A360E3689B1AE36075
:1091100043B93AB12369E2889A4203DD9B0601D143
:109120000123237502B010BD00231A461946802082
:10913000237502B0BDE8104014F06ABC7C19002011
:1091400030B585B0002302460D460193002858D162
:10915000002935D108220B460DEB02011EF056FC0A
:10916000002804DA802014F09FFB05B030BD2A4CA3
:10917000029A2260039A626004F13802A2609DF9AB
:109180000820BDF80E302575002AC4E903550ADB16
:10919000802B04D9802014F087FB0020E3E713B173
:1091A000C4E90333E1E7FFF79BFD0028DAD0E2884A
:1091B00023699A42D4BFE260E360FFF797FFD4E7E8
:1091C000154CD4E90215002D01AB04DC1EF01EFC89
:1091D0000028CADAC6E72A461EF018FC0028D9DBA8
:1091E000019AA3681344A360E3689B1AE360002B11
:1091F000BBD104F13803A360FFF772FD0028DCD176
:10920000B0E78028B1D1044BDA68002AD5D11B7DA4
:10921000002BD2D1A9E700BF7C190020054B064ADC
:109220009A62064ADA62064A1A63064A58629A61E4
:10923000002070477C190020FD8D0200698B020020
:10924000098C0200A98B0200084B10B593F8B840B6
:1092500034B900F0CBF830B1FFF7E0FF204610BD85
:109260006FF07700FBE74FF0FF30F8E77C19002044
:109270002DE9F3410446354D35484FF0FF324FF0AC
:10928000FF3318F081F895F8B860002E5BD13148B3
:109290002C62E86114F0D6FC14F094FA041E36DB5C
:1092A00000F05AFA041E32DB40236846ADF8023063
:1092B0008DF804608DF8006014F0D4FA041E26DBEB
:1092C000802768468DF8007014F0CCFA041E1EDB6F
:1092D0002149304614F0A2FC041E18DB1E49384612
:1092E00014F09CFC041E12DB1C4CDFF87480444517
:1092F00014D3002014F03CFB041E08DB802014F083
:1093000037FB041E03DB012385F8B8300024104826
:1093100018F0B2F8204602B0BDE8F081276A0026B6
:10932000227FF3B29A4201D82434E0E707EBC3026C
:1093300057F83310107914F071FC01360028EFD083
:109340004FF0FF34E3E76FF07704E0E77C1900208B
:10935000180B00200D8D020041910200810D0020AC
:10936000810D002030B51F4B8BB005AA03F110050D
:1093700018685968144603C40833AB422246F7D133
:109380001B7823701022002101A81BF0A5FB1222DC
:10939000002115481BF0A0FB102101A81EF040FC85
:1093A00000281BDD0828B8BF0820093801AB0E498A
:1093B0001A18002012F8013F0AAC04EB131403F052
:1093C0000F0328336B44013014F8144C13F8143C89
:1093D0000C7008284B7001F10201EBD102480BB070
:1093E00030BD00BF4DAD04005A3B00202DE9F04FC9
:1093F000644C85B000264FF0011BB1463546B2469D
:1094000023782BB9604B02349C42F3D15D481CE0B9
:109410006378052B05D8DFE803F07B04037B072581
:10942000A24623781C44EBE7E378002BF9D1A3781C
:1094300073B109F101095FFA89F9F2E76A689442A8
:1094400009D024359D42F9D3002005B0BDE8F08F46
:109450004E4D4F4BF6E7AB68002BEAD0494620460D
:109460009847E6E7002DEFD0002301212A7F9342A1
:10947000EAD22A6AA77802EBC3021079874201D0A8
:109480000133F3E70127E07800F003008DF80C00CA
:10949000207994F805C040EA0C20ADF80A0094F950
:1094A000020000285FFA87F827DA07F1100001FAB6
:1094B00000F010EA0B0F27D148F080008DF808006B
:1094C00002A8CDE900321EF089FADDE9003201215F
:1094D000D0B99DF80830A37013F0800F18BF08F1C1
:1094E0001008137118BF5FFA88F80B460CBFBB4019
:1094F00001FA08F34BEA030B93E701FA07F010EACD
:109500000B0F01D14046D9E70137102FBBD1B7E788
:10951000032E1DD1FFF726FF074668B11BF09AFA0C
:10952000804648B11B481BF095FA804504D142465D
:109530003946A01C1BF0C5FA23786FF00201E2182F
:10954000091B04EB5303D14213D50136F6B268E789
:10955000002EF1D1BAF1000F3FF476AFA4EB0A036D
:109560008AF80230C3F307238AF803308AF804909C
:10957000EBE74FF0000002F8010C13F8010902F8C4
:10958000020DE0E7240D0020810D0020810D002058
:10959000810D00204DAD040010B5094B00211A4685
:1095A0001C78844205D15C681CB1482303FB012070
:1095B00010BD0131042903F14803F1D10020F7E780
:1095C000401A00202DE9F34150F8303C10F8346C7B
:1095D0001033044610D1036950F8282C99073CD564
:1095E00002BB13F0040304D11A461946304619F0A1
:1095F00036FF002344F8303C54F8303C10330ED092
:1096000054F8205C5DB154F8247C54F81C8C1EF096
:10961000ABFF00284CD02E4821461FF021F902B0A4
:10962000BDE8F08150F82C1C01AB304619F017FF53
:1096300010B16FF01503DDE7019A54F82C3C134488
:1096400044F82C3C54F8283C9B1A44F8283C54F825
:10965000243C134444F8243CCEE750F82C1C01ABC6
:10966000304614F051FA0028E3D1019D54F82C3C07
:109670002B4444F82C3C54F8283C5B1B44F8283C11
:1096800054F8243C2B4444F8243C002DB1D03046FF
:1096900014F0DEFAB5FBF0F303FB1055002DA8D152
:1096A00054F8283C002BA4D0304614F075FAA3E7F8
:1096B00044F8200CA4F1180017F054FF54F8303C83
:1096C0008C33ACD0424639463046A847A7E700BFA6
:1096D000C018002010B54FF02003EFF3118483F37E
:1096E0001288BFF36F8FFFF757FF50B143681033F5
:1096F00007D16FF08B03436000F1340103481FF082
:10970000AFF884F31188BFF36F8F10BDC01800202D
:1097100070B50F4C04254FF02003EFF3118683F34F
:109720001288BFF36F8F6368103307D16FF08B031C
:109730000848636004F134011FF092F886F3118841
:10974000BFF36F8F013D04F14804E4D170BD00BF49
:10975000401A0020C018002070B50A4C0A4E00259F
:10976000314620461FF073F80122A4F1180011467B
:1097700001351EF0ECFF042D04F14804F0D1002067
:1097800070BD00BF741A0020C59502000C4B1B6809
:1097900070B593B10B4A15680022AA4202DB6FF044
:1097A000010070BD1C4614F8106B864202D00132D5
:1097B0002346F2E70B600020F3E76FF00C00F0E7C0
:1097C00024030020E896040070B588B005460C46D6
:1097D000C0B269461646FFF7D9FF00281FDB009B81
:1097E000EBB15A6802929A682168D8680195CDE970
:1097F00003260022CDE90612059217F0EBFA054682
:10980000009819F044FE6DB12846084901AA1EF0DF
:10981000A2FA079808B9059B236008B070BD6FF0E5
:109820001500FAE76FF01200F7E700BF913404006B
:10983000104B2DE9F0411C6805460E461746ACB1A9
:109840004FF0FF324FF0FF330B4817F09DFD636878
:109850003246D3F8088029463B462046C047044696
:10986000054817F009FE2046BDE8F0816FF00104BD
:10987000F9E700BF601B0020040B002000230360F9
:10988000044B5A6812B9C3E9000070471060586071
:10989000704700BF641B0020014B1860704700BF79
:1098A000601B002030B585B000230546CDE90233AA
:1098B00001904FF0FF330C484FF0FF3217F064FD7A
:1098C0000A4B1C684CB9284600F08EF8044606483E
:1098D00017F0D2FD204605B030BD636820461B68F6
:1098E00001A998472468EDE7040B0020641B0020C1
:1098F0001FB5CDE9010103924FF0FF330A484FF045
:10990000FF3217F041FD094B1C682CB9064817F0CF
:10991000B3FD204604B010BD636820461B6801A952
:1099200098472468F1E700BF040B0020641B002067
:10993000024B0022C3E90022704700BF641B0020D5
:10994000024B0022C3E90022FFF7F2BF6C1B00208C
:109950002DE9F74307460C4609B100230B601F4D64
:10996000DFF87C9000264D450FD31E4B1D6885B354
:1099700055F8148C01AA41463846143D19F0ACFD47
:1099800010B3D6B914BB2E461EE0D5F8008001AA4C
:109990004146384619F0A0FD50B116B954B92E46CB
:1099A00006E031680022404619F096FD0028F5D106
:1099B0001435D8E7019B2360F1E731680022404667
:1099C00019F08AFD0028DDD16D69D0E7019B236085
:1099D000D9E7304603B0BDE8F08300BF0893040028
:1099E000809304006C1B0020F8B5184C184F0646F5
:1099F0000025BC4208D3174B1C682CB3143CB6B9E5
:109A0000E368E3B96469F8E72EB9E3685BB928460F
:109A100014340546EDE720680022314619F05CFD5C
:109A20000028F2D1F3E79847002DF0D1F0E7206845
:109A30000022314619F050FD0028E1D1E2E79847B5
:109A4000002D08BF0546DDE72846F8BD0893040051
:109A5000809304006C1B002010B5074C23780BB1D9
:109A6000002010BDFFF76CFF00F066F80028F8D169
:109A700001232370F4E700BF6C3B00202DE9F04781
:109A8000048FDFF8B0A0013498B080468946A4B2B4
:109A900000F10806651EADB2B5F5004F47D04A2368
:109AA00005AA2946304619F0D3FC04F57F543F340B
:109AB000A4B20746214601230DF10B02304619F0EE
:109AC000C7FC002F014603DC002803DC2C46E1E73D
:109AD000002816DCB8F83830AB4209D142466B1E7C
:109AE00022F8383F4FF4004102233046FEF76CFF66
:109AF0002946304619F048FC2146304619F044FC0E
:109B0000E4E707F160030DEB0307002307F84C3C83
:109B10005246CDF8009003AB05A80396ADF810406F
:109B200019F010FD0028D1D018B0BDE8F087002052
:109B3000FAE700BFAF3504007FB501236946022074
:109B40000193FFF723FE0446002834D102AA01A99D
:109B50000220FFF739FE10F1130F04462BD038B165
:109B60000C3405D0404080F311884FF0040002DF30
:109B70000399B1F5803F23D2009A002394681846D8
:109B8000084484421AD30133082BF9D10E4DEB82DD
:109B90005368AB602846D368A982EB6319F0A1FD36
:109BA000044640B9094E6E602846FFF767FE284616
:109BB0006E60FFF771FE204604B070BD9BB2E5E712
:109BC0006FF02004F7E700BF741B0020280300207B
:109BD0002DE9F84305464FF02003EFF3118683F398
:109BE0001288BFF36F8F0E4B0E4F1C68DFF8388062
:109BF0004FF00C092CB986F31188BFF36F8FBDE8C5
:109C0000F883D4E90123002D18BF13462BB198F82F
:109C1000142009FB02F2B85C98472468EAE700BF09
:109C2000C41B0020B81B0020AC3A00200A4ABFF336
:109C30005B8F430902EB830200F01F000123834086
:109C4000DB4352E8000F184042E800010029F8D138
:109C5000BFF35B8F704700BFB41B00207FB51C4B68
:109C60001C7DBFF35B8F04F01F0301229A40194B48
:109C7000610903EB8103D04353E8001F01EA0005AB
:109C800043E80056002EF7D1BFF35B8F0A4217D08E
:109C9000114D0C2202FB045207CA01AB83E80700F6
:109CA0000E4A7AB193E807001AF032FF0020FFF75E
:109CB0008FFF0C235C432A1900232B51C2E9013387
:109CC00004B070BD82F31188BFF36F8FEEE700BF61
:109CD000AC3A0020CC1B0020B81B0020114B040024
:109CE0002DE9F043354B364A1C7DBFF35B8F63098A
:109CF0004FEA830852F82330324DBFF35B8F04F0F4
:109D00001F0943FA09F313F0010F85B007460AD182
:109D10000146204600F076F828B107C80C2303FB63
:109D2000045383E807000C236343EA18EE5C36B95A
:109D30002046FFF77BFF304605B0BDE8F0837B1C73
:109D400010D0D2F808C0204E204A4FF40040002125
:109D5000ECFB006100233046FCF7D2F90121381AF0
:109D60001EF027FF18F030F80120FFF731FFBFF396
:109D70005B8F174B9844012303FA09F358E8002F2F
:109D80001A4348E800210029F8D1BFF35B8F0C2368
:109D900003FB045595E8070001AB83E807000D4A73
:109DA0001AB193E807001AF0A0FEFFF757FF20460C
:109DB000FFF73CFF18F01CF80120BDE7AC3A00208B
:109DC000B41B0020B81B00203F420F0040420F0090
:109DD000CC1B0020EB4A0400054BBFF35B8F53F80C
:109DE0002000BFF35B8FB0FA80F04009704700BFDE
:109DF000D01B002008B9024B0B600020704700BF49
:109E00002C9704002DE9F74F0F4601A9FFF7F2FF49
:109E1000441E24B204EB4404DFF860900546A4001D
:109E20004FF4004825B92E46304603B0BDE8F08F08
:109E3000019B185D1E19FFF7CFFFD8B17068104A5B
:109E40004FF0000ACC465146E0FB08C100236046B3
:109E5000FCF756F98346B068094ACC465146E0FB08
:109E600008C100236046FCF74BF97B1CDCD058444A
:109E7000B842D9D9013DADB20C3CD3E73F420F0007
:109E800040420F00014B1868704700BF38030020A4
:109E9000F0B5082289B019F0F6FDCB6A03930B6B7D
:109EA00004934B6B05938B6B0693CB6B0793134615
:109EB0006A460C460646002711461046CDE9017752
:109EC000009719F0EEFC31460546304619F0E9FCE2
:109ED000216B0391616B0491A16B0591E16B0544CA
:109EE000CDE906171046114619F0DBFC3146054452
:109EF000304619F0D6FC0544206A0090606A019053
:109F0000A06A0290A06B0690E06B07903046CDE906
:109F10000477039719F0C5FC0544606A0090A06AB5
:109F2000D4F838C00190E06A0290CDF810C0606BA0
:109F3000D4F83CC00390CDE905C0206A07903046B4
:109F400019F0AFFC0544E06A0090206B0190606B53
:109F50000290206A0690A06A07903046CDE9047707
:109F6000039719F0C3FD236B0093636B0193A36BFD
:109F70000293E36B0393636A0693E36A07932D1AD4
:109F80000823304619F0B2FD636B0093A36B019375
:109F9000E36B0293236A0393636A0493A36ACDE994
:109FA0000537236B07932D1A0823304619F09EFDC1
:109FB000A36B0093E36BCDE90137636A0393A36A54
:109FC0000493E36A0593636B07932D1A08233046C5
:109FD00019F08CFD2D1A10D40D4C35B908223146DC
:109FE000204619F05CFD01280FD008232246314697
:109FF000304619F07BFD2D1AEFE7054A082331465C
:10A00000304619F04EFC2D18F8D409B0F0BD00BF51
:10A01000309704000449431E0F3013F8012F8A5C67
:10A020001A708342F9D1704771AD0400F0B5264E25
:10A0300007460C460FCE8DB001AD0FC50FCE0FC534
:10A0400096E8070085E807003846002F38D0002C36
:10A0500038D0381F2146024610344B780D781B0447
:10A0600043EA0563CD782B438D78043143EA052319
:10A070008C4242F8043FF0D1144C04218A07036952
:10A0800016D1C3F30742A55C1A0EA25C42EA056230
:10A09000C3F30725DBB2655DE35C42EA054242EAB1
:10A0A000032221F0030330336B4453F82C3C53401C
:10A0B00050F8042F013153402C290361DED10120D7
:10A0C0000DB0F0BD2046FBE7E493040071AD040041
:10A0D000014910220A60704710ED00E072B640405E
:10A0E00080F31188BFF36F8FBFF34F8F30BF62B61D
:10A0F000BFF36F8F704700BF72B6494081F311887C
:10A1000020BF80F3118862B6704700BF40B20028BC
:10A1100007DB044A4109012300F01F00834042F895
:10A120002130704700E100E040B200280CDB430919
:10A13000064900F01F0020330122824041F823200D
:10A14000BFF34F8FBFF36F8F704700BF00E100E098
:10A15000054B420900F01F0053F82220012303FAA7
:10A1600000F01040704700BF00E100E040B200285E
:10A17000A8BF00F1604001F10101B8BF064B4FEAF2
:10A180004111ACBF00F5614000F00F00C9B2B4BF8F
:10A19000195480F80013704714ED00E008B572B64A
:10A1A000044B9A691AB100229A611EF0E8F962B66E
:10A1B00008BD00BFAC3A002030BFFFF7FDBF00BFB5
:10A1C0000F4A08B50F4B22F07F029A60BFF34F8F02
:10A1D000BFF36F8FD3F8882022F47002C3F8882071
:10A1E000EFF3148323F0040383F31488BFF36F8F1A
:10A1F00016F064FE17F03AFF00F084F916F068FEDE
:10A200000060020000ED00E0094A0A49936809680D
:10A21000D967094998674B6843F080534B60002326
:10A2200083F31188BFF36F8F9368D86F704700BFB7
:10A23000AC3A002080AB040000ED00E00F498A68D2
:10A240004FF030001044EFF3098C80E8F01F20201D
:10A2500080F31288BFF36F8F094F4FF00066CA6911
:10A260008A603E60906F0023936780F3118802F14B
:10A27000300090E8F01F8CF309887047AC3A00205A
:10A2800004ED00E01EF0040F0CBFEFF30880EFF3C5
:10A290000980816911F8021C0229FFD001B51AF06A
:10A2A00049FB01BD42F8203C009B42F81C3C0A4996
:10A2B000019B42F8183C029B42F8143C21F001013A
:10A2C0004FF0807342F8043C42F8081C0023203A07
:10A2D00002658367704700BF272B0400074B986017
:10A2E000104681F30988002163B681F31188BFF31A
:10A2F0006F8F0022002318F016FC00BFAC3A00203C
:10A3000001B572B60B4A906900281EBF0021916109
:10A310001EF035F962B6EFF30580A0F110004FEAA8
:10A32000C0000549014409C99847BDE801400349F7
:10A3300008470000AC3A00203C91040041A3020011
:10A34000044B9968D869884203D003494FF0805282
:10A350000A607047AC3A002004ED00E00D4B9A6AA9
:10A360009A6A9A6A920508D59A6B9A6A120404D579
:10A3700018B19A6A22F400429A629A6A9A6AD205DD
:10A38000044A58BF9B6A936A002043F47F43936258
:10A390000870704700ED00E00E4B9A6A9A6A9A6A5C
:10A3A000920708D55A6B9A6A120604D518B19A6AB0
:10A3B00022F080029A629A6A9A6A9A6AD206054ADA
:10A3C00058BF9B6A936A002043F0FF0393620870B2
:10A3D000704700BF00ED00E070B5404B5B688AB08D
:10A3E0000646C3F30803002585F31188BFF36F8F7A
:10A3F00002F07F40B0F17F4F11D102F00C0008282D
:10A400000DD010074CBF0E4601250022033B8DF8EE
:10A410000720032B3AD8DFE803F00452565A2E46A1
:10A42000F3E72E4BDA6A910730D4DA6A002A2DDB83
:10A43000DA6A52002AD5B26932F8021C4DF602726D
:10A44000914209D093F8282042B10DF10701012073
:10A45000FFF7A2FF04461AE0346818E093F82920B9
:10A460002AB10DF107010120FFF778FFF2E75A8DBD
:10A4700092B25AB19A6A9A6A9A6A9A6A9A6A9A6A75
:10A480009A6A6FEA02426FEA12429A6200249DF8C9
:10A49000073093B92022314602A81AF012FB099B1B
:10A4A000BDB1C3F3080222B96FEA53236FEA432315
:10A4B000099302A920461AF03BFA0AB070BD0DF1CB
:10A4C00007010020C4E70DF107010020CCE7034B92
:10A4D000D0E723F4FF7323F00103E9E700ED00E088
:10A4E000024A536943F010035361704700ED00E0E6
:10A4F000EFF30880EFF3098101B57246FFF76CFFB7
:10A5000001BD00BF044800232021C2180133302BB5
:10A5100082F80013F9D1704700E100E01EF01CFD45
:10A52000202080F3118808484FF40061401880F320
:10A530000988EFF314800221084380F31488BFF3E5
:10A540006F8FFFF73DFE000058550020064B9B68BB
:10A55000834207D1EFF3058323B1044A536843F0E4
:10A560008053536017F01EBDAC3A002000ED00E0B0
:10A57000024B034A0348012100F060B800000420A8
:10A5800000000020DC970400F0B5204E00258D422D
:10A5900001DB1046F0BD446874B353B104F1FF3CD5
:10A5A00014EA0C0F2FD11F2C2DD907681CEA070FB6
:10A5B00029D1202C0768D0F808C05FFA82FE1ED986
:10A5C000B4F1004F1DD8013CB4FA84F4C4F11F0467
:10A5D0006400BEF1070F4CEA040C14D827F01F04E6
:10A5E000144344F01004C6F89820C6F89C404CF080
:10A5F0000104C6F8A040013201350C30C7E7082439
:10A60000E7E73E24E5E76FF01502C2E700ED00E062
:10A61000044B0522C3F89420BFF34F8FBFF36F8F15
:10A62000704700BF00ED00E0BFF35F8F024B0022D8
:10A63000C3F89420704700BF00ED00E010B5034C54
:10A6400001232278FFF7A0FF207010BD6D3B002092
:10A6500014490868082810B521D8FFF7E5FF124C07
:10A6600049680022904201F10C0105D10F4B18708E
:10A67000FFF7CEFF002010BDC4F8982051F80C3C25
:10A6800023F01F03134343F01003C4F89C3051F828
:10A69000043C43F00103C4F8A0300132E2E74FF07C
:10A6A000FF30E8E7E897040000ED00E06D3B002094
:10A6B0004FF02003EFF3118283F31288BFF36F8F03
:10A6C00006490123C1F840354FF08041C1F8783583
:10A6D00082F31188BFF36F8F0020704700E00140C4
:10A6E0004FF08043C0B2C3F81C05BFF34F8F05493C
:10A6F000054BCA6802F4E0621343CB60BFF34F8F8F
:10A7000000BFFDE700ED00E00400FA0520B1034BB7
:10A71000800143F001031847704700BF70940400A4
:10A7200010B5164816F056FB0446154816F052FBB5
:10A730002269A168136823F08063136020460B68C8
:10A740004FF400721A21984723691B685B01A368C4
:10A750004FF0806154BF1B69DB682046984722692F
:10A76000A168136823F01003136020460B684FF4B0
:10A77000807204219847002010BD00BF80AE040005
:10A7800087AE040070B5214CBFF35B8F2368BFF325
:10A790005B8FDA0706460D4601D50C2070BD0129F6
:10A7A00031D8BFF35B8F54E8003F43F0020244E826
:10A7B00000210029F7D1BFF35B8F9B07EDD414482C
:10A7C00031461AF01BFA134806F120011AF016FA66
:10A7D000BFF35B8F75B154E8003F43F0040344E8D6
:10A7E0000032002AF7D1BFF35B8F0B4816F0BAFE98
:10A7F0000020D3E754E8003F23F0040344E800328C
:10A80000002AF0D0F6E71220C8E700BFEC1B0020BA
:10A810008E3B0020AE3B00208C0B00202DE9F04148
:10A820005F4F604D4FF0FF324FF0FF33384616F068
:10A83000BFFEBFF35B8F2C68BFF35B8F14F0010486
:10A8400055D0DFF86481594C594E5A48424621464A
:10A8500018F07BFF00283ED02022314620461AF017
:10A8600020F90028F1D04FF000084FF0FF324FF0F0
:10A87000FF33012000F00EFA00F108060221044621
:10A8800030461DF051F83E230370422343700121EE
:10A8900030461DF049F808230370412130461DF071
:10A8A00043F8064600F8018BB8F1000F16D040229D
:10A8B00000211AF011F9BFF35B8F55E8003F23F038
:10A8C000010345E80032002AF7D1BFF35B8F204631
:10A8D00000F028FEA6E74FF01F08C6E735491AF03A
:10A8E0008DF9203106F121001AF088F9E3E7BFF372
:10A8F0005B8F2B68BFF35B8F9B0793D52A492D484D
:10A9000019F0E1FD002811DBBFF35B8F27492B68AD
:10A910002748BFF35B8F13F0040F01F12002224B95
:10A9200018BF0146104618F05FFF04464FF0FF3293
:10A930004FF0FF33012000F0ADF900F108080221CB
:10A94000064640461CF0F0FF3E230370222343706E
:10A95000012140461CF0E8FF0923037021214046F5
:10A960001CF0E2FF034601309CB91F221A70FF2140
:10A9700020221AF0B1F8BFF35B8F55E8003F23F0B7
:10A98000020345E80032002AF7D1BFF35B8F30465F
:10A990009EE7002207491A701AF030F9EBE700BF72
:10A9A0008C0B0020EC1B0020089804006E3B00205C
:10A9B00095AE04008E3B002070B5067D044676B946
:10A9C00083681D8842F22602954245D00FD842F294
:10A9D000010295424FD042F225039D4213D02A4BEB
:10A9E000D3F8543120461B69BDE87040184742F245
:10A9F0005E039D42F3D1032108301CF0B4FFA06830
:10AA000090F840102EE0032108301CF0ACFF2046E7
:10AA100012F04AFBBFF35B8F1C4B1A68BFF35B8FCE
:10AA2000920707D50C26314642F225001AF0C2F8EB
:10AA3000002070BDBFF35B8F53E8002F42F001018F
:10AA400043E800100028F7D1BFF35B8FD307E9D4A8
:10AA50000F4816F087FDE6E7032108301CF083FF5E
:10AA6000A0683146FFF78EFE0646204612F01CFB1A
:10AA700031462846DAE7DA7802F07F02DA701A798E
:10AA800022F001021A71AAE700000020EC1B00204E
:10AA90008C0B002010B588B00C4C0D49002200230F
:10AAA000CDE9062300230A22CDE90323CDE90133B2
:10AAB00000934FF48F62074B204616F011FB0649B6
:10AAC000204608B0BDE810401DF054BD280E0020FF
:10AAD000C03E00201DA802008EAE040003490448B9
:10AAE000CA79C2EBC202FEF7A3BE00BF000000207D
:10AAF000B5AE0400F7B516461F46044620B96FF000
:10AB00000104204603B0F0BD01A918F009FD114968
:10AB10000246204619F0B1FF04460028EFD1BFF3EA
:10AB20005B8F0D4D2B68BFF35B8F5B07E9D4CC3D8A
:10AB3000072229463846B047062806D8072221466C
:10AB4000284619F0C9FFEC71DBE70723B0FBF3F0EF
:10AB5000E871D6E7A3AC0400CC0000202DE9F04159
:10AB600088B09C79DDF838805D791E79DF7893F8BC
:10AB700002C093F801E01B78B8F1000F0ED0CDE9C8
:10AB80000638CDE904CE1346CDE90267CDE900458C
:10AB9000084A17F0A4FE08B0BDE8F081CDE905E34E
:10ABA000CDE9037C1346CDE90156034A009417F022
:10ABB00096FEF0E7BBAE0400DFAE0400014816F0DD
:10ABC00055BE00BF3C03002010B5154CE379CBB156
:10ABD000BFF35B8F134C2368BFF35B8F9A0701D4DD
:10ABE00000F056FDBFF35B8F54E8003F23F4804232
:10ABF00044E800210029F7D1BFF35B8F5B040CD43C
:10AC0000002009E000F0E2FF30B9E379002BDFD14A
:10AC100001F01CF80028DBD010BDFFF7CFFFEFE7F5
:10AC200000000020CC00002030B4034608461A780B
:10AC3000012A13D0022A26D072B9154A02F1100453
:10AC400052F8045B41F8045BA242F9D15B881278A8
:10AC50000A7043731B0A837330BC70470C4A02F1BD
:10AC6000100452F8045B41F8045BA242F9D15B681E
:10AC700012780A70C3F3072243731B0CC3731B0AB9
:10AC800082730374E8E730BC1122194619F019BF2A
:10AC900000AF040038B5054605481CF0E3FD044646
:10ACA00020B1002108301CF0FCFD2575204638BD80
:10ACB000CC0C00200B460B490246D1F8380110B5E8
:10ACC00020B9BDE810400120FFF7E4BF1CF0FAFDF9
:10ACD0000123002103758181044608301CF0E1FD49
:10ACE000204610BD0000002070B504460F2C0D4614
:10ACF0001046194605D80D2C0DD9BDE87040FFF758
:10AD0000D9BF132C07D10C481CF0ACFD044638B950
:10AD10000024204670BD02460B4645B10748F3E7C4
:10AD2000002108301CF0BDFD01232375F1E7BDE8CB
:10AD300070400120FFF7AEBFF80C0020480C002047
:10AD400038B58368B3F801401B7863B9204601F039
:10AD5000EFFC054640B9084B1A8822B96FEA045047
:10AD60006FEA1050188038BD012101F0E9FC284637
:10AD7000BDE838401AF045BEEC3A002010B501217C
:10AD8000044608301CF0F7FD2146034A0078BDE870
:10AD900010400A2319F0DFBF4099040013B50C4C92
:10ADA0000146052294F8670001F0C4FE70B9094B12
:10ADB00018689A8800909B79ADF8042094F8670091
:10ADC0008DF806300422694601F0B4FE02B010BDD1
:10ADD000000000201E940400F8B5074690790E4646
:10ADE000144612F09FF82D4B834255D1204612F0A5
:10ADF000A1F82B4D0C2303FB00504388BB424BD1E1
:10AE0000284FD7F8380120B112F04EF90023C7F8C7
:10AE10003831204612F08EF80C2707FB00504368AB
:10AE2000A3B19EB9204612F085F807FB005001231C
:10AE30004768D7E9002000F01F0103FA01F13B7ACF
:10AE40004009D3B102EB800019F0B5FF204612F0A3
:10AE500071F80C2707FB00508368EBB1204612F015
:10AE600069F878432E54204612F064F807FB005529
:10AE7000A868BDE8F84016F075BBCB4302EB800232
:10AE8000BFF35B8F52E8000F184042E80001002931
:10AE9000F8D1BFF35B8FD9E7F8BD00BFA00C00204D
:10AEA000F41B00200000002038B5042104460830BF
:10AEB0001CF061FD4578017840882246FFF78CFF41
:10AEC00025B10348BDE8384016F04CBB38BD00BF83
:10AED0002001002038B50321044608301CF04BFD4A
:10AEE000A36805781978B0F801002246FFF774FFCF
:10AEF00025B10348BDE8384016F034BB38BD00BF6B
:10AF0000200100202DE9F047DFF80481DFF80491EB
:10AF100008F1140AD8F80C3050466FF35233C8F8D1
:10AF20000C3001F0D1FB451C39484FF0FF324FF097
:10AF3000FF33294617F084FA60B13749374840F6A5
:10AF400093134A4617F0BEFC404080F311884FF03F
:10AF5000030002DF2E4E15B916F072FFDAE7F36830
:10AF6000C3F34533042B48D1337B002B48D12C4805
:10AF7000002200231CF07BFC044660B929492748C5
:10AF800040F62A134A4617F09DFC404080F3118892
:10AF90004FF0030002DF244F24484FF0FF324FF000
:10AFA000FF3316F005FBD7F8380120B112F07CF81A
:10AFB0000023C7F8383120461CF084FCC7F838015C
:10AFC0002046FFF7F9FCC0B1184816F0CBFA20462E
:10AFD00011F0B0FF164B0C2202FB00301F214088FD
:10AFE0002246FFF7F9FED7F8380112F05DF800238A
:10AFF0002046C7F8383112F057F81436013DAAE759
:10B00000012BFAD13069383801F07EFEF5E700BF38
:10B010004C03002011AF040045AF04004EAF040004
:10B020003C0100206BAF0400000000202001002044
:10B03000F41B002010B5C1E900239DF808300B7205
:10B040000C4611F077FF034B0C2202FB00335C60CF
:10B0500010BD00BFF41B00202DE9F0474FF0FF3278
:10B060004FF0FF3306461748174D0F461CF0FAFB0A
:10B07000044600F1080A00214FF0000850461CF079
:10B0800010FC84F81480204611F054FF4FF00C0996
:10B0900009FB00504680204611F04CFF09FB005090
:10B0A000C0F80880204611F045FF09FB0055032138
:10B0B000C5F8048050461CF037FC87700680204697
:10B0C000BDE8F087A00C0020F41B002038B5054631
:10B0D0000C4619B9FFF7C0FF044698B140F6354356
:10B0E0009D4209D12046FFF767FC054640B1204646
:10B0F00011F0DAFF284638BD044821461CF0D5FB84
:10B100000025F7E76FF06805F4E700BF3C01002079
:10B11000F0B5154687B00C4621B9FFF79DFF0446F0
:10B12000002847D00122002168461DF010FB204670
:10B1300011F000FF214F0C2303FB0070C0F808D072
:10B1400020461CF0BFFB01461D481CF0AEFB4FF42F
:10B15000A0220023684616F02BFA064680B1194A51
:10B1600019491A4840F2311317F0ACFB1848314620
:10B1700017F0A8FB404080F311884FF0030002DF76
:10B18000204611F0D7FE0C2358433E5C56B12046B2
:10B1900011F08AFF092E14BF6FF004006FF06E00EB
:10B1A00007B0F0BD15B12C600020F9E7204611F082
:10B1B0007BFFF9E76FF06800F2E700BFF41B0020A7
:10B1C0003C01002011AF040045AF04004EAF040065
:10B1D0006FAF04000138C0B202289ABF014B185C5F
:10B1E0000020704742B004007FB5437B072B044624
:10B1F0005AD1BFF35B8F4368BFF35B8F9B0400F1B1
:10B2000004061BD4C37823B1284B93F8D0301D0714
:10B2100014D5022142F21600FFF71EFF054668B161
:10B22000022108301CF080FB23880380294642F26B
:10B23000160004B0BDE87040FFF748BFBFF35B8F56
:10B2400063681A4DBFF35B8F13F4805FC3F3003163
:10B2500011D195F8D130D8070DD5022300911A46A7
:10B26000204619F089FF30B98021304604B0BDE88E
:10B27000704019F0A0BD95F8D0309A0614D5D5F8D5
:10B2800054319B689B070FD50DF10E0103A819F0EF
:10B2900023FF48B9BDF80E20BDF80C10204604B0BD
:10B2A000BDE8704019F04BBF04B070BD0000002035
:10B2B0002DE9F043B0F801706B4A6FEA075311882B
:10B2C0006FEA13539BB2994205464FF0000608BF40
:10B2D000168085B008BF012600F0C4FA2C781FFA4A
:10B2E00087F8FCB13C2C3ED100F0BAFDBFF35B8F78
:10B2F000103050E8003F23F0400340E80032002ABD
:10B30000F7D1BFF35B8F0020FFF748FD054650B330
:10B310000473002101F014FA284605B0BDE8F0439B
:10B320001AF06FBB2B79023B012B05F104091DD8E4
:10B330000722494602A819F0C4FB9DF808300622EE
:10B34000023B05F111010DF101008DF8083019F0F3
:10B35000B8FB01238DF80030EB78012B1BD01F21A7
:10B36000404619F0D1FE05B0BDE8F083EB78012B23
:10B3700004BF3E4B93F86740494620461AF0FCF85C
:10B380000722014602A819F09CFB0722494668469D
:10B3900019F097FBE0E702A8FFF700FDEB78012B1F
:10B3A000044611D100F05CFDBFF35B8F00F1100388
:10B3B00053E8001F21F0400143E80012002AF7D1B2
:10B3C000BFF35B8F1AF04EFA002CC8D0204607223C
:10B3D00020F8887B02A919F074FB2A7EEB7D43EAF2
:10B3E0000223A4F89E30AA7E6B7E43EA0223A4F8CF
:10B3F000A4302A7FEB7E43EA0223A4F8A630EB7840
:10B40000E37000222273012B40F20112A4F8B8204D
:10B4100017D10722694604F18F0019F052FB00F0A2
:10B420001FFD217A114DC1EBC1010722294404F10E
:10B43000960019F046FBD5F8DC305B0601D500F02C
:10B44000BBFE0721204601F07BF91EB101212046F9
:10B4500001F076F920461AF00FFB2046FFF7C4FEF4
:10B4600020461AF0CEFA7EE7EC3A002000000020D9
:10B4700029289ABF014B185C0920704718B00400B6
:10B480002DE9F041044600F1080630461CF083FA2D
:10B49000B4F80C80B8F1010F05460CD81C4A1D49C0
:10B4A0001D4840F62F5317F00DFA404080F31188E5
:10B4B0004FF0030002DF304602211CF05CFA074621
:10B4C000007819F036FCC20706460CD4104A13491E
:10B4D000114840F6335317F0F5F9404080F31188D6
:10B4E0004FF0030002DF05230D4A3878214619F09A
:10B4F00032FCB30707D52369A4F80C8013FA85F54D
:10B50000A560BDE8F0812046BDE8F04111F0CCBD5A
:10B5100011AF04008FAF04004EAF0400A8AF0400C9
:10B52000E898040070B53B4D2B68044613B916F03B
:10B5300023FD2860237D012B36D0032B63D1A38903
:10B54000032B0CD8344A3549354840F2B51317F06F
:10B55000B9F9404080F311884FF0030002DF042165
:10B5600004F108001CF007FAFF2243880688627580
:10B57000A289C6F30B009A42E08203D0204611F064
:10B5800093FD0FE001F0D4F805460028F6D001F055
:10B5900083F9320B6075214628461AF0CAF928460D
:10B5A0001AF02FFA002070BDA389012B0CD81A4A7B
:10B5B0001A491B4840F6171317F084F9404080F3EE
:10B5C00011884FF0030002DF022104F108001CF093
:10B5D000D2F90546007819F0ACFB83070CD40E4A6B
:10B5E00010490F4840F61B1317F06CF9404080F3E8
:10B5F00011884FF0030002DF0B4A2878062321460A
:10B6000019F0A9FBBAE7204611F04EFD6FF01500C6
:10B61000C9E700BFF01B002011AF04008FAF04008A
:10B620004EAF0400C1AF04001099040010B5037DB3
:10B63000012B04460CD0094A09490A4840F67C53BC
:10B6400017F040F9404080F311884FF0030002DF0B
:10B650002046FFF715FF002010BD00BF11AF04000A
:10B66000EFAF04004EAF0400084A0346D2F854017D
:10B6700030B9D96839B1196929B1C2F85431704764
:10B680006FF0770070476FF01500704700000020E2
:10B690000148022119F08FBBCC00002010B5FAF749
:10B6A0009BFE034B1B6813B1BDE81040184710BD4B
:10B6B0000C1C002070B5224DD5F8543188B00646D8
:10B6C000002B37D0012105F1CC0019F074FBC30722
:10B6D00033D419F0D5FA044648BB1A4B1E60002239
:10B6E0000023CDE906236FF00803CDE90203CDE97D
:10B6F00000000490144B154915484FF4207215F0C2
:10B70000EFFC144912481CF035FFFFF7C3F9D5F8D8
:10B710005431DB689847044648B926B908B0BDE8FB
:10B720007040FAF759BE05F1BC0016F09FF82046AC
:10B7300008B070BD6FF01204F9E76FF07704F6E718
:10B74000000000200C1C002005AF02003843002040
:10B75000A80E002012B004000048704731AD04006C
:10B76000F8B50B4F06460025FB79ECB2A34202D890
:10B770006FF001000AE0C4EBC401072239443046EF
:10B7800019F08FF901350028EED12046F8BD00BF31
:10B790000000002038B513490622054619F081F94A
:10B7A000D8B1062142F20500FFF756FC0446B0B1BD
:10B7B0000622294608301CF0BDF80022214642F23C
:10B7C0000500FFF7A5FC48B906220648294619F0EE
:10B7D00078F9054B012283F86020002038BD6FF016
:10B7E0006800FBE7610000200000002030B504463F
:10B7F00085B00D46D1B10023072202A92846029345
:10B80000CDF80B3019F04DF980B11448C4EBC404E5
:10B810002946204419F02BFE114819F02BFE83070E
:10B8200001D5FFF7CBF9002005B030BD684619F00F
:10B8300072FA0028F8D16846FFF792FF0028F5DA7F
:10B84000064BC4EBC4041C446946204619F00FFEA5
:10B85000002DE1D021462846DCE700BF0000002093
:10B86000CC0000200A4BBFF35B8F53E8002F22F47B
:10B87000005143E800100028F7D1BFF35B8F930419
:10B8800004D504490022022003F0A0BF704700BF86
:10B89000CC000020B1550400F7B5464C94F81821AF
:10B8A00094F8193105460AB19A4208D2013384F856
:10B8B00019312B7A43F004032B7203B0F0BD002141
:10B8C0000622084601F036F90646A8B1BFF35B8FA1
:10B8D000CC3454E8003F43F4005344E80032002ADB
:10B8E000F7D1BFF35B8F2B7A43F001032B7203B0C8
:10B8F000BDE8F0401AF085B801462F4800F0AAFADA
:10B9000094F81931B3B994F8192194F818319A427E
:10B910001FD10022114642F22900FFF7F9FB70B94E
:10B9200094F81931013384F819312B7A43F0040368
:10B930002B7204E0304619F0EBFD0028E3D0012023
:10B9400019F0E6FD1D48002103B0BDE8F04000F00D
:10B9500081BA6F1C05F12A01384619F0A8FD064688
:10B960000028ECD194F81931013384F819312B7A7D
:10B9700043F004032B7294F89F305B07DFD5394600
:10B98000684619F074FD0123082142F24E008DF83B
:10B990000730FFF761FB04460028D0D00822694633
:10B9A00010441BF0C7FF3246214642F24E00FFF71B
:10B9B000AFFBC4E70000002041550400815404009F
:10B9C0002DE9F0413C4C94F8182194F819310546C2
:10B9D00012B10132934208DD013B84F819312B7A10
:10B9E00023F004032B72BDE8F081002106220846F3
:10B9F00001F0A0F80646A0B1BFF35B8FCC3454E849
:10BA0000003F43F4005344E80032002AF7D1BFF36B
:10BA10005B8F2B7A43F002032B72BDE8F04119F0E3
:10BA2000F0BF0146254800F015FA304619F070FDC8
:10BA3000074688B994F8193194F818219A4217D218
:10BA4000013B84F819312B7A1D4923F00403024687
:10BA50002B72022003F0BAFE94F8193113B10120C1
:10BA600019F056FDBDE8F0411648002100F0F2B98A
:10BA7000072142F22800FFF7EFFA05F10108064618
:10BA80000028E9D0072108301BF04EFF414619F08D
:10BA9000EEFC3A46314642F22800FFF739FB002817
:10BAA000DAD194F81931013B84F819312B7A23F05B
:10BAB00004032B72D0E700BF0000002041550400B2
:10BAC000FF5404008154040073B50C46054618B9B0
:10BAD000ECB16FF0150018E00023072269460093CF
